S01C0000626C696E6B5F6B65726E656C5F6672656572746F732E7333371F
S1130000001000206D040000690400006904000071
S11300106904000069040000690400006904000028
S1130020690400006904000069040000A13A0000AA
S11300306904000069040000313B0000E925000068
S113004069040000690400006904000069040000F8
S113005069040000690400006904000069040000E8
S113006069040000690400006904000069040000D8
S113007069040000690400006904000069040000C8
S113008069040000690400006904000069040000B8
S113009069040000690400006904000069040000A8
S11300A06904000069040000690400006904000098
S11300B0690400006904000041250000690400008F
S11300C06904000069040000690400006904000078
S11300D06904000069040000690400006904000068
S11300E06904000069040000690400006904000058
S11300F06904000069040000690400006904000048
S113010069040000690400006904000010B5054C8E
S1130110237833B9044B13B10448AFF300800123AF
S1130120237010BD8C100020000000000049000066
S113013008B5034B1BB103490348AFF3008008BD66
S1130140000000009010002000490000154B002B17
S113015008BF134B9D46A3F5803A00218B460F46FA
S11301601348144A121A04F012F80F4B002B00D053
S113017098470E4B002B00D0984700200021040024
S11301800D000D48002802D00C48AFF3008003F0A6
S1130190CFFF2000290000F043F803F0B5FF00BFB3
S11301A00000080000100020000000000000000013
S11301B08C100020EC1F0020000000000000000054
S11301C000F00CB810B5044C4FF47A7003F092F8B8
S11301D0204600F0D4F9F7E7D44100001FB50B4BDB
S11301E002930B4B019301230093A022002309499E
S11301F0094802F0EBFE30B90848552105B05DF816
S113020004EB00F0FFBA05B05DF804FB28130020EE
S1130210A8100020BC410000C5010000C741000037
S113022008B502F0B1F9FFF7CBFF02F0BAF90020EC
S113023008BD704708B50421112000F097FF012183
S1130240084800F07DFB0221074800F08FFF0221DF
S1130250064800F08BFF0221054800F087FF0020CC
S113026008BD00BF30253E0002001E000300200030
S11302700500240008B5204B01225A641F4BDB6C97
S11302801B0E0FD11E491F484AF6E8520A60026845
S113029042F0040202600B601B4A136843F40053EB
S11302A0136001E0012BF7D0184A136A23F44413B6
S11302B043F488131362A2F58042136843F48073F5
S11302C0136002F546522432136843F4F843136072
S11302D001F02EFF00F038F801F0BEFE01F0E0FE60
S11302E001F012FFFFF7A6FF01F0CCFE00F01EF8AC
S11302F0BDE8084002F086B900000E40B081E00F6E
S113030090310E4098310E4064310E4000400E4052
S113031002F092B900F004B801F0A8BF704770472A
S1130320014800F029B900BFD441000008B50121FB
S1130330044800F005FBFFF77CFFBDE8084000F02F
S113034015B800BF00350A000121014800F0F8BAD1
S113035000350A00014B02221A607047ECA10046E6
S1130360014B02221A607047ECA1004470B5384D6D
S1130370384E0FCD86B06C460FC495E80300364D59
S113038084E803000121354800F0DAFA30460121FF
S1130390012400F0D5FA324B0293694628468DF8C1
S11303A00E4001F0F5FD2346042200210A2001F04D
S11303B0ADFC2246002302210A2001F0A7FC2346BB
S11303C004220721052001F0A1FC04222146234632
S11303D00A2001F09BFC234BAB670B236B674FF4A4
S11303E0487002F0E1F8FFF7BBFF142002F0DCF8DC
S11303F0FFF7B0FF232002F0D7F8FFF7B1FFB921D0
S1130400284601F01FFEFFF7A5FF00231A461946F0
S11304100A2001F07BFC00231A4602210A2001F085
S113042075FC234600220721052001F06FFC2346BA
S1130430002221460A2001F069FC284601F060FDF3
S11304400021A9673046696700F07AFA06B070BDEA
S1130450EC410000006204000008014000350A007D
S113046000127A001E1D0012FEE7000008B500F01D
S113047069F8064B0649074A8B4201D3FFF766FE2B
S113048052F8040F43F8040BF6E700BF00100020F5
S11304908C100020044900000048704700F0490215
S11304A0104AD2F8943003F00703023B032B13D80D
S11304B0DFE803F00C14020E0B4B1B68D2F80001AA
S11304C0C0F304200130B3FBF0F07047074BF4E7AE
S11304D0074B1B685B08F1E7054BEEE74FF400435D
S11304E0ECE700BF00400E40101000200810002070
S11304F00C10002008B5FFF7D3FF054BD3F80831E3
S1130500C3F308230133B0FBF3F0024B186008BDBA
S113051000400E4004100020014B1868704700BFD3
S113052008100020054B1860054BD3F8943003F0F5
S11305300703022B01D1FFF7DDBF7047081000202D
S113054000400E40044B054A9A60D3F8882042F4D8
S11305507002C3F88820704700ED00E0000000003E
S11305604FF4004070474FF47A707047014B18689D
S1130570704700BF10100020D0E90003184703693A
S11305800068184738B50D46044618B3012824D02E
S1130590022825D0032826D004282AD0052825D0CF
S11305A0831F012B25D9082825D0092825D00A28FE
S11305B00CBF07230023EB40DB0704D44FF479710D
S11305C00F4800F01FF930235C4301210D4BA94073
S11305D0195138BD40F2FF33EDE74FF6C073EAE737
S11305E040F6FF73E7E74FF47F43E4E74FF6FF730A
S11305F0E1E70023DFE70F23DDE74FF44043DAE7C9
S1130600044200000CA0004438B50D46044618B35B
S1130610012824D0022825D0032826D004282AD053
S1130620052825D0831F012B25D9082825D0092882
S113063025D00A280CBF07230023EB40DB0704D492
S113064040F213410F4800F0DDF830235C430121F0
S11306500D4BA940195138BD40F2FF33EDE74FF679
S1130660C073EAE740F6FF73E7E74FF47F43E4E73C
S11306704FF6FF73E1E70023DFE70F23DDE74FF4D5
S11306804043DAE7044200000CA0004610B5012103
S11306900446094800F054F90121084800F050F9D3
S11306A0A37820786178B3FA83F35B09042201F01C
S11306B02DFB002010BD00BF4041050000350A009D
S11306C00346007859789B780BB9FFF75BBFFFF7B7
S11306D09BBF0346007859789B780BB9FFF794BF0A
S11306E0FFF750BF38B50478457834B3012C27D0D0
S11306F0022C28D0032C29D0042C2DD0052C28D052
S1130700A31F012B28D9082C28D0092C28D00A2C67
S11307100CBF07230023EB40DB0704D440F22E4137
S1130720114800F06FF830235C4304F18044012247
S113073004F52044AA40A26138BD40F2FF33EAE741
S11307404FF6C073E7E740F6FF73E4E74FF47F43E7
S1130750E1E74FF6FF73DEE70023DCE70F23DAE778
S11307604FF44043D7E700BF0442000070B504785B
S1130770457806465CB3012C2CD0022C2DD0032CDA
S11307802ED0042C32D0052C2DD0A31F012B2DD913
S1130790082C2DD0092C2DD00A2C0CBF07230023A4
S11307A0EB40DB0704D440F2FE31144800F02AF891
S11307B030235C43124B234405EBC305AD00B378EF
S11307C02868C0B213B9B0FA80F0400970BD40F295
S11307D0FF33E5E74FF6C073E2E740F6FF73DFE768
S11307E04FF47F43DCE74FF6FF73D9E70023D7E7E5
S11307F00F23D5E74FF44043D2E700BF0442000083
S11308000CA01042FEE700000C4B984210D90C4B90
S1130810984210D9022201230A490B600A49D1F8EF
S1130820003123F0807343EA0263C1F8003170475A
S113083000221346F0E70122FBE700BF0048E8016D
S11308400090D0034000C84300400E4038B5104B20
S1130850104C5B68C9B2002304EBC30215798D42C6
S113086003D154F83350854210D20133052BF3D110
S113087041F29E310848FFF7C5FF032204494B6843
S113088023F0407343EA02634B6038BD5279F5E7C5
S113089000000E406C430000F64200001F2810B513
S11308A0044604D940F22F110248FFF7ABFF0120A0
S11308B0A04010BD7C42000038B5074C41F67133AE
S11308C0256C2364FFF7E8FD0021FFF7BFFF0DB19E
S11308D00023236438BD00BF00000E40044B1B6896
S11308E05B0603D4034A1368002BFCD1704700BF96
S11308F03C300E40C800C64308B5FFF7EFFF024B7B
S11309005868C0F3014008BD00300E40044BD3F8D2
S11309104421D20703D4D3F840211042FBD17047BD
S113092000400E4038B5054C41F67133256C236404
S1130930FFF78CFF0DB10023236438BD00000E4087
S1130940C0F30322013A38B50546092A21D8DFE865
S113095002F0272A202005131620191D134C00200D
S1130960C5F3043508B1FFF7D1FF04F1047405EBB6
S1130970C404A400216038BD01200D4CF0E7102010
S11309800C4CEDE74FF480300B4CE9E700200B4CA6
S1130990E6E741F63B110A48BDE83840FFF732BFAD
S11309A00020084CDCE70020074CD9E7B0400E409B
S11309B0E0400E40E8400E40F0400E4050410E40F2
S11309C0F642000000400E40C0400E4008B5C0F39F
S11309D00313013B092B60D8DFE803F0050B0F1963
S11309E05F5F1F233C532E4BD3F80001C0F3042058
S11309F008BD2B4BD3F81401F8E7294BD3F80001B9
S1130A00C0F300600130FFF749FF0138F0E7244BE1
S1130A10D3F80C01C0F30820EAE7214BD3F808010E
S1130A20F8E7204B984209D01F4B98420CD041F66E
S1130A30DF211E48FFF7E6FE0020D9E7184BD3F864
S1130A40200100F00F00DEE7154BD3F82001C0F3BE
S1130A500110D8E7164B984208D003F5B01303F5FC
S1130A608053984206D041F60331E2E70C4BD3F8A9
S1130A702801ECE70A4BD3F82801C0F30120043025
S1130A80C1E70C4B984205D1054BD3F8300100F077
S1130A900300ADE741F61231CBE741F63731C8E741
S1130AA000400E408006160080162E00F64200001C
S1130AB090171A00A009140008B5FFF787FF01304A
S1130AC008BD000000F00F00013808B5072856D80B
S1130AD0DFE800F0041726553A3E55462D4BD3F86F
S1130AE0943003F00703023B052B08D8DFE803F03A
S1130AF04E28260307050B2008BD0C20FCE7052023
S1130B00FAE7244BD3F8800000F007000228F3D062
S1130B1004283DD0012808BF032018BF0120EBE7BB
S1130B201C4BD3F8843003F00703013B032B09D893
S1130B30DFE803F00604022E0620DDE70220DBE7EF
S1130B400320D9E70120D7E7124BD3F88800DBE76D
S1130B50104B1B6F13F0010F14BF09200720CBE7C4
S1130B600C4BD3F85C3103F03003202B0ED0302B28
S1130B7003D0102B08BF0720CFE70820BCE70648A6
S1130B8041F68B61FFF73EFE0020B5E70420B3E792
S1130B900A20B1E700400E40F64200002C4B984278
S1130BA010B504460AD02B4B984207D02A4B9842E2
S1130BB004D041F29E412948FFF724FE2046FFF766
S1130BC081FF234B9C4211D0224B9C4212D0224BDA
S1130BD09C4213D1224BD3F8804004F00704042C28
S1130BE02ED8DFE804F02B12161E1A001C4BD3F883
S1130BF08440F2E71A4BD3F88840EEE7044641F20A
S1130C00CD411648FFF7FEFDE9E7BDE81040FFF7C8
S1130C10A7BCBDE81040FFF7A9BCBDE81040FFF732
S1130C20A2BCFFF73DFC0E4B0446D3F80001C0F311
S1130C3000600130FFF732FEB4FBF0F4204610BD33
S1130C4041F21F510548FFF7DDFD0024F6E700BF20
S1130C50030020000500240002001E00F6420000EC
S1130C6000400E4038B500F47813B3F5B01F0546C4
S1130C707DD02AD8B3F5202F07D00AD8B3F5003F8A
S1130C8062D0B3F5802F54D05BB9BDE83840FFF78C
S1130C9007BCB3F5602F00F0878005D8B3F5402F6B
S1130CA058D041F66B2189E0B3F5801F00F0A48091
S1130CB0B3F5A01FF5D15A48FFF770FF594BD3F88D
S1130CC0303103F00303D8403DE0B3F5101F69D081
S1130CD012D8B3F5F01F45D0B3F5001F55D0B3F5C6
S1130CE0D01FDED15048FFF759FF4E4B0446D3F8CE
S1130CF02801C0F3011043E0B3F5401F47D00BD8DF
S1130D00B3F5381FCDD14948FFF748FF454BD3F819
S1130D102031C3F30113D6E7B3F5481F53D0B3F51D
S1130D20781FBED1FFF7BCFB04462846FFF7C4FE7C
S1130D3028E0FFF7B5FB3B4BD3F80C31C3F3082392
S1130D400133B0FBF3F038BDFFF7AAFB354BD3F802
S1130D500831F3E7FFF7A4FB324BD3F81431C3F3A4
S1130D600423EDE73148BDE83840FFF717BF2F48AB
S1130D70FFF714FF2B4B0446D3F8200100F00F00BB
S1130D80FFF78CFDB4FBF0F0DDE72748EBE72648DE
S1130D90FFF704FF234B0446D3F82801C0F30120D6
S1130DA00430EDE71E48DEE72148FFF78BFE0728F5
S1130DB022D009283FF469AF4FF493511D48FFF73F
S1130DC021FD0020BFE71C48FFF77CFE01380728FF
S1130DD023D801A353F820F0C30D00001B0E00001C
S1130DE01B0E0000FF0D00001B0E00001B0E000078
S1130DF0F90D0000070E0000104B1868A3E7BDE8CA
S1130E003840FFF789BBFFF74BFB064BD3F80031A3
S1130E10C3F3042303FB000095E741F29721CDE7D8
S1130E200500240000400E400300200002001E00C4
S1130E3006000E00F6420000B80032001410002034
S1130E40014B1880704700BF18100020013808B506
S1130E50032816D8DFE800F0020F070C0C4B186AC1
S1130E60C0F3080008BD0A4B186900F07F00F9E7D9
S1130E70074B9869F9E7064BD3F89C00C0F30A00C6
S1130E80F0E7044842F26461FFF7BCFC0020E9E7A4
S1130E9000400E40F6420000013838B50C460328E5
S1130EA061D8DFE800F00241192DB1F5007F04D3C9
S1130EB042F28A612F48FFF7A5FC2F4AC4F30804C5
S1130EC01368002BFCD12D4A136A23F4FF7323F01B
S1130ED001032343136238BD7F2904D942F2976189
S1130EE02448FFF78FFC264904F07F020B68002B8F
S1130EF0FCD1224B1C6924F07F0414431C61EAE7F3
S1130F007F2904D942F2B2611A48FFF77BFC1D49DC
S1130F1004F07F020B68002BFCD1184B9C6924F071
S1130F207F0414439C61D6E7144DD5F890305B07D9
S1130F3004D542F2C1610F48FFF764FC6B6A23F0E9
S1130F40300343F010036B62296B0F4BC4F3C312DD
S1130F5003320F2A03EA010328BF0F221C4344EA89
S1130F6002742C63B7E742F2DB610248BDE8384003
S1130F70FFF748BCF64200006828C84300400E4012
S1130F806028C8436428C84300F8FF0F022838B516
S1130F900D4604D042F2F3611248FFF733FC124CC1
S1130FA0636A13F0300F04D0202D18D0302D00D0F8
S1130FB015B94FF4400305E042F20E710948FFF7FA
S1130FC021FC0A4BD4F8902033EA0202FAD15B02E6
S1130FD04ABFD4F8A0000120C0F3802038BD4FF4EC
S1130FE00003EFE7F642000000400E40FF33E10744
S1130FF0022808B50CD129B1094B4FF48060C3F81D
S1131000A80059664AB10220BDE80840FFF7BEBFF8
S113101042F244710348FFF7F5FB012008BD00BF0D
S113102000400E40F64200002DE9F04106460F460E
S1131030904604280DD8DFE800F0038B18138600CF
S11310404FF400724FF4807408230921002F65D0F7
S11310505BE042F2D8514148BDE8F041FFF7D2BB12
S11310600124022200232146F0E7002953D03C4CFE
S1131070636A13F0300F45D13A4BDB6B5A0504D445
S113108042F2E7513548FFF7BDFB636ADB0705D53C
S1131090636A23F0300343F01003636204240223E1
S11310A00321314D2E4A2B4414669B001A68002AF2
S11310B0FCD0B8F1000F23D00D44AD002B68002BF9
S11310C0FCD0022E1CD1DFB1254B596A11F001016D
S11310D01DD0012220213046FFF78AFF0220FFF7AE
S11310E0B5FE0122064600210220FFF79DFF31468E
S11310F00220FFF7D1FE1A4B1C662B68002BFCD094
S1131100BDE8F0810424022303210027C9E7304607
S1131110FFF73CFFE2E7082202230321104802669E
S1131120012202FA03F3D0F890201A42FBD1B8F15D
S1131130000FE5D001230A4A03FA01F1D2F89030F6
S11311400B42FBD1DCE720221024042305217DE798
S1131150802240240623072178E700BFF6420000DE
S113116000400E4000300E408004F210112870B58B
S113117006460C462BD1042917D1FFF7CDF90546B5
S1131180D0B10021284600F089FA06F00F06013E8E
S1131190072E00F2F080DFE816F01C006C009F00C0
S11311A0EE008200B900EE00C700052904D1764B99
S11311B01D68764B9D42E4D8023C0A2C4CD8DFE8EB
S11311C004F0134E363D4B4B4B4B4452DD0000258F
S11311D0DBE7023C0A2C3FD8DFE804F007422A315F
S11311E03E3E3E3E374649000025002004240122AD
S11311F01146FFF719FFFFF75FFB0DB1FFF76EFB19
S1131200634B5C67FFF776F90446FFF749F9FFF78C
S1131210FBFAFFF771FB01462046FFF783FB002D25
S113122060D128460121BDE8704000F037BA00259E
S11312305848FFF7E9FA02200446D8E70025554844
S1131240FFF7E2FA01240320D1E741F64C7152483A
S1131250BDE87040FFF7D6BA41F65171F7E70025B3
S113126001200324C3E7002503200524BFE7072446
S1131270C1E7062C32D141F690714748474DFFF73C
S1131280C1FA4FF4FD514448FFF7BCFAFFF708F9DF
S1131290FFF7BAFA424B01221A60032321E0062C1D
S11312A0404DEED0013C092C2BD801A353F824F077
S11312B009130000E7120000F512000003130000F8
S11312C0031300008D120000031300000313000039
S11312D003130000E1120000334DE3E72F4DE1E773
S11312E004232B6070BD012211460020FFF79CFEF1
S11312F00223F6E7012211461046FFF795FE01236B
S1131300EFE741F6CB71A2E70023EAE7072C04D00C
S1131310092C06D042F2550199E71D4B00221A67A9
S1131320E0E71B4B0122FAE7013C072C1ED8DFE85B
S113133004F0201D1D161D1D0F0403221449D1F8AD
S11313405C3123F0300343EA0213C1F85C31C9E78E
S1131350012211460420FFF767FE0122EEE7012275
S113136011460220FFF760FE0222E7E742F2B301D2
S11313706DE70022E2E742F28A1168E7FFF79CFA80
S1131380002507243CE700BF0C100020002D31018C
S113139000400E400148E801F642000080400E4043
S11313A00816C84388400E4084400E4010B50446D9
S11313B01120FFF787FB042804D142F2734125482A
S11313C0FFF720FA012200210220FFF72DFE6378A7
S11313D01BB9A3780BB9E37823B142F2B1411D489C
S11313E0FFF710FA237C012B04D142F2B6411948CD
S11313F0FFF708FA184A217C536A23F001030229F3
S113140008BF43F001035362144B21781960637AD7
S1131410A18843EAC123D362136BA07A217A03F033
S11314207F630343E08843EAC02343EAC1130331E3
S11314300F2928BF0F2143EA01731363A37B617B48
S11314401B0143EA0133E17B0B43217B43EA014364
S1131450536310BDF642000000400E40A004C84390
S113146070B505461120FFF72DFB022804D142F286
S113147031510E48FFF7C6F90D4E0E4BB26B2C7866
S113148013401C436B7844EAC324AB7844EA0364F6
S1131490EB7844EA0324B36BA34205D00021012274
S11314A00846FFF7C1FDB46370BD00BFF6420000FB
S11314B000400E4080E4FFF8EFF31180602383F3D3
S11314C01188704780F3118870470000034B186837
S11314D080F04000C0F38010704700BF3C300E40E5
S11314E038B542EA032340F20112934205460C4602
S11314F030D0B3F5817F0DD2012B22D035D3B3F593
S1131500807F36D040F68E111E48FFF77BF900220B
S113151013461CE040F20122934222D006D8B3F5D0
S1131520007FEFD1184BD3F870310DE0B3F5407F55
S113153023D040F201329342E4D1134BD3F87831F3
S11315400BE0114BD3F87431C3F30722DBB22B60E9
S1131550226038BD0C4BD3F874311A0EC3F3074321
S1131560F5E7094BD3F87831EEE7074BD3F86C3144
S1131570EAE7054BD3F86C31EFE7034BD3F870314E
S1131580EBE700BF94430000B081E00F08B5FFF71C
S11315909DFF18B1024A1368002BFCD108BD00BF9F
S11315A0C800C6431A4B022810B5D3F880310C4644
S11315B012D0032813D0012814BFDBB2C3F30723CE
S11315C01B0323F47042ECB95AB140F61D111148C3
S11315D0FFF718F9002010BDC3F30743F0E71B0E13
S11315E0EEE70D49CA6E22F470421343CB66012024
S11315F0F1E70949D1F8EC2022F470421343C1F811
S1131600EC30F4E7002AF4D040F62911DFE700BFFC
S1131610B081E00F9443000000300E40F8B504465A
S11316200F46FFF753FF78B3FFF7B0FF174B5B6824
S1131630C3F301439C4227D0154BD3F80051FEF766
S11316402FFF022C06460FD1C5F30425114B05FBD1
S113165000059D4204D940F231610F48FFF7D2F8EA
S113166002213046FFF75EF9C4F1020210239340D1
S1131670064A13610FB1FFF789FF2CB921463046A2
S1131680BDE8F840FFF74EB9F8BD00BF00300E408A
S113169000400E40002D31019443000038B502464D
S11316A00D46FFF713FFB8B142B90C4BD3F8004114
S11316B0FEF7F6FEC4F3042202FB0002084B1B787B
S11316C029463BB1074B9A4204D80220BDE8384072
S11316D0FFF7A4BF0020F9E738BD00BF00400E406B
S11316E086130020002D31010378134A002B437820
S11316F070B514BF04260026002B8378946914BFA8
S113170002250025002B037924F03F0443EA040357
S1131710C47814BF08210021012C08BF43F0010341
S113172033432B430B4393611368417923F44033D0
S113173043EA0143136070BD00300E40224B4AF669
S1131740E85210B5596B5A639A6FD407FCD41B6CDA
S113175013F003031EBF1D4A01241460834203D106
S113176008B91A4B186010BD032B17D0B3B1164A31
S11317701446936FDB07FCD4136C23F00303034379
S11317801364A36F13F00103FBD100300F4A18BF99
S113179001200129106008BF6363E4E7431E012BA5
S11317A0E5D8094B4FF40022DA629A6FD207FCD4D1
S11317B01A6C22F0030242F001021A64024A536ACC
S11317C01C03FCD5D3E700BF00300E40B40AC64367
S11317D02DE9F04FA0F5E16389B00027B3F5966FCA
S11317E0054601919346CDE90277CDE90477CDE929
S11317F0067705D940F6EE215548FFF703F859E07E
S1131800544BB0F5E16F8CBF4FF0010A4FF0000A62
S1131810D3F8683152D01A0EC3F3074307920493E6
S11318204FF496694FF4E164DFF82C81D8F84C70DA
S1131830C7F301773B46524605A902A8FFF750FEBD
S1131840D8F8EC60C6F301263346524606A903A82D
S1131850FFF746FE0798049A2C1B811A6143B1FBDB
S1131860F9F3D1182CBF0123002388421CD3DBB920
S1131870069A0398131A6343B3FBF9F310EB030AB4
S11318802CBF0123002352450ED36BB9059B029A4A
S1131890981A4443B4FBF9F912EB09092CBF01204F
S11318A000204B4500D398B140F63C312848FEF760
S11318B0A9FF0027384609B0BDE8F08FC3F307221B
S11318C0DBB2079204934FF416794FF49664ABE7B6
S11318D0BBF1000F0ED0D8F85C3023F4FE4323F0A4
S11318E00203B5F5E16F43EA012318BF0220034365
S11318F0C8F85C30019B43B338460021FFF752FE21
S1131900074610B940F64B3176E701213046FFF720
S113191049FE074610B940F653316DE70E4A536E3F
S1131920D14538BFD14623F4FF73B9F1E70F23F053
S1131930010328BF4FF0E709B5F5E16F18BF43F085
S1131940010343EA49035366B4E70127B2E700BF42
S113195094430000B081E00F00300E40324A08B5D5
S1131960136FD16CC90703F0070342D5012B40D98B
S1131970132857D9143813288CBF102308232A4955
S1131980013BCA6C180322F47F4240EA0323134349
S1131990CB64264BCA6C1B88C2F303222833013262
S11319A002EB820003EB5303B3FBF0F3C86C013B7F
S11319B0072B20F0EE6028BF072340F4801040EA94
S11319C00363CB641A4BB3F90030002B10DB2833CC
S11319D0500800EB420203EB5303B3FBF2F30A6D2E
S11319E0072B28BF072322F0700242EA03130B657A
S11319F008BDD26CD10706D4012B04D8092811D90B
S1131A000A380928B8E7084AD26CD20703D5012B53
S1131A1001D82728B0E740F691310648FEF7F2FED8
S1131A200023ACE70423AAE700300E408213002011
S1131A3084130020944300000B4B1B6810B504462C
S1131A4033B9012804D94FF43B610848FEF7DAFEA4
S1131A50074B186F20F0070020431867054BBDE8BB
S1131A6010401888FFF77ABF8009C64394430000EA
S1131A7000300E408013002038B5594B02229A637F
S1131A809B6B03F00F039342044607D040F64B21AF
S1131A905448FEF7B7FE0025284638BD0389C82BF5
S1131AA004D940F655214F48FEF7ACFEA28823899D
S1131AB09A4204D940F656214A48FEF7A3FEB4F9E7
S1131AC00C30C82B04DD40F657214648FEF79AFE39
S1131AD06378012B54D1A388C82B04D940F65B2129
S1131AE04048FEF78FFEE28842F210739A4204D90E
S1131AF040F668213B48FEF785FEE3884A2B47D928
S1131B00B3F5FA7F46D340F6C3118B4294BF4FF02E
S1131B1000514FF040513248B4F90C50C36CA288C4
S1131B2023F0405323F00103002DA8BF43F0010329
S1131B300B43C364D0F8EC3043F44073C0F8EC308A
S1131B40294B1A80C36E43F08073C366274B186811
S1131B5000B10420FFF770FF254B21891980254B24
S1131B60B4F90C20A0881A80FFF7F8FEA37BA3B178
S1131B70012B22D040F6CE011A48FEF743FE0FE0B7
S1131B80022BB0D1A3880A2BADD94FF42661A7E765
S1131B900021C0E74FF08051BDE7114B164A9A650A
S1131BA0012211466088FFF713FE054640B940F64E
S1131BB09F210C48FEF726FE6EE7094B0F4AEEE71D
S1131BC0074A6078D36B43F48063D363FFF7B6FDB1
S1131BD0A37AA3F1200253425341094A13605BE7FD
S1131BE000300E4094430000801300208009C64357
S1131BF0821300208413002077402057372110B728
S1131C009407C64338B50D46044618B3012824D0BA
S1131C10022825D0032826D004282AD0052825D038
S1131C20831F012B25D9082825D0092825D00A2867
S1131C300CBF07230023EB40DB0704D440F213411D
S1131C400F48FEF7DFFD30235C4301210D4BA94013
S1131C50195138BD40F2FF33EDE74FF6C073EAE7A0
S1131C6040F6FF73E7E74FF47F43E4E74FF6FF7373
S1131C70E1E70023DFE70F23DDE74FF44043DAE732
S1131C80044200000CA0004638B50D46044618B3C3
S1131C90012824D0022825D0032826D004282AD0BD
S1131CA0052825D0831F012B25D9082825D00928EC
S1131CB025D00A280CBF07230023EB40DB0704D4FC
S1131CC04FF479710F48FEF79DFD30235C430121E9
S1131CD00D4BA940195138BD40F2FF33EDE74FF6E3
S1131CE0C073EAE740F6FF73E7E74FF47F43E4E7A6
S1131CF04FF6FF73E1E70023DFE70F23DDE74FF43F
S1131D004043DAE7044200000CA00044F8B50D4655
S1131D1016461F46044600283CD001283DD0022820
S1131D203ED003283FD0042843D005283ED0831F4B
S1131D30012B3ED908283ED009283ED00A280CBFE2
S1131D4007230023EB40DB0704D440F21D1127488E
S1131D50FEF758FD26B1294620468FB3FFF752FF00
S1131D603023634303F18043072D03F520432AD82E
S1131D705A68A9000F20884022EA000206FA01F1FD
S1131D800A435A608EBB2946204657B3BDE8F84043
S1131D90FFF738BF40F2FF33D4E74FF6C073D1E703
S1131DA040F6FF73CEE74FF47F43CBE74FF6FF7364
S1131DB0C8E70023C6E70F23C4E74FF44043C1E755
S1131DC0FFF762FFCCE705F18042083A9968920078
S1131DD00F20904021EA000106FA02F20A439A60B9
S1131DE0D0E7BDE8F840FFF74FBFF8BD0A44000054
S1131DF0022838B504460D4603D94C211048FEF795
S1131E0001FD6B791F2B03D951210D48FEF7FAFC14
S1131E10AB786A789B0143EA82032A781343EA7811
S1131E2043EA02132A7943EAC2236A7943EA023372
S1131E30AA79043443EA42432401024A135138BDC7
S1131E408144000000200440014B1860704700BF2B
S1131E5000008442427801790378002A827870B5C0
S1131E6014BF04260026002AC27814BF10250025BA
S1131E70002A42794FEA023242EA012242EA03028C
S1131E80837914BF20240024002BC37942EA03433E
S1131E9043EA0603027A43EA050314BF4FF4004100
S1131EA000212343002A14BF4FF4003200220B43C5
S1131EB01343014A136070BD0020044070B5064608
S1131EC00C46154622B94FF422710B48FEF79AFCD2
S1131ED01CB90A48FEF7C6FE0446013C6D00B4FB7B
S1131EE0F5F42402E30DDB0523B140F2A5210248F9
S1131EF0FEF788FC746170BDF844000040410500A1
S1131F0038B51E4B1E4D984204460ED0A8420CD044
S1131F1003F50063984208D003F58063984204D027
S1131F204FF486611748FEF76DFC40F6AA63E36040
S1131F3041F20502002323606260134AA3606361D7
S1131F40E364A26423666367A367E3670B4B9C4265
S1131F5009D0AC4207D003F500639C4203D003F5DB
S1131F6080639C4201D1002323650023AC42A36516
S1131F7002D0064A944200D1E36538BD0000014016
S1131F8000040140F8440000F9FF0100000C014086
S1131F9038B52A4B984204460D4610D003F58063A9
S1131FA098420CD003F58063984208D003F580630F
S1131FB0984204D04FF456712148FEF723FC204682
S1131FC0FFF79EFFA97B2A8A2368002942F00102B9
S1131FD014BF4FF48061002113430B432A7D236017
S1131FE02368002A14BF4FF00052002213432360D9
S1131FF0AB7C1BB1EB7C43F08003A3652B7B43F4E8
S113200080536360D5E901122046FFF757FF6B7BCD
S11320100BB11023E3606B7D1BB1236843F4803361
S11320202360AB7DEA7D1B07120503F0E04302F455
S1132030E002134323662B78E36038BD00000140BF
S1132040F844000003695A06FCD5416303699B0602
S1132050FCD5C069C0B270477FB5094B6A4603F12D
S11320601006154618685968144603C40833B34269
S11320702246F7D12846FFF7FFFC002004B070BDCC
S11320807045000013B5022300246846ADF80440EF
S113209000948DF80530FFF727FB204602B010BDF1
S11320A070B5154B86B001AA03F1100615461868E1
S11320B05968144603C40833B3422246F7D11B8837
S11320C023800E4B5A6812030DD49B68C3F3080394
S11320D00B48ADF80A30FEF725FA2846FFF766F9F3
S11320E0002006B070BD074B1B884FF6FF72934269
S11320F008BF4FF4A673EBE780450000B081E00F02
S113210000F049020001E00F07B5084B1868019080
S1132110202301A88DF80430FFF7A2F96420FEF70C
S11321208FFE002003B05DF804FB00BF9245000061
S113213010B50C480C4C6FF00402A02112F0800F73
S1132140D3B21BBF03F00F03043BA3181B1802F107
S113215001020CBF83F800131976332AEED1002054
S113216010BD00BF00ED00E000E100E0104A416155
S1132170136830B51546ABB91060836011E0091BD4
S11321809C6841611A467CB123465C698C42F6D94D
S1132190002CF4D052B19060836013B15A69511A83
S11321A0596130BD0022F0E72346F4E72860F3E7E5
S11321B09C13002010B500F065F9094B094A196811
S11321C031B114684B69041BA34203D31B1B4B613D
S11321D0106003E0C01A002310604B6110BD00BF03
S11321E09C1300208813002038B50F4B0F4D1C683A
S11321F02B685B6902201C4400F07CF9204600F047
S11322004DF90B492A6800230B70D088800702D54A
S113221001230B7038BD9268002AFBD05069034437
S1132220012BF2D9F6E700BF881300209C1300208D
S1132230901300200C4A136800217BB183420AD119
S1132240836879B18B6083681BB15A6941690A4418
S11322505A610020704719469B68EEE70028EFD0CA
S1132260022070471360EEE79C13002070B5154EF2
S1132270FFF722F934780546FCB9134B1C60134B65
S11322801C60134B1C8000F0B9F8012000F032F9F7
S113229000F06EF90F4B0246186020B92846FFF78C
S11322A011F9232070BD23460B4840F2E73101F0B9
S11322B0ABFD0A4B1860012333702846FFF702F97F
S11322C00020EFE7871300209C13002088130020D0
S11322D0921300209813002018FCFFFF8C13002099
S11322E0C2072DE9F84F04460BD53F4A1388013342
S11322F09BB21380FFF75EFF3C4B1B680BB1FFF7EB
S113230073FFA3076DD53A4F00F0BCF83D688046D3
S1132310451BFFF7D1F8002683463246B246334BBD
S11323201C6814B16369AB4217D9324B0021012EEA
S1132330197004D11AB1D288022A08BF1E70002C69
S11323404BD06369C7F800805D1B6561FFF74CFFE4
S11323505846BDE8F84FFFF7B5B8C7F800802346E4
S11323602A465969914209D8187994F804C08445D9
S113237088BF1C469B68521A002BF2D15846FFF7BF
S1132380A1F8D4F814B0C4F814A0FFF795F8814666
S11323902046FFF74FFF4846FFF794F823694BB1F7
S11323A0FFF78AF8216981462046FFF7DFFE484699
S11323B0FFF788F8E36813B121682046984700F0D6
S11323C061F8D844A5EB080581460544FFF774F885
S11323D0013683462246C846A1E7022000F098F859
S11323E0B6E7BDE8F88F00BF921300209C130020CD
S11323F088130020941300200020704710B51D4B53
S113240086B05968186803AA03C2197A53F8090FE9
S1132410117000249A8801909B791748ADF8082020
S113242001218DF80A30FEF78BFA8DF80C40FFF786
S1132430E3FF8DF8100003A8FFF70CFD01A90120AC
S11324408DF80440FFF7D4FC0C4A536A23F4FF636D
S113245023F00703536240F2FF7313620120946078
S1132460FFF7F2FC064B4FF08042C3F880211A605C
S113247006B010BD96450000A009140000200440D9
S113248000E100E0014B9868704700BF0020044061
S1132490014B586D704700BF0020044010B5134C29
S11324A00246A168FFF7F4FFA3695B0704D4431A4B
S11324B0032B01D888420DD1531A022B98BFCA1C92
S11324C00A4BB2F1FF3F38BF013A5A655A6A42F0EB
S11324D004025A62064A137833B104490B6D43F07F
S11324E002030B650023137010BD00BF00200440DD
S11324F01A1000208207054A00F00103516A48BF00
S113250043F004030B435362704700BF00200440B0
S1132510830700F0010209D5074B0121197007490F
S11325200B6D23F0030342F004020B6503494B6A6D
S113253023EA02034B6270471A1000200020044073
S113254010B5FEF7B9FF094A93690446590703F029
S1132550010003F0070348BF40F002001362FFF7D5
S1132560BFFE2046BDE81040FEF7ACBF002004408B
S113257008B50448FEF776FB0346FFF73DFF23FA50
S113258000F008BDA009140008B5FDF773FEFDF7BF
S1132590C1FEFDF7C1FEFDF7C1FEBDE80840FDF731
S11325A0BEBEFDF7B5BE000010B50446FDF7A2FFA0
S11325B04FF47A735C43B0FBF3F0064BB3FBF0F0DB
S11325C0B4FBF0F0800803D0BDE8104000F008B878
S11325D010BD00BF40420F000000000000000000DA
S11325E0013800D0FCE7704708B5054B1B6800F0C4
S11325F0B9FF012803D0BDE8084001F0CBBA08BDFB
S113260010E000E0EFF3058313B16FF005007047AD
S1132610EFF31082074B12B9EFF3118212B11A686B
S1132620022AF2D0186810B901221A6070474FF0DC
S1132630FF3070477816002010B5EFF3058313B10F
S11326406FF0050010BDEFF310820B4B12B9EFF3DE
S1132650118212B11A68022AF2D01A68012A08D12A
S1132660064A0024D47702221A6000F0EDFC2046CA
S1132670E8E74FF0FF30E5E77816002000ED00E0D2
S113268040F674110148FEF7BDB800BFA64500002E
S1132690034B0360034B0B60A0231360704700BF20
S11326A020160020A0130020034B0360034B0B6093
S11326B0A0231360704700BFFC1800207C16002084
S11326C000F108034FF0FF324360C0E902230361C5
S11326D000230360704700230361704743684B6025
S11326E09A688A609A685160996003680861013346
S11326F0036070470A68531C30B50AD103695A68ED
S11327004A6091608B60596003680861013303601B
S113271030BD00F108035C6825689542EFD8234674
S1132720F9E7D0E9011203698A6082685160596847
S1132730814208BF5A60002202611A68013A1A6095
S11327401868704710B5044601F0BCF9A46B01F099
S1132750D9F9B4FA84F0400910BD70B51546026C7D
S1132760866B044642B905689DB9806800F00AFF8B
S1132770A5600136A66370BD6DB9406801F0FCFC2C
S11327806368226C1344A2686360934201D3236894
S113279063600020EDE7C06801F0EEFC236CE268A2
S11327A021685B421A448A42E2603EBFA2689B18D9
S11327B0E360022DEDD10EB1013EEAE73046D8E7E1
S11327C0034610B41A6C084662B1D9689C68114477
S11327D0A142D96024BF1968D960D9685DF8044B57
S11327E001F0CABC5DF8044B704770B5044601F0B3
S11327F069F994F8455004F124066DB2002D14DCF7
S1132800FF2384F8453001F07DF901F05BF994F879
S1132810445004F110066DB2002D12DCFF2384F83D
S11328204430BDE8704001F06DB9636A002BE7D015
S1132830304600F011FE08B100F08EFE013D6DB28D
S1132840DCE72369002BE9D0304600F005FE08B12F
S113285000F082FE013D6DB2DEE7000038B50D46A2
S1132860044620B94FF48D711948FDF7CBFF01F0F0
S113287029F9D4E90F31226862604B43D0185B1AFE
S11328801344A060E3600020FF23A06384F8443075
S113289084F8453095B9236963B104F1100000F060
S11328A0DBFD38B10B4B4FF080521A60BFF34F8FF2
S11328B0BFF36F8F01F026F9012038BD04F1100039
S11328C0FFF7FEFE04F12400FFF7FAFEF2E700BF73
S11328D03346000004ED00E0F7B50D4616461C46ED
S11328E0074620B940F255111948FDF78BFF24B96A
S11328F040F259111648FDF785FF26B325B940F279
S11329005D111348FDF77EFF50230193019B502B6B
S113291004D04FF4B3710E48FDF774FF019B7CB1F2
S11329200121002D08BF264684F846102660C4E91C
S11329300F752046FFF792FF9DF8203084F84C3045
S1132940204603B0F0BD002DDED04FF4AF71D8E7C0
S1132950334600002DE9FF47884601921E4604468F
S113296020B940F219314B48FDF74CFFB8F1000F84
S113297006D1236C23B140F21A314648FDF742FFD9
S1132980022E07D1E36B012B04D040F21B314148E6
S1132990FDF738FF00F0E6FD30B9019B23B140F2AA
S11329A01E313C48FDF72EFF0027DFF8ECA0B946A6
S11329B001F088F8A26BE36B9A4201D3022E19D17D
S11329C0324641462046FFF7C8FE636A1BB104F154
S11329D0240000F041FD38B12F4B4FF080521A60B3
S11329E0BFF34F8FBFF36F8F01F08CF8012004B059
S11329F0BDE8F087019D1DB901F084F80020F6E7D9
S1132A0017B902A800F066FD01F07CF800F062FB43
S1132A1001F058F894F84430FF2B08BF84F8449030
S1132A2094F84530FF2B08BF84F8459001F06AF80C
S1132A3001A902A800F05AFD28BB01F043F8A26BDB
S1132A40E36B9A420ED101F05DF8019904F1100094
S1132A5000F0CAFC2046FFF7C8FE00F0D9FB48B1DD
S1132A600127A5E701F04EF82046FFF7BEFE00F06F
S1132A70CFFBF5E74FF08053CAF80030BFF34F8F18
S1132A80BFF36F8FECE72046FFF7AFFE00F0C0FB0B
S1132A90B4E700BF3346000004ED00E02DE9F8433D
S1132AA0894690461F46044620B940F2ED312B4832
S1132AB0FDF7A8FEB9F1000F06D1236C23B140F253
S1132AC0EE312648FDF79EFE022F07D1E36B012B62
S1132AD004D040F2EF312148FDF794FE01F006F9ED
S1132AE0EFF311864FF0600383F31188BFF36F8F08
S1132AF0BFF34F8FA26BE36B9A4201D3022F2AD10B
S1132B0094F84550A36B6DB23A4649462046FFF708
S1132B1024FE6B1C13D1636A0BB901200BE004F192
S1132B20240000F099FC0028F7D0B8F1000FF4D08D
S1132B300120C8F8000086F31188BDE8F8837F2DD2
S1132B4004D14FF48F610548FDF75CFE01356DB289
S1132B5084F84550E1E70020EDE700BF334600006C
S1132B602DE9F04385B00F460192044620B940F2A6
S1132B703C514248FDF746FE37B9236C23B14FF46C
S1132B80A8613E48FDF73EFE00F0ECFC30B9019B25
S1132B9023B140F245513948FDF734FE0026DFF8F1
S1132BA0E090B04600F08EFFA56BD5B139462046C3
S1132BB0013DFFF705FEA563236963B104F110002D
S1132BC000F04AFC38B12E4B4FF080521A60BFF32C
S1132BD04F8FBFF36F8F00F095FF012005B0BDE864
S1132BE0F083019D1DB900F08DFF0020F6E716B9B2
S1132BF002A800F06FFC00F085FF00F06BFA00F013
S1132C0061FF94F84430FF2B08BF84F8448094F8A3
S1132C104530FF2B08BF84F8458000F073FF01A9FD
S1132C2002A800F063FCF0B92046FFF78BFDA0B1C9
S1132C30019904F1240000F0D7FB2046FFF7D5FDED
S1132C4000F0E6FA38B94FF08053C9F80030BFF30A
S1132C504F8FBFF36F8F0126A4E72046FFF7C5FD12
S1132C6000F0D6FAF7E72046FFF7BFFD00F0D0FAF0
S1132C702046FFF767FD0028EDD0B6E73346000095
S1132C8004ED00E030B5074A002352F8335002EB5C
S1132C90C3041DB942F83310606030BD01330A2B00
S1132CA0F3D1FAE79C1F002070B504460D46164682
S1132CB000F008FF94F84430FF2B04BF002384F88D
S1132CC0443094F84530FF2B04BF002384F845308A
S1132CD000F018FFA36B2BB93246294604F12400F7
S1132CE000F09CFB2046BDE87040FFF77EBD00006D
S1132CF02DE9F041044600F0E5FE2F4B2F4D1A68F4
S1132D002F4F01321A602E68002E49D12C601B68A7
S1132D10012B1FD14FF0140808FB06700136FFF792
S1132D20CFFC382EF8D1DFF8C480264E4046FFF79A
S1132D30C7FC3046FFF7C4FC2348FFF7C1FC234817
S1132D40FFF7BEFC2248FFF7BBFC224BC3F8008010
S1132D50214B1E60214A136801331360204A236407
S1132D601168E36A14208B4200FB037004F1040130
S1132D7088BF1360FFF7B2FC00F0C4FE194B1B6858
S1132D8063B12B68DA6AE36A9A4207D2164B4FF0B2
S1132D9080521A60BFF34F8FBFF36F8FBDE8F0818D
S1132DA0104B1B68002BD5D12B68DA6AE36A9A4270
S1132DB098BF2C60CEE700BFC01D0020541900202E
S1132DC060190020E81D0020081E0020341E002089
S1132DD0201E0020581900205C190020CC1D002062
S1132DE0D01D00201C1E002004ED00E0D41D002096
S1132DF0064A13681968064B19B94FF0FF321A6076
S1132E0070471268D2681268F9E700BF58190020A9
S1132E10FC1D00202DE9F047DDE909644FEA820931
S1132E204A4607460D46206BA521984601F0AFF9A6
S1132E30236BA9F10409994429F00709002D3AD01C
S1132E406B1E04F13402093513F8011F02F8011B4B
S1132E50197809B1AB42F7D1002384F83D30089DBD
S1132E60372D28BF37254FF0000AE562A564201DE1
S1132E70C4F84CA0FFF72FFCC5F1380504F1180085
S1132E80FFF729FC042251462461A561646204F120
S1132E90500001F07CF90122514604F1540001F084
S1132EA076F942463946484600F0DEFD206006B118
S1132EB03460BDE8F08784F83450D0E710B590F85A
S1132EC0553004463BB9006B00F05EFF2046BDE878
S1132ED0104000F059BF012BF9D0022B06D040F668
S1132EE097710348BDE81040FDF78CBC10BD00BFCE
S1132EF0B646000080B5DFF85C80124F124C134DCB
S1132F00236863B9124B1B68012BF8D94FF0805327
S1132F10C8F80030BFF34F8FBFF36F8FEEE700F0B8
S1132F20D1FDFB68DE68301DFFF7FBFB2B68013B1E
S1132F302B602368013B236000F0E4FD3046FFF77B
S1132F40BDFFDDE7341E0020C41D0020C01D00208D
S1132F506019002004ED00E0F8B5164B164E1C680D
S1132F600546306804300F46FFF7DBFB6B1C334625
S1132F7007D137B1316811480431BDE8F840FFF793
S1132F80ADBB1A686419546007D30D4A10681968F8
S1132F90BDE8F8400431FFF7ADBB0A4A1068196870
S1132FA00431FFF7A7FB084B1A68A24288BF1C60D4
S1132FB0F8BD00BF481E002054190020201E002028
S1132FC05C19002058190020FC1D00202DE9F04355
S1132FD087B0DDE90F4506460F469046994624B969
S1132FE040F255211748FDF70DFC25B940F2562152
S1132FF01448FDF707FC58230493049B582B04D072
S113300040F25E210F48FDF7FDFB049BB5B1BCB156
S1133010022385F8553005AB2C6301930E9B009376
S113302042464B46394630460295FFF7F3FE2846A2
S1133030FFF75EFE059807B0BDE8F0832846FAE77F
S11330402046F8E7B646000010B588B0002407AA69
S113305006A905A8CDE90544FFF71AFB059B0293D1
S1133060069B079A14491548CDE900432346FFF708
S1133070ADFFA8B100F016FB012815D14FF0600395
S113308083F31188BFF36F8FBFF34F8F0C4B4FF057
S1133090FF321A600B4B18600B4B1C6000F0AAFD4A
S11330A00A4B1B6808B010BD0130F9D140F643014A
S11330B00748FDF7A7FBF3E739470000F52E0000AA
S11330C0FC1D00201C1E0020481E00201C10002097
S11330D0B6460000024A136801331360704700BF0C
S11330E0C81D0020014B1868704700BF481E00200F
S11330F02DE9F84F3A4B1B68002B69D1394B1C68FA
S113310001341C609CB9384D2B681B6823B140F610
S1133110C9213648FDF776FB354B2A6819682960C2
S11331201A60344A136801331360FFF761FE324DAD
S1133130324F2B689C424FF0000B12D23A68304B4E
S1133140D16A14224A439A58022A2E4A126828BF86
S11331504FF0010B002A18BF4FF0010B5846BDE891
S1133160F88FDFF88490DFF8A4A0D9F80020126863
S11331701AB94FF0FF322A60E0E7D9F80020D2688C
S1133180D66871688C4201D22960D7E706F1040839
S11331904046FFF7C6FAB16A19B106F11800FFF705
S11331A0C0FAF06ADAF80010154B88424FF01402A6
S11331B088BFCAF80000414602FB0030FFF78EFAD0
S11331C03868F16AC26A914228BF4FF0010BCCE71C
S11331D00D4A1368013313604FF0000BBEE700BFC4
S11331E0C81D0020481E002058190020B6460000C3
S11331F05C190020001E0020FC1D00205419002032
S1133200601900204C1E0020041E0020D01D002048
S11332102DE9F0412D4C236823B940F6B6012C4822
S1133220FDF7F0FA00F04EFC2368013B23602468AC
S11332302CB1002400F066FC2046BDE8F081254B4B
S11332401B68002BF5D0244D244EDFF8A4801DE02C
S1133250EB68DC68271D04F11800FFF762FA3846B2
S1133260FFF75FFAE36A32681420934200FB03809D
S1133270394688BF3360FFF731FA194BE26A1B689D
S1133280DB6A9A4202D3174B01221A602B68002B87
S1133290DED10CB1FFF7ACFD134D2C6844B1114ED7
S11332A00127FFF725FF00B13760013CF9D12C60FD
S11332B00C4B1B68002BBCD00C4B4FF080521A6097
S11332C0BFF34F8FBFF36F8F0124B3E7C81D0020F6
S11332D0B6460000C01D0020081E0020D01D00209E
S11332E0541900204C1E0020041E002004ED00E0B0
S11332F06019002010B5044640B90E4B4FF08052BF
S11333001A60BFF34F8FBFF36F8F10BD0A4B1B685A
S113331023B140F24C510948FDF774FAFFF7DAFE85
S113332000212046FFF718FEFFF772FF0028E4D0C3
S1133330EBE700BF04ED00E0C81D0020B646000026
S11333402DE9F843224B1A68224B1AB101221A6064
S1133350BDE8F883204D1A602B681B6B1A68B2F124
S1133360A53F0BD15A68B2F1A53F07D19A68B2F1D3
S1133370A53F03D1DB68B3F1A53F04D028682968D1
S11333803431FFF77DF9154F154E3C68DFF8549042
S1133390B04614236343F218F15881B151680833DD
S11333A0496851603344994204BF4B685360142305
S11333B003FB04835B68DB682B603C60C8E724B9CB
S11333C040F604414846FDF71DFA013CE1E700BF21
S11333D0C81D00204C1E002054190020D01D0020C0
S11333E060190020B646000038B50D46044620B9E1
S11333F040F61E410748FDF705FA074B19682046B9
S11334001831FFF777F928460121BDE83840FFF766
S1133410A3BD00BFB64600005419002070B50E4687
S11334201446054620B940F64D410948FDF7EAF92E
S1133430084B196828461831FFF750F9002C21462B
S11334400CBF30464FF0FF30BDE87040FFF784BD3D
S1133450B64600005419002038B5C368DC6824B9A6
S113346040F67D411448FDF7CDF904F118052846CE
S1133470FFF757F9114B1B68DBB9251D2846FFF7E9
S113348050F90F4AE36A11688B4288BF13600D4AF2
S11334901420294600FB0320FFF720F90A4BE26AB7
S11334A01B68DB6A9A4283BF084B01201860002026
S11334B038BD29460648EFE7B6460000C81D00207F
S11334C0D01D002060190020541900204C1E00203B
S11334D0081E0020034B1B680360034B1B684360FA
S11334E0704700BF001E0020481E002070B50D4626
S11334F0044620B940F6F8411448FDF783F925B98C
S113350040F6F9411148FDF77DF900F0DBFA104B64
S11335101A682B68591C16D00E4826680068616822
S1133520864208D0914206D800232B60012400F083
S1133530E9FA204670BD521A9342F5D99B1A2B60C2
S11335402046FFF7C7FF0024F1E700BFB64600009E
S1133550481E0020001E0020014B01221A60704703
S11335604C1E0020054B1B6833B1054B1B68002B18
S11335700CBF022000207047012070471C1E002051
S1133580C81D002038B5044608B9002038BD184BC2
S11335901B68834204D041F24A011648FDF732F910
S11335A0E36C23B941F24B011248FDF72BF9E36CAC
S11335B0E16AA26C013B9142E364E6D0002BE4D1C2
S11335C0251D2846FFF7ADF8A36CE362C3F138026A
S11335D0A261094A11688B4288BF1360074A14200C
S11335E000FB03202946FFF779F80120CEE700BF4E
S11335F054190020B6460000D01D00206019002098
S1133600F7B5114C00F05EFA2568BDB90F4F104EA6
S11336103846FFF755F83046FFF752F80D4B0E4A7F
S11336201F600E4B10211E600A2000950C4BFFF703
S113363053F9206010B10B49FFF724FB03B0BDE838
S1133640F04000F05FBA00BF741F0020F81E002095
S11336500C1F0020501E0020581E0020541E002065
S1133660241F00203E470000914208B541600061DC
S11336700AD8D21A83699A420DD2084B011D1868E0
S1133680FFF738F8002008BD9A4201D2994202D2CD
S1133690011D034BF3E70120F5E700BF541E002092
S11336A0501E002010B588B0FFF7AAFF114B1B680D
S11336B0CBB1002407AA06A905A8CDE90544FEF765
S11336C0F3FF059B0293069B019328230093079A1B
S11336D009490A482346FFF779FC094B186010B1E1
S11336E0012008B010BD07484FF48D71FDF78AF82A
S11336F00020F6E7741F002043470000E537000070
S1133700781F00204B4700002DE9FF410D469046ED
S11337101F46064620B940F28F111048FDF772F893
S11337200F4C206880B1052DCDE9005802960EDCBF
S1133730FFF718FF0023022808BF0A9A206818BF61
S11337401A466946FFF706F904B0BDE8F081002384
S11337503A466946FFF7A2F9F6E700BF4B47000077
S1133760741F00202DE9F7431B4DDFF874800027F8
S11337702B681A6832B9194A11682960136003B0BA
S1133780BDE8F083DB68DC681E6804F10409484680
S1133790FEF7C7FF236A2046984794F828305B0752
S11337A0E6D5A36933449E4206D263602461494648
S11337B02868FEF79FFFDBE700230097324619468F
S11337C02046FFF7A1FF0028D2D140F2B63140468F
S11337D0FDF718F8CCE700BF501E0020541E00204F
S11337E04B4700002DE9F04FDFF8F0A17A4E87B087
S11337F07A4B1B681D6855B3DB681D680024DFF82D
S1133800E8B1DFF8E881FFF765FCFFF76BFCDBF854
S1133810003098420746D9461BD3CBF8000004B3C6
S11338206F4B1B681A68B2FA82F25209E91BD8F886
S11338300000FFF739FAFFF7EBFC80B9694B4FF052
S113384080521A60BFF34F8FBFF36F8F07E00124DC
S1133850D5E7FFF787FFCBF80070FFF7D9FC002509
S113386056E085422ED8FFF7D3FCDAF80030DB6847
S1133870D3F80CB00BF10400FEF753FF9BF828308B
S113388058071AD5DBF818102B463A4629445846EF
S1133890FFF7EAFE60B1009423462A4621465846C3
S11338A0FFF732FF20B940F221213046FCF7AAFF8E
S11338B0DBF8203058469847D1E723F001038BF812
S11338C02830F5E72246B1E794F82830A16943F09F
S11338D0010384F82830039B5A4619442046FFF715
S11338E0C3FEA8B1236A2046984794F828305907A4
S11338F00ED5A2690399009500230A44204619466F
S1133900FFF702FF20B940F243313046FCF77AFF5B
S1133910002202A9D8F80000FFF722F900283FF49A
S113392067AF029B002B03DADDE90401039B984790
S1133930029B002BECDB049C636913B1201DFEF792
S1133940F0FEFFF7CFFBD9F800309842834601D24E
S1133950FFF708FF029BC9F800B0092BD8D801A2D1
S113396052F823F0C9380000C9380000C9380000F3
S11339708D3900009B390000C7390000C9380000A8
S1133980C93800008D3900009B39000094F82830B4
S113399023F0010384F82830BAE794F8283043F080
S11339A0010384F82830039BA36123B94FF45771B2
S11339B03046FCF727FFA1695B465A465944204626
S11339C0FFF752FEA4E794F828309A07E0D4204683
S11339D000F0DAF99CE700BF4B470000501E0020BE
S11339E0541E002004ED00E0201F0020741F00205E
S11339F008480068006880F308884FF0000080F3EE
S1133A00148862B661B6BFF34F8FBFF36F8F00DFC8
S1133A1000BF000008ED00E0DFF80C00016841F48D
S1133A20700101607047000088ED00E007B50023D5
S1133A3001930B4B1B68013303D0F2210948FCF7B7
S1133A40E1FE4FF0600383F31188BFF36F8FBFF380
S1133A504F8F019B002BFCD003B05DF804FB00BF2B
S1133A6020100020CF4700004FF0807340F8043C42
S1133A70074B40F80C3C21F001016FF0020340F8C1
S1133A80081C40F8202C40F8243C4438704700BF00
S1133A902D3A0000000000000000000000000000BB
S1133AA0074B19680868B0E8F04F80F30988BFF342
S1133AB06F8F4FF0000080F311887047AFF30080E0
S1133AC0541900204FF0600383F31188BFF36F8F04
S1133AD0BFF34F8F084A13680133012B136009D1D8
S1133AE0064B1B6813F0FF0F04D040F2B1110448D9
S1133AF0FCF788BE704700BF2010002004ED00E0F2
S1133B00CF47000010B5074C236823B94FF4DC718C
S1133B100548FCF777FE2368013B23600BB983F368
S1133B20118810BD20100020CF47000000000000C5
S1133B30EFF30980BFF36F8F154B1A681EF0100F57
S1133B4008BF20ED108A20E9F04F10602DE909002C
S1133B504FF0600080F31188BFF34F8FBFF36F8F76
S1133B60FFF7EEFB4FF0000080F3118809BC1968E1
S1133B700868B0E8F04F1EF0100F08BFB0EC108AD0
S1133B8080F30988BFF36F8F704700BFAFF30080E5
S1133B905419002008B54FF0600383F31188BFF374
S1133BA06F8FBFF34F8FFFF7A3FA18B1034B4FF09A
S1133BB080521A60002383F3118808BD04ED00E0ED
S1133BC0084A0949002313600B60084B4FF47A71CB
S1133BD01B68B3FBF1F30649013B0B600723136039
S1133BE0704700BF10E000E018E000E0041000207F
S1133BF014E000E013B5334C334A2168914204D1F8
S1133C0040F239113148FCF7FDFD2268304B9A42ED
S1133C1004D14FF49D712D48FCF7F4FD2D4B2E4C2F
S1133C201A78D2B20192FF221A701B782B4ADBB2A7
S1133C308DF803309DF8033003F0600313700723FD
S1133C40236000229DF80310090603F1FF3030D4ED
S1133C5002B123602368042B04D040F263111B4893
S1133C60FCF7D0FD23681B4A1B0203F4E0632360C6
S1133C70019BDBB213701A4B1A6842F47F021A607C
S1133C801A6842F07F421A60FFF79AFF154B00242E
S1133C901C60FFF7C1FE144A136843F040431360ED
S1133CA0FFF7A6FEFFF74CFBFFF7C0FE204602B06D
S1133CB010BD9DF803305B00DBB28DF803300122A8
S1133CC00346BFE700ED00E071C20F41CF4700009B
S1133CD070C20F4100E400E0801F00207C1F002020
S1133CE020ED00E02010002034EF00E008B5EFF3F1
S1133CF005830F2B0AD90D4A9B5C0D4A12789A4210
S1133D0004D940F209310B48FCF77CFD0A4B0B4AFD
S1133D101B68126803F4E063934206D940F2193138
S1133D200448BDE80840FCF76DBD08BDF0E300E0C1
S1133D307C1F0020CF4700000CED00E0801F002016
S1133D4010B50F4B1A68824218D35C68191988425F
S1133D5001BF4168184609195960446801198A422B
S1133D6007D1084909688A421FBF516812680919B6
S1133D7041609842026018BF186010BD1346E1E725
S1133D80941F0020841F002038B5044690B31A4DB8
S1133D9050F8041C2A68114204D140F22F1117482C
S1133DA0FCF730FD54F8083C23B14FF498711348E4
S1133DB0FCF728FD54F8043C2A6813421AD054F83E
S1133DC0081CB9B923EA020344F8043CFFF782F95A
S1133DD00B4A54F8043C1168A4F108000B44136026
S1133DE0FFF7AEFF074A136801331360BDE838409C
S1133DF0FFF70EBA38BD00BF881F002067480000D7
S1133E008C1F0020901F002053B94AB9002908BF15
S1133E1000281CBF4FF0FF314FF0FF3000F072B9A3
S1133E20ADF1080C6DE904CE00F006F8DDF804E00D
S1133E30DDE9022304B070472DE9F047089E0446EB
S1133E408846002B4BD18A42154667D9B2FA82F2D2
S1133E504AB1C2F1200701FA02F320FA07F79540AC
S1133E6047EA030894404FEA154E230CB8FBFEF7CB
S1133E701FFA85FC0EFB178843EA084307FB0CF185
S1133E80994209D9EB1807F1FF3080F01B81994260
S1133E9040F21881023F2B445B1AA4B2B3FBFEF03C
S1133EA00EFB103344EA034400FB0CFCA44509D97F
S1133EB02C1900F1FF3380F00781A44540F20481FE
S1133EC002382C4440EA0740A4EB0C0400271EB13E
S1133ED0D4400023C6E900433946BDE8F0878B424D
S1133EE009D9002E00F0EB800027C6E9000138460E
S1133EF03946BDE8F087B3FA83F7002F47D18B42E8
S1133F0002D3824200F2FA80841A61EB0303012097
S1133F109846002EE0D0C6E90048DDE702B9FFDE8E
S1133F20B2FA82F2002A40F08F80491B4FEA154E04
S1133F301FFA85F80127B1FBFEFC230C0EFB1C11B4
S1133F4043EA014308FB0CF1994207D9EB180CF141
S1133F50FF3002D2994200F2CD808446591AA3B2AE
S1133F60B1FBFEF00EFB101443EA044408FB00F816
S1133F70A04507D92C1900F1FF3302D2A04500F265
S1133F80B6801846A4EB080440EA0C409FE7C7F14A
S1133F90200CBB4022FA0CFE4EEA030E01FA07F491
S1133FA020FA0CF521FA0CF34FEA1E482543B3FB23
S1133FB0F8F92C0C08FB19331FFA8EFA44EA034370
S1133FC009FB0AF49C4202FA07F200FA07F10BD942
S1133FD01EEB030309F1FF3080F087809C4240F21E
S1133FE08480A9F1020973441B1BADB2B3FBF8F042
S1133FF008FB103345EA034400FB0AFAA24508D93A
S11340001EEB040400F1FF336BD2A24569D90238D8
S1134010744440EA0940A0FB0289A4EB0A044C451D
S1134020C2464B4654D351D0002E69D0B1EB0A0599
S113403064EB030404FA0CFCFD40FC404CEA050567
S1134040C6E90054002747E7C2F1200320FA03F72A
S1134050954001FA02F021FA03F34FEA154E384372
S1134060010CB3FBFEF71FFA85F80EFB173341EA88
S1134070034107FB08F38B4204FA02F407D96918D9
S113408007F1FF3C2FD28B422DD9023F2944CB1A92
S113409081B2B3FBFEF00EFB103341EA034100FB97
S11340A008F38B4207D9691800F1FF3C17D28B4201
S11340B015D902382944C91A40EA07473BE737466D
S11340C0304609E70746E7E61846FBE64145ABD22A
S11340D0B8EB020A69EB0E0201381346A4E7604606
S11340E0E9E7184695E76746D1E781467CE7023859
S11340F02C4447E7ACF1020C2B442FE7384608E781
S11341003746E9E6704700BF08B5074B044613B1CC
S11341100021AFF30080054B1868836A03B1984708
S1134120204600F03DF800BF00000000FC480000FD
S113413070B50D4E0D4CA41BA4100025A54209D149
S11341400B4E0C4C00F02EF8A41BA4100025A54225
S113415005D170BD56F8253098470135EEE756F87D
S1134160253098470135F2E78410002084100020A0
S1134170841000208810002010B5431E0A44914288
S113418000D110BD11F8014B03F8014FF7E70244C9
S11341900346934200D1704703F8011BF9E700007E
S11341A0FEE700BFF8B500BFF8BC08BC9E467047E8
S11341B0F8B500BFF8BC08BC9E467047626C696ED7
S11341C06B207461736B002E2E2F626C696E6B2EE4
S11341D063000000001000208D060000C1060000EE
S11341E0D3060000E50600006D070000050000008E
S11341F00000000040420F00050100000000000024
S1134200000000002F686F6D652F6D6168656E6436
S113421072612F53696D706C696369747953747535
S113422064696F2D352F53696D706C696369747996
S113423053747564696F5F76352F646576656C6F4A
S11342407065722F73646B732F6765636B6F5F7335
S1134250646B5F73756974652F76332E322F2F70FC
S11342606C6174666F726D2F656D6C69622F696E17
S1134270632F656D5F6770696F2E68002F686F6DBF
S1134280652F6D6168656E6472612F53696D706C22
S1134290696369747953747564696F2D352F536933
S11342A06D706C696369747953747564696F5F7652
S11342B0352F646576656C6F7065722F73646B73EC
S11342C02F6765636B6F5F73646B5F737569746588
S11342D02F76332E322F2F706C6174666F726D2FB0
S11342E0656D6C69622F696E632F656D5F636F6DB9
S11342F06D6F6E2E68002F686F6D652F6D61686538
S11343006E6472612F53696D706C6963697479535B
S1134310747564696F2D352F53696D706C696369A9
S1134320747953747564696F5F76352F6465766547
S11343306C6F7065722F73646B732F6765636B6F3B
S11343405F73646B5F73756974652F76332E322FD8
S1134350706C6174666F726D2F656D6C69622F731A
S113436072632F656D5F636D752E630040787D0108
S113437000000000005A620200010000C0CF6A0081
S113438002000000809FD50002010000002D3101D1
S1134390020200002F686F6D652F6D6168656E64A1
S11343A072612F53696D706C6963697479537475A4
S11343B064696F2D352F53696D706C696369747905
S11343C053747564696F5F76352F646576656C6FB9
S11343D07065722F73646B732F6765636B6F5F73A4
S11343E0646B5F73756974652F76332E322F706C2E
S11343F06174666F726D2F656D6C69622F73726381
S11344002F656D5F656D752E63002F686F6D652F69
S11344106D6168656E6472612F53696D706C696358
S113442069747953747564696F2D352F53696D7090
S11344306C696369747953747564696F5F76352F39
S1134440646576656C6F7065722F73646B732F6728
S113445065636B6F5F73646B5F73756974652F76E7
S1134460332E322F706C6174666F726D2F656D6CB4
S113447069622F7372632F656D5F6770696F2E6356
S1134480002F686F6D652F6D6168656E6472612FB2
S113449053696D706C696369747953747564696F79
S11344A02D352F53696D706C696369747953747514
S11344B064696F5F76352F646576656C6F706572BD
S11344C02F73646B732F6765636B6F5F73646B5FCC
S11344D073756974652F76332E322F706C61746630
S11344E06F726D2F656D6C69622F7372632F656DCA
S11344F05F727463632E63002F686F6D652F6D6147
S113450068656E6472612F53696D706C6963697458
S11345107953747564696F2D352F53696D706C69A7
S11345206369747953747564696F5F76352F646554
S113453076656C6F7065722F73646B732F67656338
S11345406B6F5F73646B5F73756974652F76332E5D
S1134550322F706C6174666F726D2F656D6C696259
S11345602F7372632F656D5F75736172742E6300B0
S1134570000108070F000A00C8002000A000010085
S113458000000000A00068010A200706020A0407D0
S11345900000000207000100000005000000000206
S11345A00000030000002F686F6D652F6D61686562
S11345B06E6472612F53696D706C696369747953A9
S11345C0747564696F2D352F53696D706C696369F7
S11345D0747953747564696F5F76352F6465766595
S11345E06C6F7065722F73646B732F6765636B6F89
S11345F05F73646B5F73756974652F76332E322F26
S11346007574696C2F74686972645F70617274790F
S11346102F6672656572746F732F636D7369732F80
S1134620536F757263652F636D7369735F6F733254
S11346302E63002F686F6D652F6D6168656E6472FF
S1134640612F53696D706C6963697479537475640F
S1134650696F2D352F53696D706C69636974795373
S1134660747564696F5F76352F646576656C6F70F9
S113467065722F73646B732F6765636B6F5F73640D
S11346806B5F73756974652F76332E322F75746979
S11346906C2F74686972645F70617274792F6672CA
S11346A0656572746F732F6B65726E656C2F7175AF
S11346B06575652E63002F686F6D652F6D61686584
S11346C06E6472612F53696D706C69636974795398
S11346D0747564696F2D352F53696D706C696369E6
S11346E0747953747564696F5F76352F6465766584
S11346F06C6F7065722F73646B732F6765636B6F78
S11347005F73646B5F73756974652F76332E322F14
S11347107574696C2F74686972645F7061727479FE
S11347202F6672656572746F732F6B65726E656C3C
S11347302F7461736B732E630049444C4500546DB0
S1134740725100546D7220537663002F686F6D654B
S11347502F6D6168656E6472612F53696D706C6949
S11347606369747953747564696F2D352F53696D5A
S1134770706C696369747953747564696F5F7635B5
S11347802F646576656C6F7065722F73646B732F1D
S11347906765636B6F5F73646B5F73756974652FB3
S11347A076332E322F7574696C2F74686972645F66
S11347B070617274792F6672656572746F732F6B92
S11347C065726E656C2F74696D6572732E63002F4C
S11347D0686F6D652F6D6168656E6472612F5369D2
S11347E06D706C696369747953747564696F2D3580
S11347F02F53696D706C6963697479537475646956
S11348006F5F76352F646576656C6F7065722F7394
S1134810646B732F6765636B6F5F73646B5F737532
S11348206974652F76332E322F7574696C2F746812
S11348306972645F70617274792F667265657274EF
S11348406F732F6B65726E656C2F706F727461621B
S11348506C652F4743432F41524D5F434D34462FE0
S1134860706F72742E63002F686F6D652F6D6168B1
S1134870656E6472612F53696D706C6963697479D4
S113488053747564696F2D352F53696D706C69634A
S113489069747953747564696F5F76352F646576CE
S11348A0656C6F7065722F73646B732F6765636BD0
S11348B06F5F73646B5F73756974652F76332E3223
S11348C02F7574696C2F74686972645F7061727497
S11348D0792F6672656572746F732F6B65726E657E
S11348E06C2F706F727461626C652F4D656D4D61D4
S11348F06E672F686561705F342E6300241000209A
S10B49004CB8FF7F0100000028
S113490803080100C0EA210100F04902C0EA2101BC
S113491800800000C0EA2101FFFF01003700000009
S1134928AAAAAAAA000000000000000000000000D3
S1134938000000000000000000000000000000006B
S1134948000000000000000000000000000000005B
S1134958000000000000000000000000000000004B
S1134968000000000000000000000000000000003B
S1134978000000000000000000000000000000002B
S10F498800000000310100000D010000DF
S903046D8B
