S0200000736F635F7468756E646572626F6172645F62726434313636612E73333765
S21400000000000120A5330000A1330000A13300004A
S214000010B9100000A1330000A1330000A133000096
S214000020A1330000A1330000A1330000A13300007B
S214000030A1330000A1330000A1330000A13300006B
S214000040A1330000C5640000A1330000A133000006
S214000050955D000009650000D1640000D5640000CD
S214000060C9640000A1330000A1330000A1330000E2
S214000070A1330000A1330000A1330000A13300002B
S214000080A1330000A1330000A1330000A13300001B
S214000090A1330000A1330000A1330000A13300000B
S2140000A0A1330000A1330000A1330000A1330000FB
S2140000B00D650000CD640000A13300004965000016
S2140000C0A1330000FD4D0000A1330000A133000065
S2140000D0A1330000A1330000A1330000A1330000CB
S2140000E0A1330000A1330000A1330000A1330000BB
S2140000F0A1330000A1330000A1330000A1330000AB
S214000100A1330000A1330000A133000010B5054C58
S214000110237833B9044B13B10448AFF300800123AE
S214000120237010BDC000002000000000F4B10000E5
S21400013008B5034B1BB103490348AFF3008008BD65
S21400014000000000C4000020F4B10000A3F5803ACF
S214000150704700BF174B002B08BF134B9D46FFF799
S214000160F5FF00218B460F461348144A121A08F072
S2140001703BFF0E4B002B00D098470D4B002B00D0BA
S21400018098470020002104000D000D48002802D0EA
S2140001900C48AFF3008008F0F5FE2000290002F0BE
S2140001A0FBF908F0DBFE00BF0000080000000000BE
S2140001B00000000000000120C00000207018002091
S2140001C00000000000000000BFF34F8F0549064BFB
S2140001D0CA6802F4E0621343CB60BFF34F8F00BFE0
S2140001E0FDE700BF00ED00E00400FA0510B502468A
S2140001F000B3114B1968888890421BD398889042A8
S21400020081BF0968996001209880998898680024C1
S21400021028B904B198604FF6FF729A8009E08A42C6
S21400022004D00131006889B20124F1E70CB19A804C
S214000230986010BD0020FCE7E4060020114A916A91
S21400024001F1704303F5F813B3F5006F0CD2D2F842
S2140002502838A3F17E62A2F58432B2F5104F03D29D
S2140002600968094A914203D00023037083607047EF
S2140002701968064A9142F7D1012202709A684260D4
S2140002809B69F3E70000E10FAD1007B007B0CD5E45
S21400029010B50C4630B90448FFF7D0FF04300423ED
S2140002A02060A380002010BD9C010020064BD3F8E0
S2140002B02828A2F17E63A3F58433B3F5104F01D24C
S2140002C0536A1847002070470000E10F0D4B10B42A
S2140002D0D3F82848A4F17E63A3F58433B3F5104F12
S2140002E00BD2246BA4F17E63A3F58433B3F5104FD1
S2140002F003D2A36B5DF8044B184740F201105DF87B
S214000300044B70470000E10F0B4BD3F82828A2F1EE
S2140003107E63A3F58433B3F5104F09D2126BA2F1B6
S2140003207E63A3F58433B3F5104F01D2D36B184721
S21400033040F20110704700BF0000E10F024BD3F8F7
S214000340F80080B2800270470081E00F7FB50F4A48
S21400035003466D4602F11006106851682C4603C429
S2140003600832B2422546F7D15A1E0DF10F010F335F
S21400037011F8010912F8014F844204D19A42F7D1CC
S214000380012004B070BD0020FBE700BF8091000094
S21400039070B5154E306810BB144B154CE41A154B4F
S2140003A01C4424F4FF6424F00704FFF7C7FF8442CC
S2140003B014D2656BA5B1FFF7C1FF854210D2FFF7D7
S2140003C0BDFF05F1400383420AD82846FFF7BEFF6B
S2140003D030B1EB6933F0080302D03460306870BD8A
S2140003E004F50064E1E700BF400100201000002093
S2140003F0BC0000203FBA0000094B40F201121A6010
S2140004004FF0FF329A6001225A600144814202D1C5
S214000410D869C043704710F8012B9A61F6E700BF11
S21400042000C00140034B044A9979117500221A60F6
S214000430704700BF880D00207C06002030B50022E3
S2140004408BB01346D91003F00704415C2141CC075A
S21400045041BF0AA98918013201F8283C0133252B2F
S214000460F0D10E4C0023D91003F00705415C29415A
S214000470C9075FBF0AADB3FBF2F102FB11314919A0
S21400048048BFD9B203F1010358BF11F8281C04F87D
S214000490011B252BE7D10BB030BD00BFA606002000
S2140004A010B5034CA01DFFF7C9FF0023236010BD45
S2140004B0880D0020084A10B5136840F2E24404FB99
S2140004C001316043536800F5807001EB5001184419
S2140004D01160506010BD00BF7C060020D0B50C4CEB
S2140004E0E38C0A20584308F09DFA0646A08C0F4677
S2140004F008F098FA074B002208F0FEFA02460B4670
S2140005003046394608F022FC08F008FD2083D0BDAE
S2140005107C0600200000F43F10B5094CB4F8071024
S214000520A079FFF7C7FFA368064AB4F80D10D18478
S214000530C3F30F239384FFF7D1FF0023236010BD7E
S214000540880D00207C060020837DDB0701D5808A8D
S2140005507047D0E901239B1A44BF828A9B1898B241
S21400056070470000084BD3F8F020D3F8F430027040
S214000570110A120C82701A0AC2701A0C1B0E4170F5
S21400058002714371704700BF0081E00F034BD86BC8
S21400059080F04000C0F38010704700BF00300E406F
S2140005A008B5FFF7F3FF20B1024AD2F8C830002B97
S2140005B0FBD108BD0000C64308B5FFF7F1FF024BAC
S2140005C05868C0F3014008BD00300E400C4B9842FE
S2140005D010D90C4B984210D9022201230A490B6409
S2140005E00A49D1F8003123F0807343EA0263C1F868
S2140005F00031704700221346F0E70122FBE700BFF8
S2140006000048E8010090D0030000C84300400E40B8
S2140006100F4B5B680F4B30B500221C46C9B21D79E4
S2140006208D4202D11D6885420DD20132052A03F1A2
S2140006300803F4D1032206494B6823F0407343EACB
S21400064002634B6030BD04EBC2025279F3E700BF91
S21400065000000E40BC92000038B5054C41F67133E0
S214000660256C2364FFF7D4FF0DB10023236438BD47
S21400067000000E4042EA0323B3F5007F39D016D8B7
S214000680B3F5807F31D007D85BB3012B1ED0002294
S214000690134603600A60704740F201129342F6D197
S2140006A0184BD3F824321A0EC3F30743F1E7B3F519
S2140006B0407F22D040F2013293420ED040F2012217
S2140006C09342E4D10F4BD3F8283202E00D4BD3F817
S2140006D02432C3F30722DBB2DBE70A4BD3F8283217
S2140006E0E1E7084BD3F81C32F3E7064BD3F81C328D
S2140006F0D9E7044BD3F82032EBE7024BD3F820328D
S214000700D1E700BF0081E00F2F4B1A6FD96C11F0B4
S214000710010F02F0060242D0002A40D013284FD91B
S214000720143813288CBF102308232749013BCA6CB2
S214000730180322F47F4240EA03231343CB64234B7F
S214000740CA6C1B88C2F303222833013202EB8200F4
S21400075003EB5303B3FBF0F3C86C013B072B28BF36
S214000760072320F0EE6040EA036343F48013CB6473
S214000770174BB3F90030002B10DB2833500800EB82
S214000780420203EB5303B3FBF2F30A6D072B28BFB9
S214000790072322F0700242EA03130B657047D96CF8
S2140007A001F00101114304D1092809D90A380928A2
S2140007B0B8E7DB6C13F00103B7D01AB92728B1E706
S2140007C00423B2E70023B0E700300E40FA0600200C
S2140007D0FC06002070B51D4DD5F82828A2F17E63D2
S2140007E0A3F58433B3F5104FE0B004D34FF401748F
S2140007F0204660B070BD136B002BF7D05B6A4FF4D9
S214000800C07269460020984704460028F0D140F29E
S2140008100126D5F82828A2F17E63A3F58433B3F524
S214000820104FE3D2126BA2F17E63A3F58433B3F5C7
S214000830104FDBD2936A002168469847B042E8D052
S21400084040F20323984218BF0446D1E70000E10FA8
S214000850104A0B46D2F82818A1F17E62A2F584321F
S214000860B2F5104F10B40FD2096BA1F17E62A2F55B
S2140008708432B2F5104F07D20C69074A0146A446E7
S21400088000205DF8044B60474FF481705DF8044B20
S214000890704700BF0000E10F2C07002037B5044664
S2140008A0684680E8060003C8251D85E80500237312
S2140008B0069B0B4A2361BDF81C30A38200232360ED
S2140008C0136853B119461B68002BFBD10C60908847
S2140008D0013080B2908003B030BD1460F7E700BFEF
S2140008E0DC06002037B50D461446FFF77FFC70B1D6
S2140008F0036973B1818A4FF6FE72914209D1009561
S214000900ADF8044069460120984703B030BD012089
S214000910FBE70E20F9E7036937B514460D46828AD1
S21400092063B14FF6FE718A4208D100200090ADF800
S21400093004006946984728B103B030BD2B600020FC
S2140009402280F9E7009B2B60BDF804302380F3E794
S21400095038B50D461446FFF749FC40B122462946F5
S214000960FFF7D9FF10B92B6803B9208038BD0120E6
S214000970FCE7000007B503790193054A0368009376
S21400098006CA02230830FFF789FF03B05DF804FBB0
S21400099018930000034B5A6D12B95865A3F8581007
S2140009A0704700BF7C06002070B50C4690B9FFF774
S2140009B0EFFC58B1436B084D03F1400618685968C0
S2140009C02A4603C20833B3421546F7D1034B2360C9
S2140009D00423A380002070BD440100206401002091
S2140009E02DE9F04116460546FFF7AEFDB04228BF9A
S2140009F0304686B20F46B046B8F1000F09D12EB188
S214000A00AB7DDA0744BF23F00103AB753046BDE883
S214000A10F0812B68AC8A69681C44641AA4B2444509
S214000A2028BF44462246384608F0D0FA6A682B6843
S214000A30A98A2244194427448A4238BF1346A8EBA1
S214000A4004041FFA84F86B60D6E7F8B51F46038ADD
S214000A5004461646EBB9C57DDDB10123013D0B709A
S214000A600222C57500F11001FFF7BAFFE37D9BB1C6
S214000A70228ABA4228BF3A4631462046FFF7B0FFE0
S214000A80238A1B1A2382E37D13B9638A1B1A6382A7
S214000A90F8BD00230B70EBE7638A2382E8E72DE9B5
S214000AA0F04104460F461146FFF74EFDA38A181A7A
S214000AB086B28E4228BF0E46B046B8F1000F0BD164
S214000AC03EB1D4E901329A4202BFA37D43F001034E
S214000AD0A3753046BDE8F0812368A58AA0681D444A
S214000AE02D1AADB2454528BF45462A46394608F078
S214000AF06DFAA2682368A18A2A4419442F448A42C0
S214000B0038BF1346A8EB05051FFA85F8A360D4E79F
S214000B10F8B5044616461F4611B3FFF715FDA58A1D
S214000B20281A80B2012829D9E37D63B1E068658A76
S214000B3005702D0A07D02268A38A01301344984214
S214000B4028BF1046F4E700236382A368E36002220E
S214000B5004F112012046FFF7A2FFE37D0133E3759F
S214000B603A4631462046FFF79AFF638A034463827B
S214000B70E37D13B9238A03442382F8BD0020FCE7F3
S214000B8013B50379124A03330446019300F1440374
S214000B90009306CA02231430FFF780FE238A0193CF
S214000BA0E368009394E80600237A04F12C00FFF72C
S214000BB075FE237A22792168A4F8450004F14700DF
S214000BC084F8443002B0BDE8104008F0FFB900BF1A
S214000BD01093000070B50C4C0C4B06460D46D4E93D
S214000BE0010183E803001846FFF7C4FE084BD4E96A
S214000BF0040102221A7283E80300DE601D82184692
S214000C00BDE87040FFF7BCBF249200007C130020B4
S214000C10C40400202DE9D34FDDF82890BDF82CA0A1
S214000C2004460F4690461E46FFF7E0FA8346BBF1A1
S214000C30000F01D0BC4205D94FF6FF74204602B023
S214000C40BDE8D08F9BF808309E421CD1DBF804002C
S214000C503246414608F0D8F9A8B9B9F1000FEDD0F0
S214000C600DF1020201A95846FFF755FE58B9019941
S214000C7049B1BDF80230534505D15246484608F002
S214000C80C3F90028DAD00134DBF800B0A4B2CEE70E
S214000C9038B50C4611462568AD1A2A46014408F0B8
S214000CA0C3F9256038BD00002DE9F84F494F4A4B7F
S214000CB0D7F80090DFF84481A0EB09068246474843
S214000CC0C8F800601B1A4648034423F4FF6323F069
S214000CD007039E4278D3FFF731FB0AEB0204A0F528
S214000CE08050844273D8386800EB020BBBF5806FE7
S214000CF003D93C4B82221A7064E03B4D284408F02E
S214000D0065F93A4BC7F800B01A6822B9BBF1330F41
S214000D1058D96A6B1A601868864206EB0B041FD80F
S214000D2084421DD900F110039C424BD38144A9EBA9
S214000D300A0A55442E4A2B4605F1100153F8040BB7
S214000D4042F8040B8B42F9D12948FFF7FFFA10B995
S214000D50244B8422CFE71022FF21284608F044F9CE
S214000D60244D254B28680BF0030BA4EB0B041C400A
S214000D7058B906EA0300C0F500612144FFF7C4FA3B
S214000D802C6040B1174B8522B5E7A04203D2211A4A
S214000D9000F50060F2E73A681349D8F80000A2EBC5
S214000DA00B02FFF793FA3A68D8F800300949A2EB2D
S214000DB00B02044613440C48C8F80030FFF768FFDF
S214000DC0002CDFD1BDE8F88F064B872293E7054B52
S214000DD0832290E7BC110020BC00002010000020F9
S214000DE03FBA0000310B0020BC0D0020B80D0020DB
S214000DF0A80D0020C011002000F8FFFF340B0020D3
S214000E0037B50023114C0093437A6060D0E9002187
S214000E10206802F052FF238CDB050CD563680C4D6E
S214000E201B7A2A789A4206D0012B06D0022B08D0CD
S214000E3063681B7A2B7003B030BD206802F012FF87
S214000E40F6E7206802F014FFF2E700BFC4110020A6
S214000E50D906002013B50D4B0D4C1B8BADF8043096
S214000E600128ADF8003004BF02238DF8043001A934
S214000E7008BF0423206808BF8DF8003002F000FE8B
S214000E802068694602F014FE02B010BD24920000ED
S214000E90C4110020034B00221A61186801220321A6
S214000EA002F032BBC41100201FB502238DF80630B5
S214000EB0064B5A8B596918680332ADF804206A4607
S214000EC002F084FE009805B05DF804FBC411002013
S214000ED010B51E4C1946236986B023B3A2F108004C
S214000EE0084322D101AA0321206802F06BFE636842
S214000EF060615B7A23769DF80430DA1F53425341D3
S214000F00627E63F30002039BE361BDF806306276FF
S214000F10638304F1180102202369984720680122A0
S214000F20002102F057FE06B010BD02F17F400143DB
S214000F3005D10021012006B0BDE81040184712F484
S214000F40A0411ABF00210320FF20F4E7C4110020AF
S214000F50F0B5194C194D87B0637A0133DBB2272BF5
S214000F6088BF252320466372FFF74AFF627D144937
S214000F702868E768667C4FF40073023202F000FED1
S214000F806B68104A5B7A06F00106D15C0391304626
S214000F90FFF760FF0123002205930399286800925B
S214000FA004AB049702F0B4FA10B1FFF773FFD3E76F
S214000FB0054B2B6107B0F0BDDC000020C4110020FB
S214000FC0F0000020E592000041200000EFF31080C2
S214000FD072B670470048704700F049020E49D1F8D3
S214000FE0942002F00702042A0BD8022A0FD811D147
S214000FF00A4BD1F80001C0F304200130B3FBF0F037
S2140010007047074B0748052A08BF0346F1E74FF429
S2140010100043EEE7024BECE700400E4000F04902CA
S214001020C0EA210160F5900008B5FFF7D7FF044B32
S214001030D3F80831C3F308230133B0FBF3F008BD3F
S21400104000400E4013B502460C46FFF79FFAF0B17B
S21400105022B9104BD3F80031FFF7C0FFFFF796FA1E
S214001060A8B1FFF7A9FA90B10A4BD3F80031FFF701
S214001070B5FF094B40221A611CB10190FFF790FAA8
S2140010800198002102B0BDE81040FFF7E5BA02B0B3
S21400109010BD00BF00400E4000300E40044B054A15
S2140010A09A60D3F8882042F47002C3F8882070470C
S2140010B000ED00E00000000008B5FFF785F8704777
S2140010C0FEE7000038B5C0F30323013B04460D4697
S2140010D0092B1CD8DFE803F033231C1B0526291B2D
S2140010E02C30184B0022C4F3043442B11649D1F810
S2140010F04401C00703D4D1F840010242FBD103F1FA
S214001100424303F5801304EBC3039B001D6038BD08
S214001110FFF78AFFFFF75AFA0C4B0022E3E70C4B67
S2140011200022E0E70B4B0122DDE70B4B1022DAE74B
S2140011300A4B4FF48032D6E7094B0022D3E7024B26
S2140011400022D0E7B0400E4000400E40B8400E40AF
S214001150C0400E40E0400E40E8400E40F0400E40DA
S21400116050410E402DE9F84FDFF808A13E4D9AF8A1
S2140011700070814688461646002F38D1FFF7DEF805
S2140011803A4CA0F580502060FFF7D8F8A0F5006034
S214001190606001213648FFF795FF2068082104307B
S2140011A0FFF72AF923681B68984208BF236860681F
S2140011B008BFD3F804B04FF0080100F104000CBFDC
S2140011C00127BB46FFF718F963681B68984205D1EC
S2140011D063685B685B4505D8002304E0002FFBD1FD
S2140011E0FF2300E001232B7001238AF8003095F9D5
S2140011F000305A1C28D01D4ADFF87CA052F8237015
S2140012000C373D464FF6FF7BC5F30A030833B3F5AC
S214001210006F19D2AB885B4516D0A979281D04311A
S214001220FFF7EAF82B68EC889842E4B202D1AB8864
S2140012304B450CD0033404F4FE740834254487EA86
S214001240050313EA0A0FDFD0002030700AE0337877
S214001250A342F9D3224605F10801404607F0B6FE40
S21400126034700120BDE8F88F10000020F006002042
S21400127000650A00E413002000F8FFFF00F00F00EE
S2140012800138072844D8DFE800F0040F1943232D5F
S2140012904335244BD3F8943003F00703023B052B69
S2140012A038D8214AD05C70471E4BD3F8803003F004
S2140012B00703013B032B2FD81C4AF3E7194BD3F83F
S2140012C0843003F00703013B032B25D8184AE9E7CF
S2140012D0144BD3F8883003F00703013B032B1BD8CD
S2140012E0144ADFE70F4B1B6F13F0010F0CBF0720EC
S2140012F0092070470B4BD3F85C3103F03003202BEA
S2140013000CD0302B0CD0102B14BF012007207047B8
S2140013100020704705207047012070470420704762
S2140013200820704700400E40489200004E92000091
S214001330529200004E9200000428F8B56CD8474B35
S21400134013F800C0464B1D5C464B002970D0464C37
S214001350022834F8106060D15C6A14F0300F5CD15B
S214001360424CE46B5C6AE40705D55F6A27F03007F9
S21400137047F010075F623E4C3A4B25441E66AD00B0
S2140013802B68002BFCD0002A46D06444A4002368B7
S214001390002BFCD002283FD100293DD0314B5A6AA1
S2140013A0D1073CD54FF48062C3F8A82020225A66A5
S2140013B05A6A12F0300F0CBF4FF440024FF400028E
S2140013C0D3F8901032EA0101FAD1520201D5D3F8CF
S2140013D0A030244D012200210220D5F89C70FFF792
S2140013E0ABFFD5F890306A6A224B22F0300242F00A
S2140013F010026A62C7F30A07296BFA0903320F2A3A
S21400140003EA010328BF0F223B4343EA02732B6320
S2140014102E662368002BFCD0F8BD0021ABE75A6A85
S214001420D3F8902002F44002B2F5400FF8D1CEE790
S214001430114931F810101966012101FA05F5D3F8A3
S21400144090102942FBD1002AE6D00124054A04FA6E
S2140014500CF4D2F890302342FBD1DDE75692000020
S2140014605B92000000400E406092000000300E408C
S2140014708004F21000F8FF0F6A9200001128F8B5F9
S21400148005460C4611D104290FD16248614E002151
S214001490FFF7D8FD05F00F056B1E072B61D8DFE8B8
S2140014A003F011065C605A7B60860026F2E75A4D10
S2140014B0013C092C55D8DFE804F06D555C545463A4
S2140014C054545452023C0A2C4BD8DFE804F03F3CFC
S2140014D031374A4A4A4A4A06420003200525012275
S2140014E01146FFF729FF4D4C4A48276C41F67133E9
S2140014F023640021FFF78CF80FB1002323640EB19C
S214001500FFF74EF8464B5D67FFF78EFD0446FFF784
S21400151065FDFFF75BF8FFF74FF801462046FFF73B
S2140015209BF8F6B930460121BDE8F840FFF78ABDC2
S2140015303C48FFF74BF802200546D0E73948FFF74E
S21400154045F80320CBE701200325C8E70020042543
S214001550C5E70725C7E7344DAAE7344DA8E70423B7
S2140015602B60F8BD012211460020FFF7E5FE02239E
S214001570F6E7012211461046FFF7DEFE0123EFE7ED
S214001580FFF72CFDFFF722F8294B0122C3F80826A7
S2140015900323E5E70023E3E7072C04D0092CE0D17A
S2140015A01F4B012201E01E4B00221A67D9E7013CBF
S2140015B0072CD6D801A353F824F000BF0F1600005E
S2140015C06315000063150000011600006315000097
S2140015D063150000F3150000DD1500000322104916
S2140015E0D1F85C3123F0300343EA0213C1F85C31D2
S2140015F0B7E7012211460420FFF79EFE0122EEE720
S214001600012211460220FFF797FE0222E7E700229A
S214001610E5E700BF00F0490280400E4000000E40A3
S21400162000400E400148E80188400E4084400E40CD
S2140016300010C84300B962B6704700002DE9F041BB
S2140016400D4F06460D4614460CB9BDE8F081EFF383
S214001650108872B623462A4631463846FFF758FAAF
S21400166003464046FFF7E6FF002BEDD0E41AA4B28F
S2140016701D440026E8E700BF6C0C002013B50023CD
S21400168001F10804ADF80430ADF8060021461A460C
S21400169051F8080C083170B90BB1ADF804200422DB
S2140016A00DEB020101200834FFF7C8FF54F8101CA8
S2140016B039B902B010BD51F80C3C1A4492B201235D
S2140016C0E6E734F80C2C0020EDE700007FB501308B
S2140016D0002380B2CDE90101CDE904336946044B0D
S2140016E0009304200392FFF7C9FF07B05DF804FBE0
S2140016F08A0100200D4AD2F82838A3F17E63A3F5AC
S2140017008433B3F5104F10B50FD2EFF3108072B6D6
S214001710074B197800241C70FFF78CFF29B1D2F80C
S2140017202838BDE810401B6A184710BD0000E10FBE
S214001730850D002001282DE9F34740F03E818B8877
S214001740012B40F03C810B681C7814BB9E4B9F4DD0
S2140017501C609F4B1C609F4B1C609F4B1C609F4BEC
S2140017601C609F4B1C709F4B1C609F4B1C602B7813
S214001770022B01D1FFF7BEFF9C4A01232B700023EA
S21400178013709B4A13709B4A1370204602B0BDE844
S214001790F087032C40F0FF80964B8C4E1C78002C74
S2140017A040F08D803378002B00F0E9808C4B1B785E
S2140017B0082B40F08780DFF81082D8F8000090B938
S2140017C08D4DD5F82838A3F17E63A3F58433B3F5A1
S2140017D0104F55D34FF4017041F20804A0420CBFDD
S2140017E0862480246BE010F003071ABFC7F10407B5
S2140017F0FFB2274600EB070ABAF5806F00F2C580F5
S2140018007E4BDFF8E0913A46FF21184407F0ECFBE8
S2140018107B4AD9F800301268C8F800A00AEB03012A
S214001820914200F2B6806A4A15681D445544DFF8B6
S214001830ACA125F4FF65DAF8000025F0070585421F
S21400184007D9291A00F50060FEF75EFDB0B9CAF8A0
S2140018500050D8F80010D9F80000FEF7F9FFD9F8C4
S2140018600030D8F80020584913440546DB1B63486F
S214001870C9F80030FFF70CFA002DA1D085241EE031
S214001880FEF7A8FF0028A7D1D5F828280190A2F1D6
S2140018907E63A3F58433B3F5104FEFD2126BA2F13B
S2140018A07E63A3F58433B3F5104FE7D29369012125
S2140018B001A898470028E1D14D4B01221A70002359
S2140018C0337062E7002B5CD0484B1B78002B5AD055
S2140018D0454F3B6843B9404B4A4918681022FEF70B
S2140018E0F5FC0028EBD0C9E713F003021CBFC2F1D9
S2140018F00402D2B29D18B5F5806F46D84248DFF88C
S214001900D480FF21184407F06FFB404A404B414902
S2140019103D609B1A404A1344D8F800200B4093427F
S21400192035D8FEF70BFD1544A0F58050854230D81B
S2140019303D68DFF8A8902A44D9F8000002EA0105BD
S214001940854208D9291A00F50060FEF7DDFC00285C
S21400195094D1C9F800503A682B49D8F80000FEF731
S214001960B5FCD8F800303A681F49054613442648A7
S214001970C8F80030FFF78CF9002DACD07EE7812444
S2140019809DE784249BE7802499E7822497E78724B1
S21400199095E7832493E7042C13D1204813230221D0
S2140019A043700170FEF7F6FF1D4A1E4B1289053282
S2140019B09A801D4A1A6042789A710024E5E60D2442
S2140019C0E3E60624E1E600BF2C0B0020320B0020E5
S2140019D0DC130020340B0020B80D0020C0110020BE
S2140019E084010020380B0020BC110020300B0020A2
S2140019F091010020310B00200000E10F2C07002091
S214001A00E0130020A80D0020BC0D002010000020D0
S214001A10BC00002000F8FFFF3FBA00009C0D00202D
S214001A207C060020880D0020452500000D4AD2F8CF
S214001A302838A3F17E63A3F58433B3F5104F10B5B1
S214001A400FD2EFF3108072B6074B197801241C7082
S214001A50FFF7F0FD29B9D2F82838BDE81040DB6959
S214001A60184710BD0000E10F850D00202DE9F04F4E
S214001A70012891B004D00024204611B0BDE8F08FB4
S214001A808A88002A00F0D981AA4F97F800A0BAF1F8
S214001A90000F00F0D481A84D2C78002CECD1DFF894
S214001AA0CCB29BF80040002CE5D1A44E306802EB87
S214001AB00009B9F5806F02D982242C70DCE7DFF8C4
S214001AC098820968404407F081FABAF1020FC6F816
S214001AD000903CD0B9F1030FCDD99948FEF7AEFB84
S214001AE00378D8F80020012B47D14368190E012946
S214001AF003D1C3F307430A2B47D9924B9A4240F0CF
S214001B00E8808368DA033ED502233B70FFF78EFF3A
S214001B108D4BD3F82828A2F17E63A3F58433B3F562
S214001B20104F0BD2126BA2F17E63A3F58433B3F58C
S214001B30104F03D2936809A900209847834B099A4F
S214001B401A60834B0A9A1A603B78022B93D1DFF80F
S214001B5020A233689AF80020082A4CD1DFF80082C9
S214001B607B49D8F80000096803F00309C218A2EB05
S214001B7009028A420BD983249FE7724CA2420CBF0B
S214001B808624842499E7862497E7882495E76F4A75
S214001B9017681F4407446F4BA7EB0907186827F41C
S214001BA0FF6727F00707874209D9391A00F5006052
S214001BB0FEF7AAFB674B08B185247EE71F603168F5
S214001BC0D8F80000A1EB0901FEF742FE3268D8F80B
S214001BD000305A49A2EB0902074613445E48C8F88B
S214001BE00030FFF755F8002FE6D19AF80030002BAA
S214001BF07FF441AF01E0002A6DD133687F2B7FF67A
S214001C003AAFDFF86081D8F8000028BB4E4BD3F817
S214001C102838A3F17E63A3F58433B3F5104F15D2AD
S214001C200123CDE90A0009A88DF82430FEF706FB4B
S214001C300A9B1A0E7BD0012A03D1C3F307430A2B53
S214001C4075D9414BD3F828389B6B9847434B18609F
S214001C5007F0D2F9C8F800003B4FD7F82828A2F1C1
S214001C607E63A3F58433B3F5104FA5D2936A3B4A3F
S214001C70D8F800001168984700289DD1D7F8283872
S214001C80A3F17E63A3F58433B3F5104F21D201236D
S214001C90CDE9070032688DF8183006A8D8F800900D
S214001CA00392FEF7CBFA079B190E12D00129039A6E
S214001CB003D1C3F307430A2B0BD9234B05A9D3F84B
S214001CC0283800915F6B244909AB4846B84700287E
S214001CD050D08424F1E622490A681A440A601A4A57
S214001CE0D2F82818A1F17E62A2F58432B2F5104F20
S214001CF013D21C48CF6A184A1B490068B8470746E3
S214001D0032680E491448FEF7C3FF40F203239F4291
S214001D1006D101238BF80030AEE640F20227EFE74B
S214001D2040F201239F423FF460AF8024C5E64FF4A3
S214001D30C0708BE7320B0020310B00202C0B0020EC
S214001D40A8010020EB17A6030000E10FDC1300201B
S214001D50E0130020C01100202C070020500B0020AC
S214001D60380B00204C0B00203C0B0020300B0020D2
S214001D70840100209DF824308AF800300393FEF793
S214001D8007FB039B074648B3D0F83490002B3FF47C
S214001D9073AE0022069204228DF8132006A90DF1D8
S214001DA0130235200393FFF7DDF9069AD30719D5FA
S214001DB0039B082B14D0B9F1000F42D04B461022DB
S214001DC00CA903F12800039307F01EF920B9039B22
S214001DD00A9A1B6A9A4205D889246EE68146D5E798
S214001DE0364BECE797B14FF400613846FEF78CFAB5
S214001DF000287FF4E1AE29F4FF604FF4006120F084
S214001E000700FEF781FA00287FF4D6AE9AF8003075
S214001E10082B18D12A4B2B4A186820F4FF6323F0AE
S214001E2007034FF400611360FEF76EFA00283FF4D4
S214001E3023AEC1E640F202272FE00D241CE68124E3
S214001E401AE6002FCFD1204F204BDFF890907B6012
S214001E50D9F82828A2F17E63A3F58433B3F5104F92
S214001E60BFF4AAAE936A1A4AD8F8000011689847D9
S214001E7000287FF4A1AED9F82828A2F17E63A3F546
S214001E808433B3F5104FD5D2D2F82C903368114A6C
S214001E90D8F800003946C847074632680E490D484C
S214001EA0FEF7F6FE40F203239F423FF432AF40F2C5
S214001EB001239F423FF4E0AD37E700BF7C9200006D
S214001EC0DC130020C01100203C0B0020A90C0000F1
S214001ED0500B00202C0700202C0B00200000E10FE8
S214001EE008B50F4B0F4C1B784FF000556BB1FFF742
S214001EF09DFD0D4B2B600123A360236823F4E06354
S214001F0043F480632360FEF75FF92B600123A36030
S214001F10236823F4E06343F480632360FEF754F9F8
S214001F209101002000500E4002020FF010B5164C32
S214001F30A37E5B0626D4FEF7ADFFA18C226840F296
S214001F40E24303FB01222260A37A94F84F20134455
S214001F502522B3FBF2F002FB10332289A372013272
S214001F60636822810A2202FB01336360238B5A1EB8
S214001F7022833BB9A27E42F04002A276034A137047
S214001F80FFF7AEFF10BD00BF7C060020D80600207D
S214001F90F0B5254CA37E5A0687B040D4234A218943
S214001FA023F0070343F00103A37613681BB192885E
S214001FB08A4200D19847A37A1D48234493F82A30D2
S214001FC06375FEF71DFFD4E900561A4C1A4A63687B
S214001FD05B7A7708D15C0191A5EB56060120FEF7E7
S214001FE039FF643502964FF4807300260199ADF8E8
S214001FF014303D4402AA2068049533468DF80C60E0
S2140020008DF8166001F0ACFA0122054631462068CC
S21400201001F0E0FD2DB1FFF789FFFFF7B9FF07B02C
S214002020F0BD064B2361FAE77C060020880D0020F1
S21400203088060020C4110020E5920000A9210000B7
S21400204002282DE9F0411DD002D8012807D0FEE76E
S214002050032800F09E80FF2800F09B80F7E74E4C98
S214002060637C990707D5FEF715FFFEF771FF637CC3
S2140020706FF341036374637CDA0768D4BDE8F0410C
S214002080FEF766BF4B78DB0740F183804C6822780A
S21400209002F00F08B8F1030F5BD0B8F1050F78D146
S2140020A03E498B7B03F00103B3EBD21F4FD10622D0
S2140020B0083104F1080006F0A7FF0646002846D1BE
S2140020C0FEF7E8FEFEF7F0FE354D314607465C2289
S2140020D0284606F089FFAB7EA5F8188043F020035B
S2140020E0AB76627E237E43EA0223AB84627F237F45
S2140020F043EA0223EB8494F82330C3F3040385F801
S2140021004F3094F82330C3F3421385F8503004F16F
S2140021101E001B232B85FEF791F9D4F80E30E27CC7
S214002120EB60A37C2F6043EA0223227D607D43EAB6
S21400213002432B61012695F84F30AB722E75E18A6B
S2140021403144FEF7B7F9FFF723FF164B1E70BDE8C4
S214002150F081124DAB7B03F00103B3EBD21FF6D137
S214002160062205F1080104F1080006F04DFF0028DC
S214002170EDD1094C286894F83D204FF400730232E4
S21400218004F13C0101F0FCFC637C43F00203637441
S214002190DDE7FEF77FFE71E7DC000020C4110020BB
S2140021A07C060020D806002002282DE9F34780464A
S2140021B00C460BD003D8012800F0AE81FEE70328BA
S2140021C000F0B081FF2800F0AD81F7E74B78AB4D0B
S2140021D013F0010300F0BC804A68AF7E117892F8D5
S2140021E00090C1F3001161F38207AF76C9F3C00116
S2140021F0C7F30017B94240F0A88009F0030102298E
S21400220000F0A180032918D0012940F09E804FF0ED
S214002210000A567896B19A48818AFEF795F90B1A05
S2140022209BB2BAF1000F04D0022B86BF023B9BB2D2
S21400223000239E428CBF002301231E46A97EC9F3BD
S2140022408009C1F3C002914508D082F00102D20095
S21400225042F0200221F028010A43AA762BB1AB7E79
S21400226087F0010767F30413AB76AB7E854F13F058
S214002270200F11D0696D6FF34513AB76002969D036
S2140022803B7895F858207A7043F003033B70B81CEF
S21400229006F09CFE00236B657B487A49FEF754F9EE
S2140022A0AB7E003818BF012060F34103C3F3C002C1
S2140022B0AB76C3F300139B0043EAC20343EA001065
S2140022C03B787A7823F01C03184338706F4F02323D
S2140022D04FF400733868D2B201F052FCAB7E6468EB
S2140022E0D90709D56FF30003AB7600236B60FEF7C2
S2140022F0DBFD2860FEF7F2F8002E00F0A1802378C0
S21400230003F00303022B05D0032B3DD0012B40F036
S214002310978000265A486578818AFEF715F9081ACC
S21400232080B226B1022886BF023880B200208542DD
S214002330ABB200F285805248A21C314602B0BDE81E
S214002340F047FEF7E5BB9A4663E70026334675E797
S2140023501E468AE795F828304B48BA1C0DF107014F
S214002360FEF773FB10F0FF000BD09DF80730002B34
S21400237008BF4FF001083B78787068F301033B70A4
S2140023808AE74FF00108F6E7A3780C2B0AD80C2B47
S2140023900AD8DFE803F03F2B580909090909600944
S2140023A009091800142B7FD0394A12782AB1162B47
S2140023B000F09680182B00F0A280364807220270A4
S2140023C0437002210DE033480C234FF0FF320370B8
S2140023D0012343708270037102220023C27043718E
S2140023E0062102B0BDE8F047FEF7D4BA617A237A38
S2140023F0294A43EA012393801346284943F8061BDB
S214002400D4F80310C2F80610B4F807209A80627A4F
S2140024109A7115E0627B237B1F4943EA02238B8077
S2140024200B461F4A43F8062BD4F80320C1F80620B3
S214002430D4F807205A60B4F80B201A81627B9A728F
S21400244002B0BDE8F0872A89134B05329A80154AF8
S2140024501A60E278DCE7D4F803303A8C0D48134073
S21400246003F0FF0322F0FF0213430246092102F89D
S214002470011BC0F8013000235360B2E77C06002041
S214002480540B0020E81300206C0C0020C411002020
S214002490840D00209C0D0020880D0020A104000063
S2140024A01905000045250000B4F80530B4F80320EF
S2140024B02048DB08934228BF13462B8515230021AE
S2140024C06FF004046FF02702037007238170817198
S2140024D04470C27003714471C2710372092180E7AF
S2140024E02279E3781348134003F00303022B18BF46
S2140024F001231722027043708370032171E762790B
S214002500A1790D4B42EA01229A800C4A1A60D4F84F
S2140025100320C3F8062093E7094B9B7E9A078FD4C7
S2140025205B078DD4FFF702FD02B0BDE8F047FFF76A
S2140025302FBD00BF9C0D0020880D00202504000044
S2140025407C060020054A08B5937E43F04003937648
S214002550034B00221A70FFF7C3FC00BF7C06002066
S214002560D8060020EFF3108072B67047FFF762B807
S214002570064A074BD3F88039136F23F00703184336
S214002580044B10671888FEF7BFB800BF00300E4037
S2140025900000C643F80600202DE98048774B5B68AC
S2140025A05A05A5B01BD44FF0005300221A601CA891
S2140025B0FDF744FEFDF7ECFEC0B1446BFFF736FABC
S2140025C01E9B5B0740F1AF80FDF7E2FEFDF76EFE57
S2140025D00446FFF78FF8002C40F0BC8006E04FF072
S2140025E000531A68022ADED100221A60BFF34F8F0A
S2140025F0BFF36F8F624B634C5A6A634F634922F492
S21400260080325A62D3F8942022F00102C3F8942054
S2140026102068C3F898004FF00052C3F89C20451C71
S2140026205B4AC3F8A0208F42256050D07E1E731AE6
S21400263043EA530343EA930343EA131343EA132399
S21400264043EA13430133B3F5807F38BF4FF48073FA
S214002650C3F1000C0CEA010C03EB0C02974200F2EB
S2140026608A80072BA2EB07024FF001078CBF4FEAC8
S214002670D30E4FF0200EB2FBFEF207FA02F2013A3A
S214002680D2B2A6EB0C06A1EB0C01B6FBFEF6B1FB34
S214002690FEFE3E4407FA0EF7013FB240B3FA83F35C
S2140026A03A4302F0FF07C3F11E02520002F03E0258
S2140026B042EA0722324B42F0407242F001120230E8
S2140026C0C3F89850C3F89CC0C3F8A0202060BFF39E
S2140026D04F8FBFF36F8F2A4B0522C3F894205A6A98
S2140026E042F480325A62BFF34F8FBFF36F8F294B8D
S2140026F001225A64284BD3F8FC20284B120E4FD1E7
S2140027004AF6E851C3F89011D3F8981141F0040145
S214002710C3F89811C3F89021D3F8642142F400520C
S214002720C3F864213EE014B9FEF7E4FF5EE7FDF768
S21400273005FE8442F8D2FDF701FE04F14003834211
S214002740F2D82046FDF702FE0028EDD063696BB98B
S214002750FEF7D0FFFDF71CFE0446FDF719FE084BFA
S214002760986023689D46636898473FE79DF87030F9
S214002770012BEDD128E75B006AE700BF00500E4052
S21400278000ED00E078130020B4000020B400002024
S2140027903900011300000E400081E00F00300E40AB
S2140027A0012AB9D0B94A136A23F4441343F48813B0
S2140027B01362A2F58042136843F480731360B44B2F
S2140027C0D3F8A42142F4F842C3F8A42102229A6363
S2140027D09A6B02F00F02022A40F0EC80DA6C22F0CC
S2140027E0405222F0010242F00102DA64D3F8EC20F3
S2140027F042F44072C3F8EC20A64A0F211180DA6E2C
S21400280042F08072DA66A44BD3F8800900B1042047
S214002810FFF7AEFEA14B9E4DC8221A80A04BA02209
S2140028200F2000241A80FDF76FFF9E4BAB65CDE9A5
S2140028301444CDE91C449C4BD3F81832C3F307224A
S214002840DBB21E921693EE6CC6F301762246334632
S2140028501CA914A8FDF70EFFD5F8EC50C5F301250A
S21400286022462B461DA915A8FDF704FF1E98169BA9
S2140028704FF41672C11A5143B1FBF2F29B1828BFEF
S21400288001249842C0F09680002C40F093801D9A58
S214002890159C4FF41677101B7843B0FBF7F02418FE
S2140028A02CBF01210021A242C0F08480002940F004
S2140028B081801C981499421A7A43B2FBF7F2891861
S2140028C02CBF01220022884274D3002A72D170489D
S2140028D0C26D22F4FE4222F0020242EA0322724B4A
S2140028E0C265022ED3F8302200F0FC80032E00F0E2
S2140028F0FC80012E14BFD2B2C2F30722120312F4D8
S214002900702F57D16248C36E23F470431A43664B48
S214002910C266022DD3F8302200F0E980032D00F0C5
S214002920E980012D14BFD2B2C2F30722120312F4BB
S214002930702F3FD1564BD3F8EC0020F47040024382
S214002940C3F8EC205A6EA14238BF2146E72922F48C
S214002950FF7228BFE72122F0010242EA41025A66CE
S214002960DA6B42F48062DA634AF6E852596B5A63CD
S2140029709A6FD707FCD41B6C474A13F0030300F08A
S214002980E5840123C2F8B43A414B9A6FD607FCD4CB
S2140029901A6C22F003021A649A6F12F00102FBD13D
S2140029A03D480129C0F8B42A08BF5A633A4B0122B1
S2140029B0C3F89427354C3D4F1120FEF75FFC0021ED
S2140029C001220220FEF7B8FC636A23F0010363626B
S2140029D0374B0025C3F8A054A36A23F0070343F03F
S2140029E00603A362334BE362226B334B02F07F6233
S2140029F013432363314B636304211120FEF73EFD2E
S214002A00234B012138461B68666AFEF71BFBFDF761
S214002A10D3FD01463846FDF71FFED4F80001C0F38B
S214002A2004200130B7FBF0F0FDF7D0FD012211467F
S214002A3046F040560220FEF77FFC6662D4F8C830A7
S214002A401F4E43F00103C4F8C830174BD3F8D830F4
S214002A50B365042406AA08A935208DF81840089501
S214002A60FEF780FB089A8DF81640062312F4803F86
S214002A708DF8173009AC40F095820DF1170221460B
S214002A802C20FEF76FFB002849D01BE000400E40CC
S214002A9000300E40F80600200000C643FA0600206C
S214002AA0FC060020372110B70081E00F00F0490235
S214002AB00000C8432000050007450BD047A00200D1
S214002AC0005008400DF1160207A93C20FEF74AFB0D
S214002AD018B19DF81C0000F001009DF82A3060F344
S214002AE0000318E0C2F3074208E7120E06E7C2F337
S214002AF007421BE7120E19E7B16D02F8011B013BF6
S214002B00FAD29DF8293063F03F038DF829309DF8FE
S214002B102A3043F001038DF82A30BF4B5C60BF4B70
S214002B20BF4A9A6000244FF48071C3E900225961BD
S214002B301C82BC4BBC4A5961BC489A60C3E900225F
S214002B401C8200F045FCBA48BA4B03602146BA4BDB
S214002B50436000F0BBFCAEA3D3E90023B74EB84DEC
S214002B603060CDE900234FF0FF334FF0FF3200F026
S214002B70A3FF02224FF0FF31306800F0A7FF0DF1EF
S214002B80700A3C239422CDE91C321E9351469623AC
S214002B9030682294CDE920441F9300F05DFD306834
S214002BA02C70294600F0C1FF28B1012330682B7035
S214002BB0294600F0BAFF984C3068DFF81C9301F005
S214002BC04DF8B4F900202978306800F011FC014671
S214002BD0306800F092FF6468002C40F0E5814846BB
S214002BE0FDF7C0FCB37B64F30003B373954B964CC0
S214002BF0964DDFF8E882202783F801735C2283F87D
S214002C000473002183F8067304F1080083F8077341
S214002C1083F8057383F8087383F81D7306F0E4F9E8
S214002C2042F21073E3608A4B8A4AC4E9005342F2C8
S214002C30015323814FF49073338401231370864D20
S214002C408DF814300022C8F800201B222A800DF1CF
S214002C50150105AA3E20FEF785FA11230DF1130291
S214002C600FA936208DF81330FEF77CFA0DF112020C
S214002C70514639208DF81270FEF774FA90BB774BE8
S214002C809DF8132018681B791C908AF80430002AD7
S214002C9000F093811B2A28BF1B22531D8DF812308B
S214002CA00FA9531C0DF175008DF8733006F08EF9E0
S214002CB014A8FDF757FC6A4A9DF8123012882AF8C5
S214002CC0032024A99A1C51FA82F20021149802F8D3
S214002CD0201C0933BDF8541042F81F0C22F81B1CA8
S214002CE08DF8123020230DF1110214A93A208DF828
S214002CF01130FEF737FA48B95A4B5A8B1B7F8DF8BE
S214002D0052300323ADF850208DF81130564B5748FB
S214002D1000220227C3E90022554B03600771FDF726
S214002D2029FE5448544B0360102303720771FDF7C5
S214002D3027FF5248524B0360524B0771C36007721D
S214002D400782CDE900373B4690E806001430FDF7D1
S214002D50A5FD9DF81310002900F03A810FA8FDF795
S214002D6039FF4948494B036010270771FDF702FEFB
S214002D704748484B484A03604FF6FE7B08230372D9
S214002D80C260A0F810B00771FDF7FAFE4348444A47
S214002D9002600C220272434AC260A0F810B00771AB
S214002DA0FDF7EEFE4048414A02604FF0020B404AF3
S214002DB0C26008230382077180F808B0FDF7E0FEC2
S214002DC03C483D4B03603D4BC360012303820771C3
S214002DD080F808B0FDF7D4FE39483A4B03603A4B0A
S214002DE0C3604FF6FE730382077180F808B0FDF7E4
S214002DF0C7FE3648364B0360364BC3604FF6FE734D
S214002E000382077180F808B0FDF7BAFE68E000BFDD
S214002E100855005100000000940100206C0C0020B2
S214002E20840C0020540B00206C0B00202093000024
S214002E30F4110020D10E0000E8110020C41100207B
S214002E401400002000E100E0DC000020D6BE898EE1
S214002E5055555500840D00208601002091910000F4
S214002E609B91000024920000DC0600209C130020AA
S214002E709E9100001C050020A19100000007002084
S214002E80A491000042920000BC130020A79100000D
S214002E9074050020B891000035170000CC0500200E
S214002EA0C99100006D1A000014040020DA91000099
S214002EB07492000024060020EB910000E4920000CB
S214002EC06C040020FC91000091020000BC0300206E
S214002ED00D920000A9090000CC110020B8030020C4
S214002EE0B14BB24A1A604FF6FF729A809DF81220D4
S214002EF0202A05D8931DAE486375514606F066F83D
S214002F009DF81120202A06D8931DAA4884F83D3043
S214002F1014A906F05BF8FDF7BDFF227C617CB2FACF
S214002F2082F35B0963F30001237D617462F303039C
S214002F30B27B02F0010262F386132375637D0BB940
S214002F40062363759C4BB9F80410B068C4F81600E5
S214002F50998094F83C30042161F3030362F38613EE
S214002F6084F83C3094F83D3013B9062384F83D309D
S214002F70924BB068B9F80420C4F83E009A80FDF77A
S214002F80E7FF8F4E8F4B1B782BB1DFF848924846F1
S214002F90FDF7DAFAF8B98C4A136923F004031361D3
S214002FA030BFEFE72246AAE52068B060A288A37982
S214002FB089F80630A9F8042018E608238DF81230A0
S214002FC0824B1A889B78ADF875208DF877306FE6BF
S214002FD07E480321C3E6EFF3108472B600231A4638
S214002FE00DF119014846FDF730FD2046FEF722FB9D
S214002FF09DF8193013B10023C8F80030D8F8002027
S214003000EFF3108472B6C2F501739BB232440DF131
S21400301019014846FDF719FD03462046FEF70AFB50
S214003020D8F8000018440328C8F80000AFD9348840
S214003030231D9842ABD307D8708804284FF00003AE
S21400304006D0062800F078810023C8F800309EE7F6
S21400305032796B8004F1FF3A122A1FFA8AFA18D8DE
S214003060012A19D9931E5A4F102B15D8DFE813F0F2
S214003070160014002C00140046001400F100140082
S2140030807A00140014001400140014001E0114002A
S214003090C400522A00F0CA800622A4E0BAF1020F49
S2140030A040F04881B6F805400022B4F5007F28BFFE
S2140030B04FF400740323114650463B70A7F80140B6
S2140030C0FEF704FB2C80BFE7BAF1040F40F08B80BC
S2140030D0B6F80540A0B2FDF789F860B1027A7C80A8
S2140030E0022A4FF005010CBF012302233970416804
S2140030F07B70032055E06C800A2274E0073CDFF802
S214003100D8B0CDF800B0A4B20194B6F80710B6F85F
S21400311005000223ABF10202FDF77CFD4FF6FF7AB5
S2140031205045044604D17368C3F30F236B80E3E76E
S21400313000230130CDE90033ABF1020202235146F1
S21400314080B2FDF767FD50451CBF00F1FF3080B22E
S21400315007233B70A7F80140A7F80300002211469A
S21400316004201EE0BAF1020F40F0E480B6F8050035
S214003170FDF73CF8002855D0037B99072ED52B8801
S214003180013BADF81A300DF11A02B6F805000BA98E
S214003190FDF7DEFB024610BB0B23BDF81A200B9989
S2140031A03B70FEF793FA4FE7E4060020DC060020AB
S2140031B0F800002020010020F20000201A01002064
S2140031C0B4010020D806002000ED00E09791000032
S2140031D08A010020540B0020BF010020524673686D
S2140031E0C3F30F236B805B4B3079698858700124DA
S2140031F01C7059801A71B1E7B6F80500FCF7F6FFA7
S21400320080B1037B1A070FD5E21E92B25249B6F878
S2140032100500FDF767FB02460028E0D113233B704C
S2140032200146BEE70122DAE70322D8E7B6F8050032
S214003230FCF7DCFF00283FF407AF037B5B077FF556
S21400324003AFE21E4449B6F8050092B2FDF74AFB0A
S214003250FAE6631F9BB2022B01D0102B6AD1002224
S214003260CDE90022DBB23D4AB6F80710B6F80500F5
S214003270FDF7D0FC4FF6FF73984204463FF453AF79
S2140032802B880DF11A02043B0BA9ADF81A30FDF796
S2140032905FFB024608B16C80A5E7BDF81A200B99C3
S2140032A07C8009233B70931C7B7022E7631F9BB2D4
S2140032B0022B01D0102B3DD14FF0000ACDE900AA19
S2140032C0DBB20393254AB6F80710B6F80500FDF7FB
S2140032D0A1FC4FF6FF7B5845039B04463FF423AF03
S2140032E00130CDE900AA1D4A594680B2FDF792FC8E
S2140032F02B8858458246A3F1060318BF00F1FF3A13
S2140033000DF11A020BA9204618BF1FFA8AFAADF86B
S2140033101A30FDF71DFB02460028BCD1BDF81A2066
S2140033200B997C8011233B70131D7B70A7F804A0BB
S214003330052036E7042256E7CDE90D33084B0B93FC
S2140033400BA902230C93FEF799F97DE6C2F8B43A6E
S214003350FFF72CBB8A010020BB010020BD01002026
S214003360110000200D4AD2F8E430D2F8E0109B009D
S21400337003F03C03C1F381110B438370D2F8E030B5
S21400338003F03F034370D2F8E830D2F8EC2003F0A5
S214003390F003C2F3031213430370704700FF0FE0FD
S2140033A0FEE7000008B5FDF779FE064B0649074A1A
S2140033B08B4201D3FCF7CEFE52F8040B43F8040B05
S2140033C0F6E700BF10000020BC00002000B200009E
S2140033D038B5044600F0BFFB0FCC044D0FC594E88B
S2140033E00F0085E80F00002038BD00BFE81400205D
S2140033F047F6FF739A42F0B562D0022962D8324E81
S21400340006EBC10016F831308578012DB8BF0125CE
S214003410012B4FEAC1070DD1C3785B1B23B141686E
S21400342031F91310914202DC5819C0B2F0BD013BCD
S2140034301BB2F3E740680028F8D0B0F9003093429A
S21400344004DBB0F902309342B8BF134682883E448C
S214003450FF2A08BFB0F90640767807BFB0F9081013
S2140034600122C824002218BF2821E41A94FBF1F494
S214003470224414B2721EA242A8BF22464FF47A77A4
S21400348000EBC2040132E188A46812B213FB0141CA
S21400349021EAE171B24201F5FA71B1FBF7F104DA03
S2140034A000EBC204A4888C42EAD200EBC20232F8D7
S2140034B0040C884228BF0846A84238BF2846B4E70E
S2140034C0FF20B3E70020B1E7E814002037B5044634
S2140034D0019178B10A4D2B787BB90A4B186000F041
S2140034E08DF82046019900F07AF8031E18BF0123D4
S2140034F004462B70204603B030BD0024FAE700BF18
S2140035000C150020081500200846114600F08AB861
S214003510F7B5124D04466E680F4600200121CDE92E
S2140035200032B047DDE90032064604B10C342046CE
S214003530394604F0C3F8044618B92B6801209847AA
S21400354004463EB100F0CEFB00B91CB100216B680A
S21400355008469847204603B0F0BD00BF2400002070
S214003560F7B5114D01926B6804460F460020012105
S2140035709847019A064604B10C342046394600F0B6
S214003580A9FA044618B92B680120984704463EB1AC
S21400359000F0A8FB00B91CB100216B6808469847EC
S2140035A0204603B0F0BD00BF240000207047000096
S2140035B0431E033306D8044B984228BF1846642897
S2140035C038BF6420704700BF40420F00431E012BE7
S2140035D003D9031F5842584170470120704738B539
S2140035E004460D46002100F086FA2946204603F0E0
S2140035F0AFFE00280CBF2046002038BD10B504469C
S21400360003F0CEF944B1054AD4F88430002B08BF45
S2140036101346034A136010BDA36FFFDEAD350000EE
S2140036201C00002010B50C4603F0CCF91CB103F0CA
S2140036301FFA0128FBD1034BBDE810405B68002150
S214003640032018472400002000B10C3003F07CBA99
S21400365000B10C3003F08EBA08B502460868FFF7D2
S214003660A7FF08604868FFF7A3FF48608868FFF771
S2140036709FFF8860C868FFF79BFF0B69C860581CEF
S21400368003D00C48834228BF03460B614B69581C85
S21400369003D00848834228BF034688694B61FFF77A
S2140036A087FF886102B10C32BDE80840104603F07F
S2140036B0BFBE00BF40420F002DE9F04F036F83B03E
S2140036C080460E4613B103898B4246D0D8F86C70FC
S2140036D0002F46D0BC68002C43D0F968002940D0A3
S2140036E0D8F880300193002B3FD04FF000094D46AC
S2140036F0CA46A8F10C0B00E0BC68C5EBC50204EB9B
S21400370082040135E289B24216D8228AB24258466D
S21400371012D3B4F91210B8F900C18C45A24601EADA
S214003720E17253DD98F8B810FFF762FE98F80420AF
S214003730824281464AD9F968A942DDD8BAF1000F1B
S21400374042D00023019C524619464046A047A8F89E
S2140037500860C8F870A088F8C190002003B0BDE8E3
S214003760F08F032003B0BDE8F08F99461D469A46B9
S214003770A8F10C0BC5EBC50204EB8204E289B24249
S2140037801AD8228AB24217D3B4F9122047F6FF732A
S2140037909A4203D1A2464FF0FF09D8E702EAE27246
S2140037A098F8B8105846FFF723FE98F8042082428F
S2140037B0A2468146CBD9F9680135A94201D9BC6831
S2140037C0D8E7BAF1000FC2D10120C7E7A246B8E792
S2140037D02DE9F04FDFF8ACB1DFF8AC8185B00446D8
S2140037E0009116461F4604F03BF8BBF8005004F064
S2140037F041F800287AD1236FD8F8002093426AD087
S21400380003F036F901284FD1DFF880A1DAF800304E
S214003810002B5BD0E26E93426ED0D4F870C018686E
S214003820116810B1884200F08180DCF80020204644
S21400383003F0DAFC0023054601260193D4F88090B5
S2140038408DF80F70B9F1000F65D000220DF10F034F
S21400385011462046C84785B9E36ECAF80030236F84
S214003860C8F80030019B0BB9002E3AD0009BCBF86D
S2140038700030204603F0B0FA05468EB1B5FA85F062
S21400388040F2A3223321400900F0BEF93946204613
S21400389003F0B6FC394B216F1B68A4F10C00984767
S2140038A0284605B0BDE8F08F012003F08BF803F042
S2140038B0DFF80128FBD1324BDFF8D0A05B6800218F
S2140038C003209847DAF80030002BA3D1E36ED4F833
S2140038D070C01968A9E7002B92D0009B9D428FD13B
S2140038E077BB0025284605B0BDE8F08F0023C8F852
S2140038F0003003F0B7FF7EE7D8F80010D4F870C0A9
S21400390000298CD061458AD1009BEB1A18BF012391
S2140039100193002592E7217994F8C130994228BF97
S21400392019463A46204603F005FA94E7D8F8001000
S214003930DCF8002011B10968914210D0596876E78A
S214003940002ECED0D4F8805001228DF80F205DB125
S21400395000220DF10F0311462046A847C1E70023B9
S214003960019301261D4669E7217994F8C1309942F2
S21400397028BF1946204603F0DDF9B2E71C000020F8
S2140039802400002010150020181500201415002013
S214003990F8B505460E46FDF719FB3146074628469C
S2140039A0FFF78AFE044620B13846FDF743FE204660
S2140039B0F8BD0346024631462846FFF709FF04468F
S2140039C03846FDF737FE2046F8BD00BFF8B5064678
S2140039D00C4659B30B6843B11B68013326D0CB683D
S2140039E01BB18B68003B18BF01231846612241219A
S2140039F000F00AF9204600F09FF9002386F8C4304C
S214003A00C6E91B43E7684FF6FF724FF01C0CD8B2AE
S214003A1087420DD815460C4A002313600B4A2946E8
S214003A2030461360FFF7B4FF2846F8BD0023DCE7F6
S214003A30A1680CFB0011CD89954202D2002DEAD078
S214003A402A460133E3E700BF1415002018150020AE
S214003A50008970470A7838B505461046FFF7B6FD68
S214003A6060B14C782046FFF7B1FD38B122435307CA
S214003A7004D42846BDE8384003F098B8012038BD85
S214003A8000B10C30FFF7E6BF10B504460878FFF724
S214003A909DFD58B14A781046FFF798FD30B1042ACC
S214003AA004D02046BDE8104003F0B8B8012010BD91
S214003AB000B10C30FFF7E8BF30B4DDE9024500B1D5
S214003AC00C30CDE9024530BC02F028BF00B10C3006
S214003AD003F020B837B504460D460192FFF758FFAD
S214003AE038B9019A2946204603B0BDE8304003F0B5
S214003AF00DB803B030BD03F0C5BE13B504460020B4
S214003B00019100F017F954B1D4F88C3053B90199EB
S214003B1004F10C0002B0BDE8104003F02AB9D4F856
S214003B208030FFDE022002B010BD38B5044648885B
S214003B300D4600F0FFF84CB1D4F88C304BB929464E
S214003B4004F10C00BDE8384003F0B2B8D4F8803079
S214003B50FFDE022038BD00F0EEB838B505460C464C
S214003B60FDF734FAA9696B690C4023436B61FDF7D6
S214003B7061FD00200CB9002138BD4FF40071FBE751
S214003B8000B10C3003F0C9BA00B10C3003F0E1BA52
S214003B9007B54FF400730A49ADF806300DF106027A
S214003BA0FFF7F2FFBDF80630B3F5007F05D1022817
S214003BB008BF002003B05DF804FB0120FAE700BF51
S214003BC01C1500200846114603F0BCB900B10C30A5
S214003BD003F090BA38B51546044600B10C3411B15E
S214003BE0204603F0D3FA25B12046BDE8384003F05E
S214003BF0CFBA38BD024B1960024B1860FEE700BF13
S214003C00200000202017002008B550B90548064BB4
S214003C1001601A60054B1A68054B1A601868FFF7B2
S214003C20E9FF08BD200000201C1700200815002012
S214003C3020170020034618B15B7B0C3013B10847F1
S214003C405B78FFDE0220704710B5044603F06CFE7A
S214003C5020460321BDE8104002F020BF00B10C3022
S214003C60FFF7F2BF0149FFF7E5BF00BF017900008B
S214003C700149FFF7DFBF00BFD978000037B54378AA
S214003C8005460C46BBB103F0D3FE616801900246C0
S214003C90284603F053FE206890FAA0F0000A03F0CE
S214003CA005F8A17A2089019A81F0010103F092FEBD
S214003CB0002003B030BD0220FBE71FB500B10C307A
S214003CC0CDE90112ADF80C3001A99DF818308DF839
S214003CD00E30FFF7D3FF05B05DF804FB00207047F9
S214003CE000207047014B1878704700BF241700204B
S214003CF0431C08D00449D1F83C311B0C1B0480B28D
S214003D000343C1F83C3170470040084010B50446F4
S214003D1008680A46FFF7ECFF236F4BB15B693BB1BF
S214003D201168013104BF6FF00101116012681A605A
S214003D30002010BD704770476C2231210120FFF72C
S214003D4063BF38B50D46044600F034FFAC4042F27F
S214003D50107364095C436423B0FBF3F0B4FBF0F02B
S214003D6038BD0000034B1A689B88026083800020E1
S214003D70704700BF320000200F4B0228D3F888316E
S214003D8004D183F40010C0F340507047012805D1D9
S214003D9013F4400F0CBF01200020704750B9074AAB
S214003DA0D2F8D40010F0010005D083F48000C0F3F0
S214003DB0805070470020704700400E400081E00FA2
S214003DC00B4B5B88B3F5E16F8BBF5A23C823502299
S214003DD0782298428CBF172310230B70054B1B7854
S214003DE023B1904294BF00200120704718467047C8
S214003DF0320000203000002013B5234B1B78032B25
S214003E0004463ED00DF10701FFF7DAFF1E2C8CBFEB
S214003E101E491F499DF807204FF001038CBF01245F
S214003E200024C1F8083170B1194B4DF60171C3F882
S214003E300411120203F1007342F44042C3F8042155
S214003E40144BA3F8E420134991F8E82022F001026D
S214003E50024322F0020242EA4402D3B20E4A81F83A
S214003E60E83012786AB9B1F8E420A1F8E62023F029
S214003E70040242EA800323F0080343EAC40381F8FD
S214003E80E83002B010BD00BF3200002000400846F7
S214003E9000400844001F002127170020084B094A4D
S214003EA0D3F88831DB4303F4FE1343F40053B3FA2C
S214003EB083F30E33A3EB4313013B1370704700BF2D
S214003EC000400E403A00002001280CD0022802D004
S214003ED020B100207047054B18787047034B1878C0
S214003EE00430C0B270470720704700BF3A00002079
S214003EF030B51F23B0FBF3F35C1CE5B2C3EB4313F2
S214003F004FF0FF34AC40C01AE4430130E4B2C0B214
S214003F101460086030BD00002DE9F743404E414F65
S214003F2096F800901546404AD2F8D820B9F1010F0D
S214003F300446884607EA020706D147EA006788F87B
S214003F40000000232B6052E0384A1278904228BFC7
S214003F501446002B14BF0423002323440B708CB399
S214003F60013CE4B24FF030632B606A46204601A95C
S214003F70FFF7BEFFDDE900302D4A98F800C0127842
S214003F8047EA006747EA833747F47F5747F0080752
S214003F90D2B1284A2849B3FA83F3B9F1020F18BF01
S214003FA00A46202BC3F11F0012D0135CD9B22A6830
S214003FB022F07F43BCF1000F0CD143F0306343F096
S214003FC00403BFE71D4BCFE7FF214FF0FF30EEE7BE
S214003FD0FF21ECE7013003D0481EC0B2FD281BD9F4
S214003FE022F07F4222F0040242F07F422A6072886A
S214003FF0B2F5E16F8CBF5A22C82227F47F5794424D
S21400400027F008079ABF380A00F47F5043F6C870B6
S214004010384303B0BDE8F08343EA0163CFE700BF4F
S214004020320000203F00C0E0001F00213A000020C0
S2140040302A170020B083E00FB883E00F0400000BBF
S21400404073B50446C820FFF7D7FE2C4B2C4D1878C6
S214004050032801D0FF2C03D1FF20287002B070BDCA
S21400406001282CD1072C204628BF072001284FF016
S214004070000301AA0DF1030138BF0120FFF74CFF32
S2140040800446204B204E019AC3F85821C6F8D84063
S2140040909DF803002870FFF7AFFE019A130203F4A1
S2140040A0E06343EA1263194AA6F8E03012781AB9B8
S2140040B0C6F8DC40A6F8E2309DF80300CEE790B9DB
S2140040C0042C14D803460646201A01AA0DF1030153
S2140040D0C0B2FFF721FF4FF4800304465EB10C4ADE
S2140040E0C2F80831CDE700231E461846ECE7012348
S2140040F01E460420E8E7074AF2E700BF3200002029
S2140041003100002000400840001F00212717002033
S214004110004008460040084408B500F0B3FF094BCD
S214004120094A002808BF1A46136823F47F115B0863
S21400413003F4FE130B431360044B4FF00072DA6176
S21400414008BD00BF18410840004108400040084034
S21400415008B500F097FF064B4FF4001228B1C3F8DD
S21400416000214FF000621A6208BDC3F81821F8E774
S21400417000400844014B1868704700BF2C17002009
S21400418070B505460E46C0B201F00F01FFF7D9FD27
S214004190C6F303110446C5F30720FFF7D2FDC6F3A6
S2140041A003210444C5F30740FFF7CBFD204470BD50
S2140041B0D0F81031012B38BF01232DE9F0479A467D
S2140041C0444B454F9B69454E454D03F4E073A3F5BC
S2140041D0C072804643485142514102685245424AA5
S2140041E00FD114788C420CD198F8B8C03C78A4450E
S2140041F007D198F805C03478A44502D1A888BDE850
S214004200F087B3F5C07FC0F800A011704AD1D8F887
S214004210744024B12368082B58D994F838400F21ED
S2140042202046FFF78EFDBAFA8AF3B0FA80F29B1AA0
S214004230002BC4BFC3F10F09D840264BD8BF4FF0A0
S2140042400F0982454FEA0440C3F8BC0003F18063BF
S21400425040F6FF7238BF09F1FF39C3F8B82003F102
S21400426000734FEA0921C3F8B810FFF789FFA8804A
S21400427000F0A0FC09F01F094FF4FA7304FA09F4E1
S2140042805C4341F66A03B0FBF3F0184BB4FBF0F462
S2140042900A2044431C6098F8B8303B7098F8053004
S2140042A03370ABE798F8B830022B06D1104B1B786A
S2140042B0002B14BFC8249624B1E7012B08D00C4B62
S2140042C01B78002B14BFF024B424A8E70024A6E72C
S2140042D03224A4E70060084039000020380000209F
S2140042E0320000202C000020251700202C1700206C
S2140042F02A170020FF290DD00F4B1048C3F8500195
S2140043000B04090503F4E02301F0F87119430C4B84
S214004310C3F85011FF2A0DD0074B40F2F711C3F82F
S2140043205011130103F4F87302F007021A43044B0A
S214004330C3F85021704700BF004008440000F70152
S21400434000400846F8B5144B1D6805B10C352846E4
S21400435000F066FE114F124E3B78C4B2A34201D164
S2140043603378A3B1092C13D80E4B012C195D05D157
S2140043700D4B1B78012B01D141F0400101F00F02DB
S21400438028460909FFF7B6FF00233C703370F8BDD6
S2140043900024FA21F2E700BF0815002028170020A5
S2140043A029170020D89300003200002070B504467C
S2140043B000F0A8FB142200213148324E04F014FE0F
S2140043C0314B25781A783149521B18BF01220A70E2
S2140043D022681A60C820A2889A80FFF70DFDD6F8DA
S2140043E0D8202B4B2B491340C6F8D8302A4BFF2237
S2140043F01A70D6F8D830294A23F08043022D23F0CD
S21400440017031AD14FF4EE40C2F824014FF48A4243
S214004410C1F82421012243F08043C1F82021194A23
S214004420C2F8D8301D4B0322C3F85821FFF78AFF85
S2140044301B4B01221A70002070BD012D4FF00700A3
S2140044400ED1C2F80C010620C1F80C011549C2F8BD
S21400445008114FF4404143F00303C2F80411DEE7AD
S214004460C2F80C010520C1F80C01C020C2F80801F2
S21400447043F08043812243F00403C1F80821CEE7CD
S214004480D81F0021001F002132000020291700201D
S2140044903F00C0E0004008463100002000400844CD
S2140044A026170020C10040002DE9F0472D4C2E4B6A
S2140044B0236000F07FFB4FF4FA7307464FF47A76DA
S2140044C0B0FBF6F629482A4A7343190E1B02181841
S2140044D041F10001002303F0D1FFA0F580730546EB
S2140044E0A36220B960222B21FFF78EFB01254FF433
S2140044F07A726A434FF0000A53465008310203F0BE
S214004500BDFF1C4B19601C4BB7F57A7F4FEA056858
S2140045108946044618604FEA152505D270222B21DD
S2140045205046FFF771FB01264FF47A71A8FB01088D
S2140045307308C01801FB05814FF0000341F100012C
S214004540324603F09BFF0D4B023419600C4B49F1C9
S2140045500009A408186044EA8974024B013C1C63F5
S214004560BDE8F087005008400211010020A10700B6
S21400457040420F0044170020401700203C17002040
S21400458038170020044B4FF00052C3F880211A6001
S214004590024B01225A60704700E100E000500840DC
S2140045A0054B0201134401221A604FF4807303FA8C
S2140045B000F0024B5866704700510844005008400F
S2140045C02DE9F0471446054688461E46FCF7FEFCD5
S2140045D0022C00F0AD800746FDF7C4FF664B674926
S2140045E0674AD3F8189091F815A0D2F8882B5FFA8E
S2140045F08AFA002A40F0A180FDF7B8FF614B624AB4
S2140046001B681068A3FB09314FEA8A7213F1004356
S21400461000FB092242EB0102D8F80010012C04BF6F
S21400462001318918A2EB010208BFC8F80010B2F1E8
S214004630804F0AF0030AC0F08580544BD3F800E0A0
S214004640534BD3F800804C4B21F04040D3F830C099
S2140046508A0F00234FF00041EEFB001308FB0033E7
S214004660634581BF01320CF1010CA3EB0C0302F091
S2140046700302A2EB0A02994588BF3F49DFF82CC126
S21400468084BF096B02F1FF3202F003020CF805202A
S214004690A3EB0900A2B1F10742BF3E4A41F61F71E3
S2140046A0D166B20742BF3B4A3B49D166710742BF5B
S2140046B0314A00211167320742BF2F4A0021116597
S2140046C02D4A05F1100102EB051E0901CEF80C314A
S2140046D0112353509369D16DA3EB0909814526D365
S2140046E04FF48073AB40194221D11CF80510002905
S2140046F037D1002C38D0F007136608D5254B27494C
S21400470041F61F7240F20110DA66C866DA66B10733
S21400471006D5204B2149204A2148DA66C866DA6663
S214004720720742BF1F4B01229A60330710D43846E7
S214004730FCF780FF0120BDE8F087D3F818900AF157
S214004740010A59E73846FCF775FF0020BDE8F087F8
S214004750212000F03BF9084B4FF480325A6038466F
S214004760E6E713663846E3E70F492D01294401259D
S2140047700D6038465366E6E7005008408417002070
S21400478000000A43381700203C170020401700207E
S214004790441700200050084400001F1F0050084621
S2140047A00000010100400840005108443017002076
S2140047B01030034B0001185800F00100704700BF8E
S2140047C0005008401030044B01F46001000141F035
S2140047D003011950704700BF0050084038B5FDF778
S2140047E0C1FE084A084B9D69547D084AD2F8882BBA
S2140047F0E4B20AB19D690134FDF7B8FE284604F01C
S214004800030138BD841700200050084000000A430A
S21400481008B5222000F0DAF8024B4FF480225A60E6
S21400482008BD00BF00500840064B1B68434303EB1F
S2140048308171054B1B68A3FB003013F1004341EB6D
S214004840000070473C1700203817002008B5FFF717
S214004850C5FFBDE80840FFF7E7BF10B50446FFF701
S214004860BDFF844288BF01F1FF31204601F00301FD
S214004870BDE81040FFF7D8BF0D4A10B5146820F009
S214004880404301464FF000420020E4FB0320094A63
S214004890126802FB0300084B1B6B98424FEA9171AB
S2140048A004D901330131C01A01F0030110BD00BF65
S2140048B040170020441700200050084038B5044632
S2140048C0FFF7C4FF0546FFF7C1FF431BA342FAD319
S2140048D038BD000038B5354B354C08220546C3F8C0
S2140048E0C82034480121FCF7EDFB334B1D702378BC
S2140048F0013B012B0CD8237CE07B01229A400C2143
S214004900302313FB001303F1884303F520431A609A
S2140049102A4B00225A67002D41D06368002B34D002
S21400492000F048F9626800EB5203B3FBF2F3013B78
S2140049301B0243F0F8032278022A28D0032A2AD042
S214004940012A2FD143F0020307221D494FF6FF70BC
S214004950C86701F10071CB67184B5A6753070CD52F
S214004960237CE07B01229A400C21302313FB0013AA
S21400497003F18C4303F520431A604FF080439DB14A
S214004980104AC2F89430002038BDF823D3E743F02D
S21400499001030522D9E743F005030122D5E72A469D
S2140049A0F823D2E70022D0E7074AEAE700400E469F
S2140049B04C17002000350A00481700200000084069
S2140049C0000008440040084600400844044BD3F862
S2140049D09430002BBCBF034BC3F88000704700BF69
S2140049E000400840000008404FF0006318B1034A3A
S2140049F0C2F894307047024AFAE700BF0040084603
S214004A00004008440020704708B5064B06491A685F
S214004A104FF00450920004F0D9FABDE8084000F0C8
S214004A20D5BB00BF1CAD000020940000C0F30062A0
S214004A30034B33F8123080B240EA0340704700BFA1
S214004A40E293000007B501A8FEF78CFC134B144A4E
S214004A50C3F8442148F2E672C3F838214FF40862DE
S214004A60C3F834210F4AC3F8A0200F4A4AF63F4144
S214004A70916002F580424FF0C07191620022C3F847
S214004A80FC200A4AC3F89C20094B7F225A6203F195
S214004A90007323225A6203B05DF804FB004008400E
S214004AA0C0E653517A27000F00300840806D63033C
S214004AB0003008440F4B002210B5C3F88820C3F816
S214004AC08C20C3F890200C4A0121D1605A6812F05D
S214004AD0706FFBD14FF00452DA6702F5FD520124E5
S214004AE01032C3F880401A66044B1B689847044B84
S214004AF0DC6010BD00400840004008463C00002036
S214004B0000400844034BFD22C3F8C8200122C3F826
S214004B10CC20704700400E4038B5FFF7F3FF1B4B24
S214004B201B481C4C1C490222C3F8C8201B4B1A68A1
S214004B3042B102EA0005A54204BF5D68156008336D
S214004B408B42F4D1164B174C0222C3F8C820164BE2
S214004B50D4F83C211A60FFF775FF144B0322C3F804
S214004B60D820134BC4F8943004F1C0640123C4F871
S214004B70943000F023FB4FF46073E3604FF0407313
S214004B80C4F8F830C4F8103138BD00BF00400E46F7
S214004B900000FFFF00000840B081E00F0080E00F3B
S214004BA000400E44004008404000002000600846D8
S214004BB00008700008B5FCF711FA044BD3F8103162
S214004BC0C3F308230133B0FBF3F008BD00400E40EA
S214004BD070B5044618B1012521684B1C00D170BD84
S214004BE00846FFF723FF0E0C16F0FE0F03460ED006
S214004BF0F6B2B200214600EB8606B34251F8040F27
S214004C0002D1131D1C44E7E743F8040BF5E7090F30
S214004C10606808340729DFD8DFE801F00A040811C5
S214004C200C0F1417C04303F1806301E01A6850406C
S214004C301860D1E7FFF742FECEE705FA00F003F171
S214004C40C063F5E705FA00F0EDE71A6830EA0202FD
S214004C50FBD1C1E708B5FFF7ADFF064B1B6D02465B
S214004C6098B228B1C3F30743D2085343B3FBF0F01E
S214004C7008BD00BF00600840064B5B68C3F30363D3
S214004C80984206D10448C36C23F0F00242EA0112AF
S214004C90C264704700400840001F002110B504465B
S214004CA0FFF7D8FFC4F30113022B05D0032B09D05E
S214004CB0012B00D1400810BDC4F3C4240134B0FB5E
S214004CC0F4F0F8E78008F6E700F03003202B10B584
S214004CD013D110F4E02FC0F302431CBFC0F3C4226C
S214004CE0B2FBF3F310F4C01F18BF5B00052B0DD802
S214004CF05C08FFF7D3FF604310BDC0F38213012B9F
S214004D0006D0042B14BF01240224F2E70424F0E7A3
S214004D100224EEE72DE9F84F0546FFF797FDDFF88A
S214004D20A0B080460026FCF751F9224B5968C1F323
S214004D3003639F1E012B8246FFB228D0052B28D086
S214004D40A3F10B01D1F1000949EB0109012F22D88B
S214004D50194B9968C1F389140A0448BF44EA0B0446
S214004D6024B26B1C03D0FFF771FDA0EB080650467B
S214004D70FCF760FC14F5007F14D1012F02D9B9F1BD
S214004D80000F01D0AE42CED32046BDE8F88F99463C
S214004D90DCE74FF00109094CE3E7512CA8BF4FF4BC
S214004DA0FE74F1E7C83C24B214F5007FF5DC6FF41E
S214004DB0FF74E9E7004008400070084000FEFFFF6F
S214004DC000FCFFFF024B012218619A60704700BF8B
S214004DD000200840084910B5D1F8703140B11C4693
S214004DE04A68D1F870319C42F9D1C2F3036202706E
S214004DF003F00F0010BD00BF0040084010B5FCF7E0
S214004E00E5F8084B1B6804463BB1984728B10022DA
S214004E1000204FF4806100F0CBFA2046BDE8104039
S214004E20FCF708BC601700202DE9F0411F4DDFF8A5
S214004E309080069FA2FB036C75196CF1000E00248F
S214004E40A84574EB0E0507D240F265120E212046E7
S214004E50FEF7DAFE02201BE00029FBD0C0F31300A9
S214004E6001EB5305B5FBF3F3A3FB0030DB0C43EA81
S214004E7040330F4803600F4B1A600F4B994209D11D
S214004E800E4BA6FB036103FB0C1189093960204613
S214004E90BDE8F0814FEACC4C0A462346F0044CEAC3
S214004EA0563103F0EBFA3860F1E700BF00C9E87648
S214004EB0641700206817002000F049020A3BB2DFA2
S214004EC00046C32338B5164D2B780C4623B9154B30
S214004ED01B6D03F03F032B70134BD3F894305B0627
S214004EE01CD540F24D53114AB0FBF2F25343A3F5E2
S214004EF046400C38504300F5C91000F5556028B9F7
S214004F0040F215322B21FEF77FFE01202B78084A4F
S214004F105343B3FBF0F02060002038BD0220FCE7CE
S214004F206F170020003008400040084000366E0131
S214004F30809698002F4B70B51C682F4B2F4E1D6B1C
S214004F402F4B1B68ED0254BFE31A1B192D4CB3FA06
S214004F5083F5B3F1804F88BF2646D5F102052A4C6B
S214004F6054BFEB400025A34288BF5B0803EB560402
S214004F70B4FBF6F4254E88BF0135B34204F1FF3486
S214004F8034BF0026012644EA862444EA05340C6031
S214004F9050B3B3FBF0F1642400FB11336343984233
S214004FA088BF01F1FF314B08581E072801F1FF3377
S214004FB04FEA530119D80F2B17D8C0B9012B94BF4D
S214004FC000230123124C2370124C0625C4F894507B
S214004FD033B1114B1B781BB1104B0224C3F894401D
S214004FE00B0243EA0013136070BD0023EAE70123B7
S214004FF0E8E700BF6817002000300840E06735008B
S21400500064170020C0CF6A003FBE4025401B5F13D8
S2140050106D170020004008446E1700200040084628
S214005020084B5B6B03F00700C3F3C20213F0380FA4
S21400503018BF5043C3F3821213F4E07F18BF5043E7
S214005040704700BF0030084070B505460C4651B1A9
S2140050500B6843B15B6833B11A68032A03D99C6AAC
S214005060640E204670BDFBF7B1FF2E6F2C6701461D
S2140050702846FFF7D5FF2E6704460846FCF7DAFAFF
S214005080EFE70000034BD3F8380180F01000C0F3C0
S2140050900010704700400840174B4FF4002210B530
S2140050A0C3F89420154C164BB0F1804F98BF1C46A1
S2140050B0144BD3F88039F3B1134B14481B6F04F527
S2140050C0F42404F59074B4FBF0F4033CE4B203F06B
S2140050D00703A34202D02046FDF74AFA0C4B1B7882
S2140050E04BB10C4B4FF47022C3F8942003F10073BD
S2140050F02404C3F8944010BD00400846C0CF6A00A0
S214005100E06735000000C64300300E4040420F0006
S2140051106C170020004008447FB50446FBF75AFF92
S2140051201B4B226806462C33586800933146A379F9
S214005130FFF77AFE054638BBA379012B14BF154945
S21400514015491022C1F83821206814495843FFF742
S214005150B9FE03AA02A93046FFF7ECFE0E4A43F654
S214005160FF53C2F8A4300B4B0299C3F8A4104FF4B7
S214005170EE611163039A1A632068FFF78DFF044BF4
S214005180A2889A630022DA63284604B070BD00BF86
S21400519000300840004008460040084450300840B0
S2140051A008B5044B01221A70034B1868FFF774FF0A
S2140051B0002008BD6C17002068170020024B402214
S2140051C0C3F89420704700BF0040084670B5114CE5
S2140051D00FCC86B001AD0FC5B42223680E482B60F5
S2140051E0002103F001FF802200210C4803F0FCFEA2
S2140051F00B4B0C4AC3F8F02002F040FF0A4B1B781A
S2140052002BB101AD0FCD034E0FC62B68236006B041
S21400521070BD00BFD81F00214C1F0021CC1E0021EE
S214005220001F00213F003700261700200A4B197880
S21400523001F0FF0229B10021197008499202C1F855
S214005240A020597801F0FF0229B10021597093027D
S214005250024AC2F8A43070479F1700200000084694
S21400526008B5FBF7B3FE104B1B78A3B90F4A1268BC
S21400527012F4843F0FD10E4B1022C3F894200B4B30
S2140052801B68DB050DD40A4B2022C3F89420BDE82A
S2140052900840FCF7CFB9074A1021C2F89410002B3B
S2140052A0EDD0044BF0E700BF8117002078170020F0
S2140052B00040084400400846044B00221A70044B85
S2140052C0197811B11A70FFF7CBBF7047821700200C
S2140052D08117002010B5FBF779FE0E210446032047
S2140052E0FFF7CAFC044B40F2012220465A62BDE892
S2140052F01040FCF79FB900BF0000084008B5032126
S2140053000920FFF7B9FC024B20229A6008BD00BFB7
S2140053100040084008B5FBF759FE244B4FF080527A
S214005320C3F88020BFF34F8FBFF36F8F4FF48072A8
S214005330C3F88020BFF34F8FBFF36F8F0222C3F8EE
S2140053408020BFF34F8FBFF36F8F1022C3F88020EB
S214005350BFF34F8FBFF36F8F2022C3F88020BFF3B9
S2140053604F8FBFF36F8F4FF00052C3F88020BFF30C
S2140053704F8FBFF36F8F8022C3F88020BFF34F8F0D
S214005380BFF36F8F4022C3F88020BFF34F8FBFF369
S2140053906F8F4FF00042C3F88020BFF34F8FBFF3EC
S2140053A06F8FBDE80840FCF745B900BF00E100E09C
S2140053B070B5084C01232370074B1E68074BD3E9D2
S2140053C0005332401940284002F0A0F90023237011
S2140053D070BD00BF801700207017002078170020CF
S2140053E02DE9F84FDDF828B003EA01080B9B0646C6
S2140053F00D4602EA000903EA0B0ABBF1000F40F073
S2140054006B81031F0B4300F02F81052871F1000309
S21400541080F0008150EA010300F0B981431E0B437F
S21400542000F03E81FFF776FFBD4BD3E9004724EA44
S214005430060427EA050744EA090447EA0807C3E919
S2140054400047B84BB84D1E68DFF8308326EA0B06D7
S21400545046EA0A061E60FFF703FFB44814F02A4F18
S21400546014BF48F202034FF40043B207C26E48BFAF
S21400547043F4005383EA020122EA0302EA66AC4AD6
S21400548081660B406503D36604F4802348BF4FF45F
S2140054908053200348BF43F48073E10648BF43F4BB
S2140054A00053A20648BF43F40073650648BF43F4A2
S2140054B0806320069F48A04DD0F80C2248BF43F4D6
S2140054C0006383EA020122EA0302C5F80C229B4A23
S2140054D0C0F808120B40B90507F40075C2F80C3284
S2140054E048BF4FF48025E20448BF45F48035A30347
S2140054F048BF45F48015A00748BF45F4001514F4CE
S214005500001F08D0D8F8000000B10C3002F092FA64
S21400551008B945F40025E10289498A4848BF45F4A0
S2140055200035FA0648BF45F480050A6A730748BF87
S21400553045F0040585EA020323F001031A400262DF
S2140055401D40CB61804B8148814A1D6216F0010FD9
S214005550804B18BF1346826E7D0748BF43F4001386
S2140055607D4D83EA020122EA0302AA667B4A41666F
S2140055700B4000F500509366C26B04F0010305F57E
S214005580005583EA020122EA0302EA63744A816351
S2140055900B402002D36348BF724BD8F8002058BF98
S2140055A0714B610748BF43F48063002A00F0EC802B
S2140055B092F8DD2022B114F4C06F18BF43F4807354
S2140055C06A486B4CD0F8EC10320748BF43F00043F3
S2140055D083EA010222F4A02211401340C4F8EC1022
S2140055E0C0F8E820634AC2F8EC30FBF7EFFC624BE9
S2140055F04FF080521A604FF480721A6010221A60C0
S21400560020221A604FF000521A6080221A60402250
S2140056101A603FE0A0F580630B4306D020F4806359
S214005620A3F500730B437FF4FDAEFBF7CFFC3C4BBA
S214005630D3E9004124EA060421EA050144EA090404
S21400564041EA0801C3E900414C4B1B68002B63D0BC
S21400565093F8DD3013B314F4C06F1FD0454B4FF4EE
S2140056608072C3F8EC2015E0FBF7B0FC2C4AD2E9B8
S214005670003123F0040343EA090341EA0801C2E9C2
S214005680003159EA080314BF3A4A394A4FF4806396
S214005690C2F8EC30BDE8F84FFBF7CCBF344BDEE782
S2140056A0FBF794FC1E4AD2E9003123F0010343EADB
S2140056B0090341EA0801C2E90031314A59EA080300
S2140056C04FF0010315BF93632E4902F1C062CB630E
S2140056D014BFD3639363DDE750EA01037FF4A2AE01
S2140056E0BBF1010F7FF49EAEFBF770FC0D4A13680A
S2140056F023F0010343EA0A031360144A4FF480635D
S214005700BAF1000F04D0536602F1C0629366C1E797
S21400571011498B665366BDE793F8D130FFDE00BFB4
S214005720781700207017002000000844000008408A
S2140057300000084600600840006008440060084614
S214005740004008400040084400400846005008401A
S214005750041C50000418500000500844005008462E
S214005760007008460D0A0A09090A0A0900100840CE
S214005770001008440010084600E100E0081500206C
S214005780007008400070084492F8D130C6E7BDE8C3
S214005790F88F00BF024B5868C0F3C000704700BFC8
S2140057A078170020024B186800F00100704700BF11
S2140057B078170020034B1B6813F4C06F14BF01203A
S2140057C0002070477817002010B50446FFF7A4F9AC
S2140057D0FFF7A0FD04F12C0002F07EFAFFF76AF94D
S2140057E0FEF762FEFEF7CEFE02F0B2FC072104F1E1
S2140057F0840002F0F5FC4FF440010020FEF7E2FFC3
S2140058004FF400110120FEF7DDFF02F00FFE20B975
S21400581040F276221421FEF7F7F9FFF7C1FCBDE847
S21400582010400120FFF756B8084B8022C3F88820A6
S21400583003F17E430822C3F88820054AD2F8CC3EFE
S21400584023F02003C2F8CC3E704700BF0040084655
S21400585000100021624BDB68DB0740F18280F0B568
S2140058600C4683B00546FBF7B1FB23790022022BDA
S214005870009206463BD1237B022B32D00320FEF754
S21400588097FF00286FD0A37B277B5649A26801921A
S214005890003B18BF0123012F0B7071D0524A534CA6
S2140058A0002313702278002A75D14D4D0420FEF790
S2140058B077FEEB6E23F0F85323F4F81343F05063AF
