S01A0000626C696E6B5F70776D5F626172656D6574616C2E7333370B
S113000000100020910400008D0400008D04000005
S11300108D0400008D0400008D0400008D04000098
S11300208D0400008D0400008D0400008D04000088
S11300308D0400008D0400008D0400008D04000078
S11300408D0400008D0400008D0400008D04000068
S11300508D0400008D0400008D0400008D04000058
S11300608D0400008D0400008D0400008D04000048
S11300708D0400008D0400008D0400008D04000038
S11300808D0400008D0400008D0400008D04000028
S11300908D0400008D0400008D0400008D04000018
S11300A08D0400008D0400008D0400008D04000008
S11300B08D0400008D040000392700008D04000029
S11300C08D0400008D0400008D0400008D040000E8
S11300D08D0400008D0400008D0400008D040000D8
S11300E08D0400008D0400008D0400008D040000C8
S11300F08D0400008D0400008D0400008D040000B8
S11301008D0400008D0400008D04000010B5054C22
S1130110237833B9044B13B10448AFF300800123AF
S1130120237010BDF010002000000000B03000006B
S113013008B5034B1BB103490348AFF3008008BD66
S113014000000000F4100020B0300000154B002B1C
S113015008BF134B9D46A3F5803A00218B460F46FA
S11301601348144A121A02F0F7FC0F4B002B00D06C
S113017098470E4B002B00D0984700200021040024
S11301800D000D48002802D00C48AFF3008002F0A7
S1130190BFFC2000290000F049F802F0A5FC00BFD4
S11301A00000080000100020000000000000000013
S11301B0F01000202C1100200000000000000000BE
S11301C000F002B800F006B8014800F08DBA00BF94
S11301D06810002070B5124D124E00243046295D7F
S11301E000F08AFA062002F05BF914B9BE2002F08E
S11301F057F90134642CF1D10B4D0A4E15F8011D49
S1130200304600F079FA062002F04AF9642C02D153
S1130210BE2002F045F9013C14F0FF04EED170BD9C
S113022000100020681000206510002008B502F0BE
S1130230A7FAFFF7C5FF02F0B0FAFFF7C3FFFAE72A
S11302407047000008B50421112000F02BFF0121A4
S1130250084800F011FB0221074800F023FF0221A7
S1130260064800F01FFF0221054800F01BFF002094
S113027008BD00BF30253E0002001E000300200020
S11302800500240008B51F4B01225A641E4BDB6C89
S11302901B0E0FD11D491E484AF6E8520A60026837
S11302A042F0040202600B601A4A136843F40053DC
S11302B0136001E0012BF7D0174A136A23F44413A7
S11302C043F488131362A2F58042136843F48073E5
S11302D0136002F546522432136843F4F843136062
S11302E001F088FF00F042F801F018FF01F03AFF36
S11302F001F06CFFFFF7A6FF01F026FFBDE8084000
S113030000F026B800000E40B081E00F90310E409E
S113031098310E4064310E4000400E4000F008B8A1
S113032002F038B87047704770477047704770479D
S113033007B542F2107300936946002303488DF811
S1130340043000F057F903B05DF804FB6810002096
S113035008B50121044800F08FFAFFF771FFBDE8EA
S1130360084000F015B800BF00350A00012101481B
S113037000F082BA00350A00014B02221A6070476D
S1130380ECA10046014B02221A607047ECA1004424
S113039070B5384D384E0FCD86B06C460FC495E815
S11303A00300364D84E803000121354800F064FA67
S11303B030460121012400F05FFA324B0293694672
S11303C028468DF80E4001F045FE23460422002104
S11303D00A2001F03DFC2246002302210A2001F0FC
S11303E037FC234604220721052001F031FC0422B6
S11303F0214623460A2001F02BFC234BAB670B2339
S11304006B674FF4487002F0D3F9FFF7BBFF142079
S113041002F0CEF9FFF7B0FF232002F0C9F9FFF78D
S1130420B1FFB921284601F06FFEFFF7A5FF0023B5
S11304301A4619460A2001F00BFC00231A46022131
S11304400A2001F005FC234600220721052001F0C3
S1130450FFFB2346002221460A2001F0F9FB28462F
S113046001F0B0FD0021A9673046696700F004FA85
S113047006B070BD842B0000006204000008014037
S113048000350A0000127A001E1D0012FEE700006B
S113049008B500F069F8064B0649074A8B4201D3B8
S11304A0FFF754FE52F8040F43F8040BF6E700BFBD
S11304B000100020F0100020B43000000048704705
S11304C000F04902104AD2F8943003F00703023BCB
S11304D0032B13D8DFE803F00C14020E0B4B1B683C
S11304E0D2F80001C0F304200130B3FBF0F07047F0
S11304F0074BF4E7074B1B685B08F1E7054BEEE796
S11305004FF40043ECE700BF00400E407C10002095
S1130510741000207810002008B5FFF7D3FF054BB6
S1130520D3F80831C3F308230133B0FBF3F0024BD3
S1130530186008BD00400E4070100020014B186880
S1130540704700BF74100020054B1860054BD3F8AA
S1130550943003F00703022B01D1FFF7DDBF70478E
S11305607410002000400E40044B054A9A60D3F8F2
S1130570882042F47002C3F88820704700ED00E040
S1130580000000004FF4004070474FF47A70704749
S1130590014B1868704700BF7C10002008B50E4B53
S11305A0984213D009D8A3F58063984212D00B481F
S11305B05B2100F0C3F8112009E0094B984207D0F1
S11305C003F580639842F2D1064800E0064808BD6E
S11305D00648FCE70648FAE7008401409C2B00002B
S11305E000A00140003204000012040000220400B4
S11305F0000204002DE9F043044689B000680E4669
S1130600FFF7CCFF0121074600F036F901213348FA
S113061000F032F93379A1796079042201F018FBF2
S11306200023CDE90133039303238DF80A3001231A
S11306308DF8093002238DF805303379217920684B
S11306405A1E5342534101AA8DF80E3001F04EFC5C
S1130650D4F800802379E5794FEAC30900F0C8FE95
S1130660D8F8342005FA09F51F23554003FA09F395
S11306702B405340C8F8343000F0BEFE384600F03A
S11306808DFA3568164B2668B0FBF5F59E4205F1E8
S1130690FF350BD003F580639E4207D0B5F5803F4C
S11306A004D340F276410F4800F048F8F56123790D
S11306B02568063305EB031300245C600D222146F4
S11306C004A802F049FA0123284604A98DF8103041
S11306D001F0ACFB204609B0BDE8F08300350A0008
S11306E000A00140172C0000037901229A400368FE
S11306F003F1C0631A63704770B504680D4BE56974
S113070006799C4205FB01F54FF06401B5FBF1F558
S11307100BD003F580639C4207D0B5F5803F04D32A
S113072040F2E721044800F009F804EB0614E566FA
S113073070BD00BF00A00140172C0000FEE70000C0
S11307400C4B984210D90C4B984210D90222012329
S11307500A490B600A49D1F8003123F0807343EA57
S11307600263C1F80031704700221346F0E701220A
S1130770FBE700BF0048E8010090D0034000C843F5
S113078000400E4038B5104B104C5B68C9B20023D2
S113079004EBC30215798D4203D154F833508542DA
S11307A010D20133052BF3D141F29E310848FFF7F3
S11307B0C5FF032204494B6823F0407343EA0263F4
S11307C04B6038BD5279F5E700000E40802D0000E3
S11307D00A2D00001F2810B5044604D940F22F1139
S11307E00248FFF7ABFF0120A04010BD902C000091
S11307F038B5074C41F67133256C2364FFF75EFE70
S11308000021FFF7BFFF0DB10023236438BD00BFF3
S113081000000E40044B1B685B0603D4034A1368B4
S1130820002BFCD1704700BF3C300E40C800C643CB
S113083008B5FFF7EFFF024B5868C0F3014008BD4D
S113084000300E40044BD3F84421D20703D4D3F82C
S113085040211042FBD1704700400E4038B5054C92
S113086041F67133256C2364FFF78CFF0DB100232F
S1130870236438BD00000E40C0F30322013A38B5AA
S11308800546092A21D8DFE802F0272A202005138B
S11308901620191D134C0020C5F3043508B1FFF7C9
S11308A0D1FF04F1047405EBC404A400216038BD35
S11308B001200D4CF0E710200C4CEDE74FF4803094
S11308C00B4CE9E700200B4CE6E741F63B110A48E4
S11308D0BDE83840FFF732BF0020084CDCE70020B9
S11308E0074CD9E7B0400E40E0400E40E8400E40CF
S11308F0F0400E4050410E400A2D000000400E40D2
S1130900C0400E4008B5C0F30313013B092B60D867
S1130910DFE803F0050B0F195F5F1F233C532E4BD9
S1130920D3F80001C0F3042008BD2B4BD3F8140105
S1130930F8E7294BD3F80001C0F300600130FFF75A
S113094049FF0138F0E7244BD3F80C01C0F3082029
S1130950EAE7214BD3F80801F8E7204B984209D085
S11309601F4B98420CD041F6DF211E48FFF7E6FEEC
S11309700020D9E7184BD3F8200100F00F00DEE780
S1130980154BD3F82001C0F30110D8E7164B984259
S113099008D003F5B01303F58053984206D041F60E
S11309A00331E2E70C4BD3F82801ECE70A4BD3F808
S11309B02801C0F301200430C1E70C4B984205D153
S11309C0054BD3F8300100F00300ADE741F61231D6
S11309D0CBE741F63731C8E700400E4080061600E9
S11309E080162E000A2D000090171A00A00914008A
S11309F008B5FFF787FF013008BD000000F00F00C5
S1130A00013808B5072856D8DFE800F00417265542
S1130A103A3E55462D4BD3F8943003F00703023B7E
S1130A20052B08D8DFE803F04E28260307050B2022
S1130A3008BD0C20FCE70520FAE7244BD3F880001E
S1130A4000F007000228F3D004283DD0012808BF95
S1130A50032018BF0120EBE71C4BD3F8843003F0CC
S1130A600703013B032B09D8DFE803F00604022E39
S1130A700620DDE70220DBE70320D9E70120D7E7E2
S1130A80124BD3F88800DBE7104B1B6F13F0010FF8
S1130A9014BF09200720CBE70C4BD3F85C3103F0DB
S1130AA03003202B0ED0302B03D0102B08BF07208F
S1130AB0CFE70820BCE7064841F68B61FFF73EFE0E
S1130AC00020B5E70420B3E70A20B1E700400E4058
S1130AD00A2D00002C4B984210B504460AD02B4B2B
S1130AE0984207D02A4B984204D041F29E412948AB
S1130AF0FFF724FE2046FFF781FF234B9C4211D0D1
S1130B00224B9C4212D0224B9C4213D1224BD3F84D
S1130B10804004F00704042C2ED8DFE804F02B12E4
S1130B20161E1A001C4BD3F88440F2E71A4BD3F874
S1130B308840EEE7044641F2CD411648FFF7FEFD3A
S1130B40E9E7BDE81040FFF71DBDBDE81040FFF721
S1130B501FBDBDE81040FFF718BDFFF7B3FC0E4BF7
S1130B600446D3F80001C0F300600130FFF732FE01
S1130B70B4FBF0F4204610BD41F21F510548FFF7C5
S1130B80DDFD0024F6E700BF03002000050024007B
S1130B9002001E000A2D000000400E4038B500F48B
S1130BA07813B3F5B01F05467DD02AD8B3F5202FAE
S1130BB007D00AD8B3F5003F62D0B3F5802F54D0E4
S1130BC05BB9BDE83840FFF77DBCB3F5602F00F09A
S1130BD0878005D8B3F5402F58D041F66B2189E0C2
S1130BE0B3F5801F00F0A480B3F5A01FF5D15A48D7
S1130BF0FFF770FF594BD3F8303103F00303D840AB
S1130C003DE0B3F5101F69D012D8B3F5F01F45D0FD
S1130C10B3F5001F55D0B3F5D01FDED15048FFF710
S1130C2059FF4E4B0446D3F82801C0F3011043E0AA
S1130C30B3F5401F47D00BD8B3F5381FCDD1494881
S1130C40FFF748FF454BD3F82031C3F30113D6E730
S1130C50B3F5481F53D0B3F5781FBED1FFF732FC6C
S1130C6004462846FFF7C4FE28E0FFF72BFC3B4B65
S1130C70D3F80C31C3F308230133B0FBF3F038BDD0
S1130C80FFF720FC354BD3F80831F3E7FFF71AFCE4
S1130C90324BD3F81431C3F30423EDE73148BDE8F4
S1130CA03840FFF717BF2F48FFF714FF2B4B0446BC
S1130CB0D3F8200100F00F00FFF78CFDB4FBF0F037
S1130CC0DDE72748EBE72648FFF704FF234B0446FC
S1130CD0D3F82801C0F301200430EDE71E48DEE715
S1130CE02148FFF78BFE072822D009283FF469AF7B
S1130CF04FF493511D48FFF721FD0020BFE71C4826
S1130D00FFF77CFE0138072823D801A353F820F00D
S1130D10FB0C0000530D0000530D0000370D0000C4
S1130D20530D0000530D0000310D00003F0D000075
S1130D30104B1868A3E7BDE83840FFF7FFBBFFF787
S1130D40C1FB064BD3F80031C3F3042303FB0000BB
S1130D5095E741F29721CDE70500240000400E40BD
S1130D600300200002001E0006000E000A2D0000F1
S1130D70B800320080100020014B1880704700BF7B
S1130D8084100020013808B5032816D8DFE800F0E5
S1130D90020F070C0C4B186AC0F3080008BD0A4B7D
S1130DA0186900F07F00F9E7074B9869F9E7064BEB
S1130DB0D3F89C00C0F30A00F0E7044842F26461EF
S1130DC0FFF7BCFC0020E9E700400E400A2D0000BC
S1130DD0013838B50C46032861D8DFE800F0024139
S1130DE0192DB1F5007F04D342F28A612F48FFF731
S1130DF0A5FC2F4AC4F308041368002BFCD12D4A28
S1130E00136A23F4FF7323F001032343136238BDF1
S1130E107F2904D942F297612448FFF78FFC2649C1
S1130E2004F07F020B68002BFCD1224B1C6924F0D8
S1130E307F0414431C61EAE77F2904D942F2B261BA
S1130E401A48FFF77BFC1D4904F07F020B68002B56
S1130E50FCD1184B9C6924F07F0414439C61D6E7B1
S1130E60144DD5F890305B0704D542F2C1610F48A8
S1130E70FFF764FC6B6A23F0300343F010036B62EA
S1130E80296B0F4BC4F3C31203320F2A03EA010385
S1130E9028BF0F221C4344EA02742C63B7E742F2D2
S1130EA0DB610248BDE83840FFF748BC0A2D00006A
S1130EB06828C84300400E406028C8436428C843DB
S1130EC000F8FF0F022838B50D4604D042F2F36152
S1130ED01248FFF733FC124C636A13F0300F04D04E
S1130EE0202D18D0302D00D015B94FF4400305E063
S1130EF042F20E710948FFF721FC0A4BD4F8902006
S1130F0033EA0202FAD15B024ABFD4F8A0000120FE
S1130F10C0F3802038BD4FF40003EFE70A2D000032
S1130F2000400E40FF33E107022808B50CD129B177
S1130F30094B4FF48060C3F8A80059664AB10220F7
S1130F40BDE80840FFF7BEBF42F244710348FFF713
S1130F50F5FB012008BD00BF00400E400A2D000033
S1130F602DE9F04106460F46904604280DD8DFE8E7
S1130F7000F0038B181386004FF400724FF4807452
S1130F8008230921002F65D05BE042F2D851414883
S1130F90BDE8F041FFF7D2BB012402220023214621
S1130FA0F0E7002953D03C4C636A13F0300F45D16D
S1130FB03A4BDB6B5A0504D442F2E7513548FFF74C
S1130FC0BDFB636ADB0705D5636A23F0300343F096
S1130FD010036362042402230321314D2E4A2B445F
S1130FE014669B001A68002AFCD0B8F1000F23D0C5
S1130FF00D44AD002B68002BFCD0022E1CD1DFB1B8
S1131000254B596A11F001011DD0012220213046DF
S1131010FFF78AFF0220FFF7B5FE012206460021F2
S11310200220FFF79DFF31460220FFF7D1FE1A4B45
S11310301C662B68002BFCD0BDE8F081042402233D
S113104003210027C9E73046FFF73CFFE2E7082207
S11310500223032110480266012202FA03F3D0F8A6
S113106090201A42FBD1B8F1000FE5D001230A4ABF
S113107003FA01F1D2F890300B42FBD1DCE72022D5
S11310801024042305217DE7802240240623072120
S113109078E700BF0A2D000000400E4000300E40EB
S11310A08004F210112870B506460C462BD1042991
S11310B017D1FFF743FA0546D0B10021284600F0C6
S11310C08FFA06F00F06013E072E00F2F080DFE8EB
S11310D016F01C006C009F00EE008200B900EE00C8
S11310E0C700052904D1764B1D68764B9D42E4D890
S11310F0023C0A2C4CD8DFE804F0134E363D4B4B2F
S11311004B4B4452DD000025DBE7023C0A2C3FD860
S1131110DFE804F007422A313E3E3E3E37464900AE
S113112000250020042401221146FFF719FFFFF7D0
S11311305FFB0DB1FFF76EFB634B5C67FFF7ECF9E8
S11311400446FFF7BFF9FFF7FBFAFFF771FB01460F
S11311502046FFF783FB002D60D128460121BDE81E
S1131160704000F03DBA00255848FFF7E9FA022024
S11311700446D8E700255548FFF7E2FA0124032086
S1131180D1E741F64C715248BDE87040FFF7D6BA3A
S113119041F65171F7E7002501200324C3E7002538
S11311A003200524BFE70724C1E7062C32D141F60A
S11311B090714748474DFFF7C1FA4FF4FD51444839
S11311C0FFF7BCFAFFF77EF9FFF7BAFA424B0122A8
S11311D01A60032321E0062C404DEED0013C092C7B
S11311E02BD801A353F824F0411200001F12000071
S11311F02D1200003B1200003B120000C51100003C
S11312003B1200003B1200003B12000019120000C8
S1131210334DE3E72F4DE1E704232B6070BD01223A
S113122011460020FFF79CFE0223F6E70122114637
S11312301046FFF795FE0123EFE741F6CB71A2E7D5
S11312400023EAE7072C04D0092C06D042F255010A
S113125099E71D4B00221A67E0E71B4B0122FAE7CE
S1131260013C072C1ED8DFE804F0201D1D161D1DAF
S11312700F0403221449D1F85C3123F0300343EA0C
S11312800213C1F85C31C9E7012211460420FFF7BB
S113129067FE0122EEE7012211460220FFF760FEFD
S11312A00222E7E742F2B3016DE70022E2E742F2ED
S11312B08A1168E7FFF79CFA002507243CE700BF82
S11312C078100020002D310100400E400148E80153
S11312D00A2D000080400E400816C84388400E4086
S11312E084400E4010B504461120FFF787FB042804
S11312F004D142F273412548FFF720FA012200216C
S11313000220FFF72DFE63781BB9A3780BB9E378AD
S113131023B142F2B1411D48FFF710FA237C012B9F
S113132004D142F2B6411948FFF708FA184A217C61
S1131330536A23F00103022908BF43F001035362F7
S1131340144B21781960637AA18843EAC123D362DC
S1131350136BA07A217A03F07F630343E08843EAA6
S1131360C02343EAC11303310F2928BF0F2143EAE5
S113137001731363A37B617B1B0143EA0133E17BAC
S11313800B43217B43EA0143536310BD0A2D000044
S113139000400E40A004C84370B505461120FFF775
S11313A02DFB022804D142F231510E48FFF7C6F951
S11313B00D4E0E4BB26B2C7813401C436B7844EAF1
S11313C0C324AB7844EA0364EB7844EA0324B36BA4
S11313D0A34205D0002101220846FFF7C1FDB463F2
S11313E070BD00BF0A2D000000400E4080E4FFF8ED
S11313F0EFF3108072B6704700B962B67047EFF32E
S11314001180602383F31188704780F3118870473B
S1131410034B186880F04000C0F38010704700BF91
S11314203C300E4038B542EA032340F201129342A5
S113143005460C4630D0B3F5817F0DD2012B22D066
S113144035D3B3F5807F36D040F68E111E48FFF7B2
S113145075F9002213461CE040F20122934222D087
S113146006D8B3F5007FEFD1184BD3F870310DE0F7
S1131470B3F5407F23D040F201329342E4D1134BC1
S1131480D3F878310BE0114BD3F87431C3F307224E
S1131490DBB22B60226038BD0C4BD3F874311A0ECA
S11314A0C3F30743F5E7094BD3F87831EEE7074B6D
S11314B0D3F86C31EAE7054BD3F86C31EFE7034B13
S11314C0D3F87031EBE700BFA82D0000B081E00F26
S11314D008B5FFF79DFF18B1024A1368002BFCD131
S11314E008BD00BFC800C6431A4B022810B5D3F884
S11314F080310C4612D0032813D0012814BFDBB26C
S1131500C3F307231B0323F47042ECB95AB140F62A
S11315101D111148FFF712F9002010BDC3F3074352
S1131520F0E71B0EEEE70D49CA6E22F47042134336
S1131530CB660120F1E70949D1F8EC2022F470428E
S11315401343C1F8EC30F4E7002AF4D040F6291133
S1131550DFE700BFB081E00FA82D000000300E408F
S1131560F8B504460F46FFF753FF78B3FFF7B0FF13
S1131570174B5B68C3F301439C4227D0154BD3F848
S11315800051FEF79FFF022C06460FD1C5F3042538
S1131590114B05FB00059D4204D940F231610F480F
S11315A0FFF7CCF802213046FFF758F9C4F10202E4
S11315B010239340064A13610FB1FFF789FF2CB93A
S11315C021463046BDE8F840FFF748B9F8BD00BFF2
S11315D000300E4000400E40002D3101A82D0000C7
S11315E038B502460D46FFF713FFB8B142B90C4BAC
S11315F0D3F80041FEF766FFC4F3042202FB0002A5
S1131600084B1B7829463BB1074B9A4204D8022069
S1131610BDE83840FFF7A4BF0020F9E738BD00BF9C
S113162000400E4012110020002D31010378134AAE
S1131630002B437870B514BF04260026002B837852
S1131640946914BF02250025002B037924F03F047C
S113165043EA0403C47814BF08210021012C08BF05
S113166043F0010333432B430B43936113684179E4
S113167023F4403343EA0143136070BD00300E404D
S1131680224B4AF6E85210B5596B5A639A6FD40745
S1131690FCD41B6C13F003031EBF1D4A0124146009
S11316A0834203D108B91A4B186010BD032B17D01D
S11316B0B3B1164A1446936FDB07FCD4136C23F0C2
S11316C0030303431364A36F13F00103FBD100303E
S11316D00F4A18BF01200129106008BF6363E4E7C3
S11316E0431E012BE5D8094B4FF40022DA629A6FAE
S11316F0D207FCD41A6C22F0030242F001021A64ED
S1131700024A536A1C03FCD5D3E700BF00300E40E5
S1131710B40AC6432DE9F04FA0F5E16389B0002770
S1131720B3F5966F054601919346CDE90277CDE96D
S11317300477CDE9067705D940F6EE215548FEF742
S1131740FDFF59E0544BB0F5E16F8CBF4FF0010A37
S11317504FF0000AD3F8683152D01A0EC3F307438E
S1131760079204934FF496694FF4E164DFF82C81F7
S1131770D8F84C70C7F301773B46524605A902A836
S1131780FFF750FED8F8EC60C6F301263346524604
S113179006A903A8FFF746FE0798049A2C1B811A92
S11317A06143B1FBF9F3D1182CBF01230023884214
S11317B01CD3DBB9069A0398131A6343B3FBF9F3FA
S11317C010EB030A2CBF0123002352450ED36BB93F
S11317D0059B029A981A4443B4FBF9F912EB0909E0
S11317E02CBF012000204B4500D398B140F63C317A
S11317F02848FEF7A3FF0027384609B0BDE8F08F5C
S1131800C3F30722DBB2079204934FF416794FF423
S11318109664ABE7BBF1000F0ED0D8F85C3023F42C
S1131820FE4323F00203B5F5E16F43EA012318BF39
S113183002200343C8F85C30019B43B338460021BF
S1131840FFF752FE074610B940F64B3176E7012107
S11318503046FFF749FE074610B940F653316DE7AD
S11318600E4A536ED14538BFD14623F4FF73B9F104
S1131870E70F23F0010328BF4FF0E709B5F5E16F47
S113188018BF43F0010343EA49035366B4E7012751
S1131890B2E700BFA82D0000B081E00F00300E4079
S11318A0324A08B5136FD16CC90703F0070342D558
S11318B0012B40D9132857D9143813288CBF10236F
S11318C008232A49013BCA6C180322F47F4240EAE8
S11318D003231343CB64264BCA6C1B88C2F3032235
S11318E02833013202EB820003EB5303B3FBF0F322
S11318F0C86C013B072B20F0EE6028BF072340F49F
S1131900801040EA0363CB641A4BB3F90030002B18
S113191010DB2833500800EB420203EB5303B3FB04
S1131920F2F30A6D072B28BF072322F0700242EA64
S113193003130B6508BDD26CD10706D4012B04D860
S1131940092811D90A380928B8E7084AD26CD207FD
S113195003D5012B01D82728B0E740F6913106487A
S1131960FEF7ECFE0023ACE70423AAE700300E40A8
S11319700E11002010110020A82D00000B4B1B6835
S113198010B5044633B9012804D94FF43B61084823
S1131990FEF7D4FE074B186F20F0070020431867AA
S11319A0054BBDE810401888FFF77ABF8009C6438D
S11319B0A82D000000300E400C11002038B5594B02
S11319C002229A639B6B03F00F039342044607D0F1
S11319D040F64B215448FEF7B1FE0025284638BD99
S11319E00389C82B04D940F655214F48FEF7A6FEBB
S11319F0A28823899A4204D940F656214A48FEF720
S1131A009DFEB4F90C30C82B04DD40F6572146483E
S1131A10FEF794FE6378012B54D1A388C82B04D914
S1131A2040F65B214048FEF789FEE28842F21073DB
S1131A309A4204D940F668213B48FEF77FFEE388CA
S1131A404A2B47D9B3F5FA7F46D340F6C3118B42EC
S1131A5094BF4FF000514FF040513248B4F90C504C
S1131A60C36CA28823F0405323F00103002DA8BFC8
S1131A7043F001030B43C364D0F8EC3043F44073E8
S1131A80C0F8EC30294B1A80C36E43F08073C366F0
S1131A90274B186800B10420FFF770FF254B2189FC
S1131AA01980254BB4F90C20A0881A80FFF7F8FEA2
S1131AB0A37BA3B1012B22D040F6CE011A48FEF736
S1131AC03DFE0FE0022BB0D1A3880A2BADD94FF411
S1131AD02661A7E70021C0E74FF08051BDE7114B15
S1131AE0164A9A65012211466088FFF713FE0546DF
S1131AF040B940F69F210C48FEF720FE6EE7094BE3
S1131B000F4AEEE7074A6078D36B43F48063D363EC
S1131B10FFF7B6FDA37AA3F1200253425341094AC9
S1131B2013605BE700300E40A82D00000C1100206C
S1131B308009C6430E110020101100207740205761
S1131B40372110B79407C64338B50D46044618B379
S1131B50012824D0022825D0032826D004282AD0FE
S1131B60052825D0831F012B25D9082825D009282D
S1131B7025D00A280CBF07230023EB40DB0704D43D
S1131B8040F213410F48FEF7D9FD30235C43012195
S1131B900D4BA940195138BD40F2FF33EDE74FF624
S1131BA0C073EAE740F6FF73E7E74FF47F43E4E7E7
S1131BB04FF6FF73E1E70023DFE70F23DDE74FF480
S1131BC04043DAE7952E00000CA0004638B50D46D8
S1131BD0044618B3012824D0022825D0032826D08F
S1131BE004282AD0052825D0831F012B25D90828AD
S1131BF025D0092825D00A280CBF07230023EB4051
S1131C00DB0704D44FF479710F48FEF797FD3023B6
S1131C105C4301210D4BA940195138BD40F2FF33FB
S1131C20EDE74FF6C073EAE740F6FF73E7E74FF4DA
S1131C307F43E4E74FF6FF73E1E70023DFE70F2379
S1131C40DDE74FF44043DAE7952E00000CA0004492
S1131C50F8B50D4616461F46044600283CD0012818
S1131C603DD002283ED003283FD0042843D0052885
S1131C703ED0831F012B3ED908283ED009283ED0F0
S1131C800A280CBF07230023EB40DB0704D440F2EF
S1131C901D112748FEF752FD26B1294620468FB371
S1131CA0FFF752FF3023634303F18043072D03F50D
S1131CB020432AD85A68A9000F20884022EA00024B
S1131CC006FA01F10A435A608EBB2946204657B3EF
S1131CD0BDE8F840FFF738BF40F2FF33D4E74FF6D2
S1131CE0C073D1E740F6FF73CEE74FF47F43CBE7F1
S1131CF04FF6FF73C8E70023C6E70F23C4E74FF48A
S1131D004043C1E7FFF762FFCCE705F18042083AA0
S1131D10996892000F20904021EA000106FA02F22D
S1131D200A439A60D0E7BDE8F840FFF74FBFF8BD1B
S1131D301E2E0000022838B504460D4603D94C2156
S1131D401048FEF7FBFC6B791F2B03D951210D487A
S1131D50FEF7F4FCAB786A789B0143EA82032A78A5
S1131D601343EA7843EA02132A7943EAC2236A79DD
S1131D7043EA0233AA79043443EA42432401024A7F
S1131D80135138BD0D2F000000200440014B186092
S1131D90704700BF00008442427801790378002A2A
S1131DA0827870B514BF04260026002AC27814BFB6
S1131DB010250025002A42794FEA023242EA012224
S1131DC042EA0302837914BF20240024002BC37940
S1131DD042EA034343EA0603027A43EA050314BFD3
S1131DE04FF4004100212343002A14BF4FF4003272
S1131DF000220B431343014A136070BD00200440CA
S1131E00094B98420DD003F58063984209D003F53D
S1131E10E053984205D003F58063C31A58425841F1
S1131E2070470120704700BF008001402DE9F84F42
S1131E3005460C46FFF7E4FF18B99A212A48FEF735
S1131E407DFC217809B902236B606078E27894F80C
S1131E5008B094F806A094F8079000284FF0000307
S1131E60607A6B62A37814BF4FF040084FF000080B
S1131E7012040028A07A42EA036314BF4FF0800ED4
S1131E804FF0000E43EA0B030028E07A43EA8A236A
S1131E9014BF4FF0200C4FF0000C43EA0923002834
S1131EA0207B43EA080314BF1027002743EA0E03EC
S1131EB000282079647943EA0C0314BF082600261D
S1131EC03B43002814BF4FF4005000203343002C40
S1131ED014BF4FF080540024034323432B6009B103
S1131EE001236B60BDE8F88F842F0000F8B5054628
S1131EF00C461646FFF784FF18B9EA211F48FEF77F
S1131F001DFC032C03D9EB211C48FEF717FC737846
S1131F1032781B0643EA8263B2791343B27843EA08
S1131F200243F27843EA0233327943EA8223727934
S1131F3043EA0223F279002A327A14BF4FF0804731
S1131F400027002A727A14BF4FF000500020002AA4
S1131F50B27AF67A43EA067343EA070314BF102100
S1131F6000210343002A04F1060414BF04220022C2
S1131F700B43240113432B51F8BD00BF842F0000F1
S1131F8070B506460C46154622B94FF422710B482B
S1131F90FEF7D4FB1CB90A48FEF700FE0446013CD8
S1131FA06D00B4FBF5F42402E30DDB0523B140F22C
S1131FB0A5210248FEF7C2FB746170BDFC2F00002E
S1131FC04041050038B51E4B1E4D984204460ED0C4
S1131FD0A8420CD003F50063984208D003F580634F
S1131FE0984204D04FF486611748FEF7A7FB40F6E9
S1131FF0AA63E36041F20502002323606260134A8E
S1132000A3606361E364A26423666367A367E36711
S11320100B4B9C4209D0AC4207D003F500639C42B1
S113202003D003F580639C4201D100232365002380
S1132030AC42A36502D0064A944200D1E36538BDA0
S11320400000014000040140FC2F0000F9FF0100E2
S1132050000C014038B52A4B984204460D4610D076
S113206003F5806398420CD003F58063984208D04E
S113207003F58063984204D04FF456712148FEF76B
S11320805DFB2046FFF79EFFA97B2A8A236800296F
S113209042F0010214BF4FF48061002113430B434B
S11320A02A7D23602368002A14BF4FF000520022C7
S11320B013432360AB7C1BB1EB7C43F08003A3652B
S11320C02B7B43F480536360D5E901122046FFF76C
S11320D057FF6B7B0BB11023E3606B7D1BB123684F
S11320E043F480332360AB7DEA7D1B07120503F0C4
S11320F0E04302F4E002134323662B78E36038BD27
S113210000000140FC2F000003695A06FCD541631E
S113211003699B06FCD5C069C0B270477FB5094B03
S11321206A4603F11006154618685968144603C434
S11321300833B3422246F7D12846FFF73FFC00207C
S113214004B070BD7430000013B502230024684647
S1132150ADF8044000948DF80530FFF767FA204687
S113216002B010BD70B5154B86B001AA03F110067C
S1132170154618685968144603C40833B342224606
S1132180F7D11B8823800E4B5A6812030DD49B6829
S1132190C3F308030B48ADF80A30FEF7D5F9284617
S11321A0FFF7A0F8002006B070BD074B1B884FF660
S11321B0FF72934208BF4FF4A673EBE7843000002C
S11321C0B081E00F00F049020001E00F07B5084BB1
S11321D018680190202301A88DF80430FFF7DCF87B
S11321E06420FEF7C9FD002003B05DF804FB00BFC6
S11321F09630000010B50C480C4C6FF00402A0217E
S113220012F0800FD3B21BBF03F00F03043BA318DB
S11322101B1802F101020CBF83F800131976332A4C
S1132220EED1002010BD00BF00ED00E000E100E0B1
S113223000230B7070470000104A4161136830B5E9
S11322401546ABB91060836011E0091B9C684161BD
S11322501A467CB123465C698C42F6D9002CF4D032
S113226052B19060836013B15A69511A596130BDFB
S11322700022F0E72346F4E72860F3E72811002062
S113228010B500F0FBF9094B094A196831B114681B
S11322904B69041BA34203D31B1B4B61106003E077
S11322A0C01A002310604B6110BD00BF281100202C
S11322B01411002038B50F4B0F4D1C682B685B6957
S11322C002201C4400F012FA204600F0E3F90B4906
S11322D02A6800230B70D088800702D501230B7075
S11322E038BD9268002AFBD050690344012BF2D90F
S11322F0F6E700BF14110020281100201C11002053
S113230070B59DF814500571002516468560049A31
S1132310BDF81850C58004460260C0E903360D4676
S113232029B961610BB11146984796B13546FFF75B
S113233066F80646FFF7A4FF29462046FFF77CFF10
S1132340054B1B68A34201D1FFF7B4FF3046FFF7EA
S11323505CF8002070BD00BF281100200C4A1368EF
S113236000217BB183420AD1836879B18B60836891
S11323701BB15A6941690A445A61002070471946E1
S11323809B68EEE70028EFD0022070471360EEE769
S11323902811002070B5154EFFF731F83478054642
S11323A0FCB9134B1C60134B1C60134B1C8000F0D6
S11323B021F9012000F09AF900F0D6F90F4B0246FA
S11323C0186020B92846FFF720F8232070BD234663
S11323D00B4840F2E73100F007FA0A4B186001237A
S11323E033702846FFF711F80020EFE7131100209F
S11323F028110020141100201E1100202411002097
S113240018FCFFFF1811002038B50C46054698B19A
S113241091B100230B70FEF7F2FF084B1B680121FA
S11324200BB122781AB1FEF7F0FF002038BD9D42AF
S11324300CBF21709B68F3E72220F7E728110020E6
S1132440F0B587B01F4600230D4616468DF81730A9
S11324500446A0B10DF11701FFF7D6FF9DF8172030
S11324607AB9BDF8343002939DF830302946CDE96D
S1132470007320463346FFF743FF07B0F0BD222028
S1132480FBE70320F9E70000044B1B6858434FF4B3
S11324907A73B0FBF3F00130704700BF24110020C1
S11324A000B58BB00AAA012302F8193DFFF7ECFF2F
S11324B00023CDE900330146134604A8054AFFF77B
S11324C0BFFF18B99DF80F30002BFBD10BB05DF89E
S11324D004FB00BF31220000C2072DE9F84F044677
S11324E00BD53F4A138801339BB21380FFF7C8FE14
S11324F03C4B1B680BB1FFF7DDFEA3076DD53A4FCC
S113250000F0BCF83D688046451BFEF778FF0026C6
S113251083463246B246334B1C6814B16369AB42FE
S113252017D9324B0021012E197004D11AB1D28867
S1132530022A08BF1E70002C4BD06369C7F80080C4
S11325405D1B6561FFF7B6FE5846BDE8F84FFEF720
S11325505CBFC7F8008023462A465969914209D8CE
S1132560187994F804C0844588BF1C469B68521AA5
S1132570002BF2D15846FEF748FFD4F814B0C4F843
S113258014A0FEF73CFF81462046FFF7E7FE4846CD
S1132590FEF73BFF23694BB1FEF731FF216981460A
S11325A02046FFF749FE4846FEF72FFFE36813B1C4
S11325B021682046984700F061F8D844A5EB080547
S11325C081460544FEF71BFF013683462246C84672
S11325D0A1E7022000F098F8B6E7BDE8F88F00BF45
S11325E01E110020281100201411002020110020A9
S11325F00020704710B51D4B86B05968186803AAAF
S113260003C2197A53F8090F117000249A880190B3
S11326109B791748ADF8082001218DF80A30FEF7A0
S11326202BF98DF80C40FFF7E3FF8DF8100003A899
S1132630FFF7B2FB01A901208DF80440FFF77AFBF4
S11326400C4A536A23F4FF6323F00703536240F2F6
S1132650FF73136201209460FFF798FB064B4FF061
S11326608042C3F880211A6006B010BD9A30000081
S1132670A00914000020044000E100E0014B986828
S1132680704700BF00200440014B586D704700BFE5
S11326900020044010B5134C0246A168FFF7F4FF74
S11326A0A3695B0704D4431A032B01D888420DD1D4
S11326B0531A022B98BFCA1C0A4BB2F1FF3F38BF12
S11326C0013A5A655A6A42F004025A62064A137879
S11326D033B104490B6D43F002030B6500231370FF
S11326E010BD00BF00200440861000208207054A68
S11326F000F00103516A48BF43F004030B435362E3
S1132700704700BF00200440830700F0010209D590
S1132710074B0121197007490B6D23F0030342F0A5
S113272004020B6503494B6A23EA02034B627047B8
S1132730861000200020044010B5FEF760FE094A10
S113274093690446590703F0010003F0070348BFE7
S113275040F002001362FFF7BFFE2046BDE81040C0
S1132760FEF753BE0020044008B50448FEF716FAED
S11327700346FFF73DFF23FA00F008BDA00914004B
S113278008B5FDF77FFDFDF7C9FDFDF7C9FDFDF7B0
S1132790C9FDBDE80840FDF7C6BD08B5FDF7C4FD99
S11327A0FDF7C3FDFDF7C2FDBDE80840FDF7BFBD61
S11327B010B50446FDF7B0FE4FF47A735C43B0FBEA
S11327C0F3F0064BB3FBF0F0B4FBF0F0800803D059
S11327D0BDE8104000F004B810BD00BF40420F0037
S11327E0013800D0FCE7704753B94AB9002908BF43
S11327F000281CBF4FF0FF314FF0FF3000F072B9DA
S1132800ADF1080C6DE904CE00F006F8DDF804E043
S1132810DDE9022304B070472DE9F047089E044621
S11328208846002B4BD18A42154667D9B2FA82F208
S11328304AB1C2F1200701FA02F320FA07F79540E2
S113284047EA030894404FEA154E230CB8FBFEF701
S11328501FFA85FC0EFB178843EA084307FB0CF1BB
S1132860994209D9EB1807F1FF3080F01B81994296
S113287040F21881023F2B445B1AA4B2B3FBFEF072
S11328800EFB103344EA034400FB0CFCA44509D9B5
S11328902C1900F1FF3380F00781A44540F2048134
S11328A002382C4440EA0740A4EB0C0400271EB174
S11328B0D4400023C6E900433946BDE8F0878B4283
S11328C009D9002E00F0EB800027C6E90001384644
S11328D03946BDE8F087B3FA83F7002F47D18B421E
S11328E002D3824200F2FA80841A61EB03030120CE
S11328F09846002EE0D0C6E90048DDE702B9FFDEC5
S1132900B2FA82F2002A40F08F80491B4FEA154E3A
S11329101FFA85F80127B1FBFEFC230C0EFB1C11EA
S113292043EA014308FB0CF1994207D9EB180CF177
S1132930FF3002D2994200F2CD808446591AA3B2E4
S1132940B1FBFEF00EFB101443EA044408FB00F84C
S1132950A04507D92C1900F1FF3302D2A04500F29B
S1132960B6801846A4EB080440EA0C409FE7C7F180
S1132970200CBB4022FA0CFE4EEA030E01FA07F4C7
S113298020FA0CF521FA0CF34FEA1E482543B3FB59
S1132990F8F92C0C08FB19331FFA8EFA44EA0343A6
S11329A009FB0AF49C4202FA07F200FA07F10BD978
S11329B01EEB030309F1FF3080F087809C4240F254
S11329C08480A9F1020973441B1BADB2B3FBF8F078
S11329D008FB103345EA034400FB0AFAA24508D970
S11329E01EEB040400F1FF336BD2A24569D902380F
S11329F0744440EA0940A0FB0289A4EB0A044C4554
S1132A00C2464B4654D351D0002E69D0B1EB0A05CF
S1132A1064EB030404FA0CFCFD40FC404CEA05059D
S1132A20C6E90054002747E7C2F1200320FA03F760
S1132A30954001FA02F021FA03F34FEA154E3843A8
S1132A40010CB3FBFEF71FFA85F80EFB173341EABE
S1132A50034107FB08F38B4204FA02F407D969180F
S1132A6007F1FF3C2FD28B422DD9023F2944CB1AC8
S1132A7081B2B3FBFEF00EFB103341EA034100FBCD
S1132A8008F38B4207D9691800F1FF3C17D28B4237
S1132A9015D902382944C91A40EA07473BE73746A3
S1132AA0304609E70746E7E61846FBE64145ABD260
S1132AB0B8EB020A69EB0E0201381346A4E760463C
S1132AC0E9E7184695E76746D1E781467CE702388F
S1132AD02C4447E7ACF1020C2B442FE7384608E7B7
S1132AE03746E9E6704700BF08B5074B044613B103
S1132AF00021AFF30080054B1868836A03B198473F
S1132B00204600F031F800BF00000000AC300000A7
S1132B1070B50D4E0D4CA41BA4100025A54209D17F
S1132B200B4E0C4C00F022F8A41BA4100025A54267
S1132B3005D170BD56F8253098470135EEE756F8B3
S1132B40253098470135F2E7E8100020E81000200E
S1132B50E8100020EC10002002440346934200D108
S1132B60704703F8011BF9E7FEE700BFF8B500BFA3
S1132B70F8BC08BC9E467047F8B500BFF8BC08BC5A
S1132B809E467047050000000000000040420F0010
S1132B900501000000000000000000002F686F6DB8
S1132BA0652F6D6168656E6472612F53696D706C19
S1132BB0696369747953747564696F2D352F53692A
S1132BC06D706C696369747953747564696F5F7649
S1132BD0352F646576656C6F7065722F73646B73E3
S1132BE02F6765636B6F5F73646B5F73756974657F
S1132BF02F76332E322F706C6174666F726D2F6472
S1132C0072697665722F70776D2F7372632F736C90
S1132C105F70776D2E63002F686F6D652F6D61682F
S1132C20656E6472612F53696D706C696369747940
S1132C3053747564696F2D352F53696D706C6963B6
S1132C4069747953747564696F5F76352F6465763A
S1132C50656C6F7065722F73646B732F6765636B3C
S1132C606F5F73646B5F73756974652F76332E328F
S1132C702F2F706C6174666F726D2F656D6C696255
S1132C802F696E632F656D5F74696D65722E6800C0
S1132C902F686F6D652F6D6168656E6472612F5367
S1132CA0696D706C696369747953747564696F2DA7
S1132CB0352F53696D706C696369747953747564E5
S1132CC0696F5F76352F646576656C6F7065722FFA
S1132CD073646B732F6765636B6F5F73646B5F7390
S1132CE0756974652F76332E322F2F706C6174667C
S1132CF06F726D2F656D6C69622F696E632F656DE0
S1132D005F636F6D6D6F6E2E68002F686F6D652F3A
S1132D106D6168656E6472612F53696D706C69636F
S1132D2069747953747564696F2D352F53696D70A7
S1132D306C696369747953747564696F5F76352F50
S1132D40646576656C6F7065722F73646B732F673F
S1132D5065636B6F5F73646B5F73756974652F76FE
S1132D60332E322F706C6174666F726D2F656D6CCB
S1132D7069622F7372632F656D5F636D752E6300D7
S1132D8040787D0100000000005A6202000100004A
S1132D90C0CF6A0002000000809FD500020100003D
S1132DA0002D3101020200002F686F6D652F6D61E7
S1132DB068656E6472612F53696D706C69636974C0
S1132DC07953747564696F2D352F53696D706C690F
S1132DD06369747953747564696F5F76352F6465BC
S1132DE076656C6F7065722F73646B732F676563A0
S1132DF06B6F5F73646B5F73756974652F76332EC5
S1132E00322F706C6174666F726D2F656D6C6962C0
S1132E102F7372632F656D5F656D752E63002F6868
S1132E206F6D652F6D6168656E6472612F53696D96
S1132E30706C696369747953747564696F2D352F87
S1132E4053696D706C696369747953747564696FDF
S1132E505F76352F646576656C6F7065722F736469
S1132E606B732F6765636B6F5F73646B5F737569F7
S1132E7074652F76332E322F706C6174666F726DA9
S1132E802F656D6C69622F7372632F656D5F677058
S1132E90696F2E63002F686F6D652F6D6168656EB5
S1132EA06472612F53696D706C69636974795374CA
S1132EB07564696F2D352F53696D706C696369741E
S1132EC07953747564696F5F76352F646576656CC4
S1132ED06F7065722F73646B732F6765636B6F5FBD
S1132EE073646B5F73756974652F76332E322F2F7D
S1132EF0706C6174666F726D2F656D6C69622F6999
S1132F006E632F656D5F6770696F2E68002F686F41
S1132F106D652F6D6168656E6472612F53696D70A4
S1132F206C696369747953747564696F2D352F53B3
S1132F30696D706C696369747953747564696F5FE2
S1132F4076352F646576656C6F7065722F73646B6C
S1132F50732F6765636B6F5F73646B5F73756974FD
S1132F60652F76332E322F706C6174666F726D2FFD
S1132F70656D6C69622F7372632F656D5F72746324
S1132F80632E63002F686F6D652F6D6168656E64D5
S1132F9072612F53696D706C6963697479537475C8
S1132FA064696F2D352F53696D706C696369747929
S1132FB053747564696F5F76352F646576656C6FDD
S1132FC07065722F73646B732F6765636B6F5F73C8
S1132FD0646B5F73756974652F76332E322F706C52
S1132FE06174666F726D2F656D6C69622F737263A5
S1132FF02F656D5F74696D65722E63002F686F6D48
S1133000652F6D6168656E6472612F53696D706CB4
S1133010696369747953747564696F2D352F5369C5
S11330206D706C696369747953747564696F5F76E4
S1133030352F646576656C6F7065722F73646B737E
S11330402F6765636B6F5F73646B5F73756974651A
S11330502F76332E322F706C6174666F726D2F650C
S11330606D6C69622F7372632F656D5F7573617226
S1133070742E6300000108070F000A00C800200036
S1133080A000010000000000A00068010A2007065B
S1133090020A040700000002070001000000050006
S11330A0000000020000030000000000881000205F
S10B30B09CD0FF7F0100000029
S11330B800010101020202020202020303030303E4
S11330C80404040405050505060606070707080899
S11330D80809090A0A0A0B0B0C0C0D0D0E0F0F1028
S11330E81111121313141516171718191A1B1C1D6E
S11330F81E1F20222324252728292B2C2E30313348
S11331083536383A3C3E40424447494B4E50535575
S1133118585B5E616400000000A001400103081EC2
S1133128C0EA210100F04902C0EA21010080000040
S1133138C0EA2101FFFF01000000000000000000B8
S11331480000000000000000000000000000000073
S11331580000000000000000000000000000000063
S11331680000000000000000000000000000000053
S11331780000000000000000000000000000000043
S11331880000000000000000000000000000000033
S11331980000000000000000310100000D010000E3
S903049167
